:100000000C9434000C945D000C945D000C945D0025
:100010000C945D000C945D000C9481020C945D00C6
:100020000C945D000C945D000C945D000C94980998
:100030000C945D000C945D000C94F7080C945D002A
:100040000C945D000C945D000C945D000C945D00BC
:100050000C945D000C945D000C945D000C94B80948
:100060000C945D000C945D0011241FBECFEFD8E00E
:10007000DEBFCDBF14BE0FB6F894A8958091600086
:10008000886180936000109260000FBE11E0A0E0D4
:10009000B1E0E6EAF0E202C005900D92AC30B107A3
:1000A000D9F721E0ACE0B1E001C01D92AE38B20753
:1000B000E1F70E94F90C0C943F100C94000084E2CC
:1000C00091E00895FC018CE0A8E1B1E001900D926F
:1000D0008A95E1F781E080930E010895CF93DF9335
:1000E000C4E2D1E019861882CE010E94BE0B9B8724
:1000F0008A878091530190915401A0915501B0914C
:10010000560180930F0190931001A0931101B093B9
:100110001201DF91CF910895CF93DF93C0910E012B
:10012000C130A1F1C1114BC0409153015091540114
:10013000609155017091560180910F0190911001CD
:10014000A0911101B0911201805C9F4FAF4FBF4F42
:1001500084179507A607B70790F5809113018111C1
:1001600066C08091530190915401A0915501B091C6
:10017000560180930F0190931001A0931101B09349
:10018000120185E1DF91CF910C94740940915301E4
:1001900050915401609155017091560180910F0169
:1001A00090911001A0911101B0911201805C9F4FBC
:1001B000AF4FBF4F84179507A607B70718F0DF9119
:1001C000CF9108958091530190915401A0915501D0
:1001D000B091560180930F0190931001A0931101EB
:1001E000B093120110920E010E948B0480930D01B6
:1001F000D82FD370D0930C0181FF3AC080911301A6
:10020000D23011F1833071F06FEF70E08FEF90E03A
:100210000E94E1036091790180E00E94DC0383E0A9
:100220008093130180E1DF91CF910C9474096FEFFB
:1002300070E08FEF90E00E94E10360E080E00E94B8
:10024000DC03109213018DCF823069F06FEF70E004
:100250008FEF90E00E94E10360E080918D010E94A9
:10026000DC03D093130181E0DF91CF910C947409EA
:1002700080911301813071F06FEF70E08FEF90E0AB
:100280000E94E10360918C0180918B010E94DC034C
:10029000C093130184E0DF91CF910C947409CF9344
:1002A000DF93EC01809113018C171D0619F4DF9187
:1002B000CF9108956FEF70E08FEF90E00E94E1031F
:1002C0002097B1F0C130D105C1F0C230D10551F055
:1002D0006091790180E00E94DC03C0931301DF91FB
:1002E000CF91089560E080918D010E94DC03F5CFED
:1002F00060E080E00E94DC03F0CF60918C0180918F
:100300008B010E94DC03E9CF089590E080E008951E
:100310000895559854983B9A3A9A3D983C98089578
:10032000559A549A3B983A983D983C980895559818
:1003300054983B983A983D983C980895BF92CF9234
:10034000DF92EF92FF920F931F93CF93DF93F89476
:1003500014B817B81AB815B818B81BB8529A5A9AE0
:1003600014BC85E085BD8FEF87BD82E080936E0071
:1003700010928000109281002FE83BE030938900BA
:100380002093880080936F005398239891EA90936C
:10039000B0008093B1001092B4001092B3008BE0D3
:1003A00080BF83E080937F0086E080937C0083E8B9
:1003B00080937A0080917A00806480937A008091A3
:1003C0007A0086FDFCCF10927C0083EA80937A004D
:1003D00081E080937B0081E090E00E94D50F8F3F09
:1003E00011F08093660010925701C1E0C093300174
:1003F000C093740110924E011092880180E990E040
:100400000E94D50F80934D0180914D01887311F0AA
:10041000C0934D0110927801109277018FEF90E018
:1004200090937601809375011092530110925401BC
:10043000109255011092560181E08093170182E4D9
:100440009FE0909387018093860180EB90E00E946B
:10045000D50FC82F81EB90E00E94D50FD82FD093F5
:100460008A01C093890185E090E00E94D50F8093B6
:100470008D0189E090E00E94D50F809379018CE096
:1004800090E00E94D50F80938B0184E190E00E9460
:10049000D50F80938C0108E511E081E3E82E81E01F
:1004A000F82E94E7C92E91E0D92EC0E2D0E0CE011B
:1004B0000E94D50FB82ECE0101960E94D50F9B2D1C
:1004C000F801819391938F01CE01C0960E94D50FC0
:1004D000B82ECE01C1960E94D50F9B2DF7018193B6
:1004E00091937F012296C016D10609F77894DF9187
:1004F000CF911F910F91FF90EF90DF90CF90BF9021
:1005000008950F920FB60F921F9211248F930FB67A
:10051000F894A895809160008861809360001092A3
:1005200060000FBE8F911F900F900FBE0F90189517
:100530003C01EB0110E099249A9484E0C82E96E0E7
:10054000A92E23E8B22E38E1D32E49E2E42EE09121
:100550001701E730E0F7F0E0EF5BFF4E0C94240D5D
:10056000111102C0F3010995C092170111E0FE01BB
:100570000995EDCF809157018111E9C0F894A092BF
:100580007C00B0927A0080917A00806480937A0037
:1005900080917A0086FDFCCF80917800909179005F
:1005A00078948B3AE2E09E070CF0CEC08938F2E0F6
:1005B0009F070CF0CFC0873692400CF4C8C0559A04
:1005C000549A3B9A3A9A3D983C98C1CF0E9489012F
:1005D000EFECF7E03197F1F700C000000E949701BF
:1005E000FFEF21EE84E0F15020408040E1F700C0B1
:1005F0000000ADCFF89480B7877F80BF80917A00EC
:100600008F7780937A0014B817B81AB815B818B84D
:100610001BB80FB6F894A895D09260000FBEE09278
:1006200060008091600080648093600083B7817F68
:10063000846083BFF89483B7816083BF7894889582
:1006400083B78E7F83BF789410925701529A5A9A3B
:1006500080917A00806880937A0087E592E0019724
:10066000F1F700C0000080B7886180BF559A549AA6
:100670003B9A3A9A3D9A3C9AEFE1FEE43197F1F7C2
:1006800000C0000080915701811152C00E94970163
:100690005ECF80911501811121C01092B30010929C
:1006A000B4001092160153CF4899F0CF559A549840
:1006B0003B983A983D983C988FEC97E00197F1F77A
:1006C00000C000000E9497019FEFE1EEF4E091501E
:1006D000E040F040E1F700C0000039CF90911501F3
:1006E00080911601981709F432CF809115018093FB
:1006F0001601809115018130A1F1809115011092B0
:10070000B3009092B4008230E9F19092B3009092DD
:10071000B4008FE295E70197F1F700C000008091E7
:100720008C0190918B019093B3008093B4000FCF14
:100730000E949001FFEF20E782E0F15020408040CE
:10074000E1F700C00000A2CF0E94890100CF0E9403
:100750009001FDCE559854983B983A983D9A3C9A12
:10076000F6CE9092B3001092B4008FE295E7019715
:10077000F1F700C0000080918D018093B3001092CA
:10078000B400E5CEEFE2F5E73197F1F700C00000E5
:10079000809179011092B3008093B400D8CE9C016F
:1007A000892B49F08FEC97E00197F1F700C000002A
:1007B00021503109B9F708958093B3006093B400D4
:1007C00008958FEF8093B3008093B4008FEC97E08F
:1007D0000197F1F700C000008FEC97E00197F1F767
:1007E00000C000008FEC97E00197F1F700C0000017
:1007F0008FEC97E00197F1F700C000008FEC97E0D5
:100800000197F1F700C000008FEC97E00197F1F736
:1008100000C000008FEC97E00197F1F700C00000E6
:100820008FEC97E00197F1F700C000008FEC97E0A4
:100830000197F1F700C000008FEC97E00197F1F706
:1008400000C000008FEC97E00197F1F700C00000B6
:100850008FEC97E00197F1F700C000008FEC97E074
:100860000197F1F700C000008FEC97E00197F1F7D6
:1008700000C000008FEC97E00197F1F700C0000086
:1008800008958091570181111EC0F89487E08093EC
:100890007C0083E880937A0080917A008064809362
:1008A0007A0080917A0086FDFCCF8091780090914B
:1008B000790010927C0023EA20937A0021E02093B3
:1008C0007B00789408958FEF9FEF089580915701F2
:1008D00081111EC0F89488EC80937C0087E8809397
:1008E0007A0080917A00806480937A0080917A0007
:1008F00086FDFCCF809178009091790010927C0069
:1009000023EA20937A0021E020937B0078940895D5
:100910008FEF9FEF08951F93CF93DF93F0E0E0E018
:1009200080E016E0D3E8C3EA71E0A1E0B0E060E85F
:10093000F89410937C00D0937A0090917A009064A0
:1009400090937A0090917A0096FDFCCF20917800E8
:1009500030917900217090917A00906490937A00A0
:1009600090917A0096FDFCCF4091780050917900EB
:1009700010927C00C0937A0070937B007894417051
:10098000241302C06150A1F6222339F09D010E2EDE
:1009900001C0220F0A94EAF7822B3196E830F10564
:1009A00031F6DF91CF911F91089520910001822FA0
:1009B000880F880F880F28279091140181E0890FF4
:1009C00080931401822F8295869587708227969551
:1009D00096958927809300010895809300010895DA
:1009E00080915701811116C0F89486E080937C00B5
:1009F00083E880937A0080917A00806480937A0003
:100A000080917A0086FDFCCF8091780090917900EA
:100A1000789408958FEF9FEF08952F923F924F9211
:100A20005F926F927F928F929F92AF92BF92CF927E
:100A3000DF92EF92FF920F931F93CF93DF93CDB787
:100A4000DEB728970FB6F894DEBF0FBECDBF7C018E
:100A5000DC0112960D90BC91A02DB887AF83A4380D
:100A6000E3E0BE070CF477C0DC01ED90FC908091D0
:100A7000580190915901DD24DA948E159F0508F4F0
:100A80003BC200915A0110915B010E151F0508F43D
:100A90004AC300915C0110915D010E151F0508F419
:100AA00047C300915E0110915F010E151F0508F408
:100AB00044C300916001109161010E151F0508F4F7
:100AC00041C300916201109163010E151F0508F4E6
:100AD0003EC300916401109165010E151F0508F4D5
:100AE0003FC300916601109167010E151F0508F4C0
:100AF00040C300916801109169010E151F0508F4AB
:100B000041C300916A0110916B010E151F0508F495
:100B100046C200916C0110916D010E151F0508F47D
:100B20003AC300916E0110916F010E151F0508F474
:100B30003BC300917001109171010E151F0508F45F
:100B40003CC300917201109173010E151F0508F44A
:100B50003DC31AE520C180913101909132018A177D
:100B60009B0708F4B1C100913301109134010A17B9
:100B70001B0708F4F1C200913501109136010A17E4
:100B80001B0708F4F2C200913701109138010A17CF
:100B90001B0708F4F3C20091390110913A010A17BA
:100BA0001B0708F4F8C100913B0110913C010A17A2
:100BB0001B0708F4ECC200913D0110913E010A1799
:100BC0001B0708F4EDC200913F01109140010A1784
:100BD0001B0708F4EEC200914101109142010A176F
:100BE0001B0708F4EFC200914301109144010A175A
:100BF0001B0708F49BC100914501109146010A179B
:100C00001B0708F4E8C200914701109148010A1738
:100C10001B0708F4E4C20091490110914A010A1728
:100C20001B0708F4E0C200914B0110914C018DE0CC
:100C30002DE030E00A171B0708F47BC1412C512C32
:100C400030ED3D8340E44E832CE0C22ED12CF601E2
:100C5000EE0FFF1FEF5CFE4F80819181D801A81B32
:100C6000B90B9D0150E040E029833A834B835C83BC
:100C7000CA01BD010E94620E9B01AC0169837A83A7
:100C80008B839C8369817A818B819C810E944E0D2C
:100C90005B016C018F819885092E000CAA0BBB0BA0
:100CA00089839A83AB83BC83BC01CD010E94640E0F
:100CB0003B014C01980150E040E029833A834B838B
:100CC0005C83CA01B8010E94620E1B018C01920173
:100CD0004D815E81A982BA82CB82DC8269817A8170
:100CE0008B819C810E94F00E9B01AC0129823A828B
:100CF0000B831C8369817A818B819C810E944D0DBD
:100D00009B01AC0169827A828B829C8269817A81A3
:100D10008B819C810E944D0D20E030E040E251E447
:100D200069837A838B839C8369817A818B819C819F
:100D30000E94F00E69837A838B839C8369817A8118
:100D40008B819C810E942C0E8B01A982BA82CB825E
:100D5000DC8269817A818B819C810E942C0E69835F
:100D60007A838B839C83C80169817A810E94100DEC
:100D7000D62E4F8158854D3B52400CF409C1D70106
:100D8000ED90FC9080915801909159018E159F052E
:100D900008F077CE10E0BFEF81E2810FDB1609F497
:100DA000ACC02D2D30E050E040E029833A834B83E6
:100DB0005C83CA01B9010E94620E6B017C01812F24
:100DC00090E0B0E0A0E089839A83AB83BC83BC0150
:100DD000CD010E94620E4B015C012F813885032EEC
:100DE000000C440B550B29833A834B835C83CA0167
:100DF000B9010E94640E8B018E839D839B01AC011F
:100E000060E070E081E694E40E944D0D9601A70138
:100E100069837A838B839C8369817A818B819C81AE
:100E20000E94F00E6B017C0120E030E04FE254E4C0
:100E300009831A838E818B839D819C8369817A814A
:100E40008B819C810E944D0D9401A50169837A8359
:100E50008B839C8369817A818B819C810E94F00EB7
:100E60009B01AC01C982DA82EB82FC8269817A81C2
:100E70008B819C810E944E0D20E030E048E453E4D9
:100E800069837A838B839C8369817A818B819C813E
:100E90000E94BA0D20E030E044E052E469837A8396
:100EA0008B839C8369817A818B819C810E944E0D0A
:100EB00069837A838B839C8369817A818B819C810E
:100EC0000E94330E862F19C0AD3BB240ACF0D70163
:100ED000ED90FC908091580190915901D12C8E1584
:100EE0009F0508F0CECD812C912CA12CB12CC12CCA
:100EF000D12CE12CF12C71CF81E228960FB6F89419
:100F0000DEBF0FBECDBFDF91CF911F910F91FF903C
:100F1000EF90DF90CF90BF90AF909F908F907F9099
:100F20006F905F904F903F902F90089589E029E057
:100F300030E06901F1E0CF1AD108282F30E050E00D
:100F400040E029833A834B835C83CA01B9010E9444
:100F5000620E20E030E040E05FE369837A838B83B8
:100F60009C8369817A818B819C810E94F00E20E0B4
:100F700030E0A90169837A838B839C8369817A81BC
:100F80008B819C810E944E0D2B018D839E835FCEB1
:100F900081E2860FB2CF84E024E030E0CACF59E08E
:100FA000652EE9E0F0E0EE0FFF1FEA5AFE4F808168
:100FB0009181D801A81BB90B9D0150E040E0298325
:100FC0003A834B835C83CA01BD010E94620E9B0180
:100FD000AC0169837A838B839C8369817A818B815D
:100FE0009C810E944E0D962EA72EB82EC92EC701A9
:100FF000FF0CAA0BBB0B89839A83AB83BC83BC0118
:10100000CD010E94640E762E872E7C01980150E05F
:1010100040E029833A834B835C83CA01B8010E9474
:10102000620E2B018C01862D90E0B0E0A0E0898358
:101030009A83AB83BC83BC01CD010E94620E20E089
:1010400030E040E05FE369837A838B839C8369812E
:101050007A818B819C810E94F00E20E030E0A90112
:1010600069837A838B839C8369817A818B819C815C
:101070000E944E0D292D3A2D4B2D5C2D69837A83CC
:101080008B839C8369817A818B819C810E94F00E85
:101090009B01AC0149825A820B831C8369817A814E
:1010A0008B819C810E944D0D9B01AC0179828A82CB
:1010B000EB82FC8269817A818B819C810E944D0D3B
:1010C00020E030E040E251E469837A838B839C83A3
:1010D00069817A818B819C810E94F00E69837A8379
:1010E0008B839C8369817A818B819C810E942C0EE9
:1010F0008B019982AA82BB82CC8269817A818B81A1
:101100009C810E942C0E69837A838B839C83C80107
:1011100069817A810E94100D162F6F3F09F03BCE36
:1011200081E28D0DEACE66246394E1E0F0E03BCFEE
:1011300082E0682EE2E0F0E036CFB3E06B2EE3E031
:10114000F0E031CFA4E06A2EE4E0F0E02CCFF5E04F
:101150006F2EE5E0F0E027CF81E021E030E0E9CE3E
:10116000E6E06E2EE6E0F0E01ECF82E022E030E026
:10117000E0CE77E0672EE7E0F0E015CF83E023E0F4
:1011800030E0D7CE68E0662EE8E0F0E00CCF85E0F6
:1011900025E030E0CECE4AE0642EEAE0F0E003CF76
:1011A00086E026E030E0C5CE3BE0632EEBE0F0E0E9
:1011B000FACE87E027E030E0BCCE2CE0622EECE0F7
:1011C000F0E0F1CE88E028E030E0B3CE9DE0692E7B
:1011D000EDE0F0E0E8CE8AE02AE030E0AACE8BE055
:1011E0002BE030E0A6CE8CE02CE030E0A2CE1F92C7
:1011F0000F920FB60F9211242F933F934F935F934B
:101200006F937F938F939F93AF93BF93EF93FF93CE
:10121000809177019091780120917501309176014C
:10122000820F931F90937801809377018FEF90E066
:1012300090937601809375018FEF87BD8091530164
:1012400090915401A0915501B09156010196A11DB4
:10125000B11D8093530190935401A0935501B09315
:1012600056018091570181110FC0809186019091A4
:10127000870120917701309178018217930720F43C
:1012800080911701843089F0FF91EF91BF91AF9168
:101290009F918F917F916F915F914F913F912F918E
:1012A0000F900FBE0F901F901895E0910301F091E1
:1012B00004010995009741F30E94760C882351F0B0
:1012C000E0910101F09102010995109278011092CC
:1012D0007701DACF0E94C50F9C0199279093760180
:1012E0008093750127BDD0CF80FF11C0559A81FF33
:1012F00011C0549A82FF11C03B9A83FF11C03A9AE1
:1013000084FF11C03D9A85FF11C03C9A08955598FD
:1013100081FDEFCF549882FDEFCF3B9883FDEFCF57
:101320003A9884FDEFCF3D9885FDEFCF3C98089526
:101330001F921FB61F9211248F939F9310928100CA
:10134000109285001092840081E080933001809398
:1013500074011092570110927C0093EA90937A00E6
:1013600080937B009F918F911F901FBE1F901895B7
:101370001F920F920FB60F9211240F931F932F936A
:101380003F934F935F936F937F938F939F93AF930D
:10139000BF93EF93FF93CF93DF9300D000D0CDB7EF
:1013A000DEB7209184003091850041E040935701E1
:1013B000809130018823D9F1109285001092840029
:1013C0004093810010928801109230018091740145
:1013D0008823A1F080917A0086FDFCCF809178006F
:1013E00090917900909352018093510181E0809314
:1013F0007C0093EA90937A0080937B000F900F908B
:101400000F900F90DF91CF91FF91EF91BF91AF912E
:101410009F918F917F916F915F914F913F912F910C
:101420001F910F910F900FBE0F901F901895C9013B
:101430008758910984379940A0F01092810010924A
:101440008500109284004093300140937401109203
:10145000570110927C0083EA80937A0040937B00CE
:10146000CDCF26583109A4EFB0E00E942A0D698340
:101470007A838B839C838C0122273327883008F45E
:1014800065C0409330018091740181113CC080910E
:101490004E01E82FF0E0E658FE4F909188019083CE
:1014A0008F5F80934E018C3009F0A8CF109281009D
:1014B000109285001092840040937401109257019D
:1014C00000918401109185018AE791E00E94BE0B92
:1014D0000817190709F092CFE0918301E7FF48C090
:1014E00098E79E0F933030F0539823981092B400F1
:1014F0001092B300E058EB3008F080CFF0E0E85BEA
:10150000FF4E0C94240D80917A0086FDFCCF8091D3
:101510007800909179009093500180934F01109240
:101520007C0083EA80937A0081E080937B00909135
:1015300088019923C1F010928100109285001092C9
:101540008400809374011092570158CF81E090E09D
:101550009C0101C0220F0A95EAF780918801822B35
:10156000809388014BCF1092740110924E0146CFA8
:10157000E0910501F09106016FE471E08AE791E0E6
:1015800009953CCF80917A01823009F481C008F03E
:1015900068C0882309F4BAC080917B0190917C01D6
:1015A00090938A018093890110921501809117010F
:1015B000863009F423CF539A239A1092B4001092E4
:1015C000B30086E08093170119CF80911701863010
:1015D00079F0539A239A1092B4001092B3000E94AB
:1015E0009701109215011092160186E08093170161
:1015F00020917A0181E090E002C0880F991F2A951E
:10160000E2F72091890130918A0182239323892B6B
:1016100009F479C081E080931501F0CE82E08093D7
:101620001701ECCE85E080931701E8CE81E080932E
:101630001701E4CE10921701E1CE8091170183309B
:1016400009F4DCCE80911701843009F4D7CE539A87
:10165000239A1092B4001092B30083E08093170194
:10166000CDCE833061F1843009F0A0CF20911501F7
:101670008091800190917F012330C1F0109216017A
:1016800023E02093150190938B0180938C018ECFE2
:101690009091150180917D019130F9F01092160121
:1016A00091E09093150180938D0180CF20918C0162
:1016B0002813E4CF20918B012913E0CF77CF9091AD
:1016C000150180917E01923069F01092160192E02E
:1016D000909315018093790169CF90918D019813B2
:1016E000DDCF64CF909179019813EFCF5FCFF0E019
:1016F000E0E0099580916E008D7F80936E0016BCAE
:10170000E0E0F0E709951092150178CE809117017D
:10171000863009F073CE6091890180EB90E00E94E1
:10172000DD0F60918A0181EB90E00E94DD0F6091F6
:101730008D0185E090E00E94DD0F6091790189E0E4
:1017400090E00E94DD0F60918B018CE090E00E94A0
:10175000DD0F60918C0184E190E00E94DD0F5398D1
:1017600023981092B4001092B30081E08093170187
:1017700080917A01882309F441CE18CFFC012081A1
:101780008FEF9FEF8227082E8295807F8025092E7C
:10179000982F82958F700826869598278927880F1D
:1017A000880F880F802521818227082E8295807FCF
:1017B0008025092E982F82958F7008268695982768
:1017C0008927880F880F880F802522818227082E7D
:1017D0008295807F8025092E982F82958F7008260C
:1017E000869598278927880F880F880F8025238161
:1017F0008227082E8295807F8025092E982F82953A
:101800008F700826869598278927880F880F880F5C
:10181000802524818227082E8295807F8025092EAD
:10182000982F82958F700826869598278927880F8C
:10183000880F880F802525818227082E8295807F3A
:101840008025092E982F82958F70082686959827D7
:101850008927880F880F880F802526818227082EE8
:101860008295807F8025092E982F82958F7008267B
:10187000869598278927880F880F880F80252781CC
:101880008227082E8295807F8025092E982F8295A9
:101890008F700826869598278927880F880F880FCC
:1018A000802520858227082E8295807F8025092E1D
:1018B000982F82958F700826869598278927880FFC
:1018C000880F880F802521858227082E8295807FAA
:1018D0008025092E982F82958F7008268695982747
:1018E0008927880F880F880F802508950FB6F894F0
:1018F000A4B120914D012A2B24B921E030914D0152
:10190000203029F0000025B1232B25B904C00000A8
:101910000000000000C0000000000000309525B16C
:10192000232325B92EEA2A95F1F72BEE30B735FFA0
:101930000AC0A4B930914D01309525B1232325B9B2
:101940000FBE80E0089500002A9581F721E03091D4
:101950004D01203029F0000025B1232B25B904C00A
:1019600000000000000000C00000000000003095F2
:1019700025B1232325B9000024E52A95F1F7FC01C0
:101980008CE0619170E0660F771F616072609AE091
:1019900041E050E09A0126233723232B30914D015B
:1019A000203029F0000025B1232B25B904C0000008
:1019B0000000000000C0000000000000309525B1CC
:1019C000232325B9000021E52A95F1F7440F551F7F
:1019D0009A9501F78A95A9F620B7206120BFA4B98E
:1019E00030914D01309525B1232325B90FBE81E0FB
:1019F00008950E949E0182E690E0909306018093F4
:101A000005018FE590E090930401809303016CE859
:101A100070E08EE690E00E94980290E080E00895E9
:101A200097FB072E16F4009407D077FD09D00E948B
:101A3000390D07FC05D03EF4909581959F4F089590
:101A4000709561957F4F0895EE0FFF1F0590F491FB
:101A5000E02D0994A29FB001B39FC001A39F700D18
:101A6000811D1124911DB29F700D811D1124911DA6
:101A70000895AA1BBB1B51E107C0AA1FBB1FA617D5
:101A8000B70710F0A61BB70B881F991F5A95A9F727
:101A900080959095BC01CD0108955058BB27AA2789
:101AA0000E94650D0C94B60E0E94A80E38F00E949C
:101AB000AF0E20F039F49F3F19F426F40C94A50ED4
:101AC0000EF4E095E7FB0C949F0EE92F0E94C70EE1
:101AD00058F3BA17620773078407950720F079F463
:101AE000A6F50C94E90E0EF4E0950B2EBA2FA02D5E
:101AF0000B01B90190010C01CA01A0011124FF27BB
:101B0000591B99F0593F50F4503E68F11A16F040B5
:101B1000A22F232F342F4427585FF3CF46953795B4
:101B20002795A795F0405395C9F77EF41F16BA0B79
:101B3000620B730B840BBAF09150A1F0FF0FBB1F27
:101B4000661F771F881FC2F70EC0BA0F621F731F70
:101B5000841F48F4879577956795B795F7959E3FCD
:101B600008F0B0CF9395880F08F09927EE0F97955E
:101B7000879508950E94CE0D0C94B60E0E94AF0E6C
:101B800058F00E94A80E40F029F45F3F29F00C9411
:101B90009F0E51110C94EA0E0C94A50E0E94C70ED4
:101BA00068F39923B1F3552391F3951B550BBB278C
:101BB000AA2762177307840738F09F5F5F4F220FD1
:101BC000331F441FAA1FA9F335D00E2E3AF0E0E8C8
:101BD00032D091505040E695001CCAF72BD0FE2F12
:101BE00029D0660F771F881FBB1F261737074807A6
:101BF000AB07B0E809F0BB0B802DBF01FF2793585E
:101C00005F4F3AF09E3F510578F00C949F0E0C9474
:101C1000EA0E5F3FE4F3983ED4F386957795679597
:101C2000B795F7959F5FC9F7880F911D9695879592
:101C300097F90895E1E0660F771F881FBB1F6217B1
:101C400073078407BA0720F0621B730B840BBA0B6F
:101C5000EE1F88F7E09508950E94330E6894B11145
:101C60000C94EA0E08950E94CF0E88F09F5798F0CA
:101C7000B92F9927B751B0F0E1F0660F771F881F91
:101C8000991F1AF0BA95C9F714C0B13091F00E94AB
:101C9000E90EB1E008950C94E90E672F782F88279C
:101CA000B85F39F0B93FCCF3869577956795B395D2
:101CB000D9F73EF490958095709561957F4F8F4F41
:101CC0009F4F0895E89409C097FB3EF49095809546
:101CD000709561957F4F8F4F9F4F9923A9F0F92FF2
:101CE00096E9BB279395F695879577956795B79570
:101CF000F111F8CFFAF4BB0F11F460FF1BC06F5F56
:101D00007F4F8F4F9F4F16C0882311F096E911C067
:101D1000772321F09EE8872F762F05C0662371F088
:101D200096E8862F70E060E02AF09A95660F771F9C
:101D3000881FDAF7880F9695879597F9089597F990
:101D40009F6780E870E060E008959FEF80EC089561
:101D500000240A941616170618060906089500248A
:101D60000A9412161306140605060895092E039404
:101D7000000C11F4882352F0BB0F40F4BF2B11F478
:101D800060FF04C06F5F7F4F8F4F9F4F089557FDD7
:101D90009058440F551F59F05F3F71F04795880FD9
:101DA00097FB991F61F09F3F79F087950895121670
:101DB00013061406551FF2CF4695F1DF08C016161C
:101DC00017061806991FF1CF8695710561050894CD
:101DD0000895E894BB2766277727CB0197F90895E4
:101DE0000E94030F0C94B60E0E94A80E38F00E94B9
:101DF000AF0E20F0952311F00C949F0E0C94A50EBD
:101E000011240C94EA0E0E94C70E70F3959FC1F343
:101E1000950F50E0551F629FF001729FBB27F00D98
:101E2000B11D639FAA27F00DB11DAA1F649F6627ED
:101E3000B00DA11D661F829F2227B00DA11D621F3C
:101E4000739FB00DA11D621F839FA00D611D221FF6
:101E5000749F3327A00D611D231F849F600D211DDA
:101E6000822F762F6A2F11249F5750409AF0F1F05D
:101E700088234AF0EE0FFF1FBB1F661F771F881FC6
:101E800091505040A9F79E3F510580F00C949F0E51
:101E90000C94EA0E5F3FE4F3983ED4F38695779571
:101EA0006795B795F795E7959F5FC1F7FE2B880F6C
:101EB000911D9695879597F90895CF92DF92EF92AD
:101EC000FF92CF93DF93CDB7DEB72A970FB6F89482
:101ED000DEBF0FBECDBF89879A87A985BA852D91B0
:101EE0003D914D915C9129833A834B835C83232BF5
:101EF000242B252B41F424E239ED4BE557E02983CF
:101F00003A834B835C8369817A818B819C812DE14B
:101F100033EF41E050E00E94EB0F69017A01A7EA3C
:101F2000B1E49B01AC010E940A1069837A838B8320
:101F30009C83ACEEB4EFA70196010E9418109B01A0
:101F4000AC0189819A81AB81BC81820F931FA41F50
:101F5000B51FB7FF03C00197A109B048E985FA850D
:101F600080839183A283B3839F772A960FB6F894D8
:101F7000DEBF0FBECDBFDF91CF91FF90EF90DF901E
:101F8000CF9008950E945D0F089587E091E00E9430
:101F90005D0F0895B0E0A0E08093070190930801E1
:101FA000A0930901B0930A010895F999FECF92BD5B
:101FB00081BDF89A992780B50895262FF999FECF0B
:101FC0001FBA92BD81BD20BD0FB6F894FA9AF99A56
:101FD0000FBE01960895052E97FB1EF400940E94F3
:101FE000021057FD07D00E941D1007FC03D04EF4CD
:101FF0000C94021050954095309521953F4F4F4FCE
:102000005F4F089590958095709561957F4F8F4FA4
:102010009F4F08950E942A0DA59F900DB49F900D8B
:10202000A49F800D911D11240895B7FF0C940A10F0
:102030000E940A10821B930B0895A1E21A2EAA1B7C
:10204000BB1BFD010DC0AA1FBB1FEE1FFF1FA21768
:10205000B307E407F50720F0A21BB30BE40BF50B65
:10206000661F771F881F991F1A9469F760957095EE
:10207000809590959B01AC01BD01CF010895F89426
:10208000FFCFFA02E602BA02B002B70254034903D4
:102090007A0BFE09FE09770B1A0B160B120B0E0BAF
:0620A0001D0BE50AC20A57
:0C20A600AA8801850184010100000000EF
:00000001FF
