:100000000C9434000C945D000C945D000C945D0025
:100010000C945D000C945D000C94B4010C945D0094
:100020000C945D000C945D000C945D000C94CB0866
:100030000C945D000C945D000C942A080C945D00F7
:100040000C945D000C945D000C945D000C945D00BC
:100050000C945D000C945D000C945D000C94EB0816
:100060000C945D000C945D0011241FBECFEFD8E00E
:10007000DEBFCDBF14BE0FB6F894A8958091600086
:10008000886180936000109260000FBE11E0A0E0D4
:10009000B1E0E4EFFEE102C005900D92AC30B10793
:1000A000D9F721E0ACE0B1E001C01D92A237B20760
:1000B000E1F70E942C0C0C94660F0C94000008953C
:1000C000CF93DF9300D000D0CDB7DEB780910C0185
:1000D00090910D01A0910E01B0910F010196A11D0B
:1000E000B11D80930C0190930D01A0930E01B0936C
:1000F0000F0181E00E94A70866E986E90E940F03CC
:1001000080E991E00E94020380910C0190910D0121
:10011000A0910E01B0910F01BC01CD012FE030E0A4
:1001200040E050E00E944B0C69837A838B839C8370
:10013000672B682B692BA9F460E080E00E940F0315
:1001400085E10E94A70888E893E10E94020380E904
:1001500091E00F900F900F900F90DF91CF910C9442
:10016000020380916F01682F0E940F03F0CF089562
:1001700090E080E008950895559854983B9A3A9AF3
:100180003D983C980895559A549A3B983A983D98D2
:100190003C980895559854983B983A983D983C98C7
:1001A0000895BF92CF92DF92EF92FF920F931F9329
:1001B000CF93DF93F89414B817B81AB815B818B8D5
:1001C0001BB8529A5A9A14BC85E085BD8FEF87BD43
:1001D00082E080936E0010928000109281002FE8E0
:1001E0003BE0309389002093880080936F00539800
:1001F000239891EA9093B0008093B1001092B400DC
:100200001092B3008BE080BF83E080937F0086E094
:1002100080937C0083E880937A0080917A008064E8
:1002200080937A0080917A0086FDFCCF10927C004A
:1002300083EA80937A0081E080937B0081E090E004
:100240000E941E0F8F3F11F08093660010923B01B9
:10025000C1E0C0931401C093580110923201109272
:100260006C0180E990E00E941E0F80933101809123
:100270003101887311F0C093310110925C0110922A
:100280005B018FEF90E090935A0180935901109297
:100290003701109238011092390110923A0181E031
:1002A0008093130182E49FE090936B0180936A0135
:1002B00080EB90E00E941E0FC82F81EB90E00E941F
:1002C0001E0FD82FD0936E01C0936D0185E090E092
:1002D0000E941E0F8093710189E090E00E941E0F22
:1002E00080935D018CE090E00E941E0F80936F016F
:1002F00084E190E00E941E0F809370010CE311E0F6
:1003000085E1E82E81E0F82E98E5C92E91E0D92EFE
:10031000C0E2D0E0CE010E941E0FB82ECE010196A1
:100320000E941E0F9B2DF801819391938F01CE01A6
:10033000C0960E941E0FB82ECE01C1960E941E0FBD
:100340009B2DF701819391937F012296C016D106D0
:1003500009F77894DF91CF911F910F91FF90EF9063
:10036000DF90CF90BF9008950F920FB60F921F921B
:1003700011248F930FB6F894A8958091600088613E
:1003800080936000109260000FBE8F911F900F90BD
:100390000FBE0F9018953C01EB0110E099249A9440
:1003A00084E0C82E96E0A92E23E8B22E38E1D32EA1
:1003B00049E2E42EE0911301E730E0F7F0E0E8597C
:1003C000F04F0C946D0C111102C0F3010995C0920D
:1003D000130111E0FE010995EDCF80913B018111E0
:1003E000E9C0F894A0927C00B0927A0080917A00E3
:1003F000806480937A0080917A0086FDFCCF8091A2
:1004000078009091790078948B3AE2E09E070CF0A6
:10041000CEC08938F2E09F070CF0CFC087369240FB
:100420000CF4C8C0559A549A3B9A3A9A3D983C9815
:10043000C1CF0E94BC00EFECF7E03197F1F700C0AC
:1004400000000E94CA00FFEF21EE84E0F15020403E
:100450008040E1F700C00000ADCFF89480B7877FFF
:1004600080BF80917A008F7780937A0014B817B894
:100470001AB815B818B81BB80FB6F894A895D0924A
:1004800060000FBEE0926000809160008064809305
:10049000600083B7817F846083BFF89483B78160F5
:1004A00083BF7894889583B78E7F83BF78941092AA
:1004B0003B01529A5A9A80917A00806880937A0020
:1004C00087E592E00197F1F700C0000080B78861EE
:1004D00080BF559A549A3B9A3A9A3D9A3C9AEFE1DA
:1004E000FEE43197F1F700C0000080913B018111DB
:1004F00052C00E94CA005ECF80911101811121C0BB
:100500001092B3001092B4001092120153CF489988
:10051000F0CF559A54983B983A983D983C988FEC78
:1005200097E00197F1F700C000000E94CA009FEF1A
:10053000E1EEF4E09150E040F040E1F700C000004F
:1005400039CF9091110180911201981709F432CF9F
:100550008091110180931201809111018130A1F1EC
:10056000809111011092B3009092B4008230E9F1B1
:100570009092B3009092B4008FE295E70197F1F763
:1005800000C000008091700190916F019093B300C2
:100590008093B4000FCF0E94C300FFEF20E782E0FA
:1005A000F15020408040E1F700C00000A2CF0E943F
:1005B000BC0000CF0E94C300FDCE559854983B98D4
:1005C0003A983D9A3C9AF6CE9092B3001092B400BD
:1005D0008FE295E70197F1F700C00000809171016B
:1005E0008093B3001092B400E5CEEFE2F5E73197C7
:1005F000F1F700C0000080915D011092B30080937C
:10060000B400D8CE9C01892B49F08FEC97E001977C
:10061000F1F700C0000021503109B9F70895809327
:10062000B3006093B40008958FEF8093B30080937C
:10063000B4008FEC97E00197F1F700C000008FEC59
:1006400097E00197F1F700C000008FEC97E0019769
:10065000F1F700C000008FEC97E00197F1F700C0C0
:1006600000008FEC97E00197F1F700C000008FECDD
:1006700097E00197F1F700C000008FEC97E0019739
:10068000F1F700C000008FEC97E00197F1F700C090
:1006900000008FEC97E00197F1F700C000008FECAD
:1006A00097E00197F1F700C000008FEC97E0019709
:1006B000F1F700C000008FEC97E00197F1F700C060
:1006C00000008FEC97E00197F1F700C000008FEC7D
:1006D00097E00197F1F700C000008FEC97E00197D9
:1006E000F1F700C00000089580913B0181111EC008
:1006F000F89487E080937C0083E880937A0080916F
:100700007A00806480937A0080917A0086FDFCCF25
:10071000809178009091790010927C0023EA2093D8
:100720007A0021E020937B00789408958FEF9FEF6B
:10073000089580913B0181111EC0F89488EC80934C
:100740007C0087E880937A0080917A0080648093AF
:100750007A0080917A0086FDFCCF8091780090919C
:10076000790010927C0023EA20937A0021E0209304
:100770007B00789408958FEF9FEF08951F93CF9398
:10078000DF93F0E0E0E080E016E0D3E8C3EA71E058
:10079000A1E0B0E060E8F89410937C00D0937A0078
:1007A00090917A00906490937A0090917A0096FDEF
:1007B000FCCF2091780030917900217090917A00DF
:1007C000906490937A0090917A0096FDFCCF4091CE
:1007D00078005091790010927C00C0937A00709359
:1007E0007B0078944170241302C06150A1F622234B
:1007F00039F09D010E2E01C0220F0A94EAF7822BD8
:100800003196E830F10531F6DF91CF911F910895CF
:1008100020910001822F880F880F880F2827909140
:10082000100181E0890F80931001822F82958695B7
:100830008770822796959695892780930001089561
:1008400080930001089580913B01811116C0F894B6
:1008500086E080937C0083E880937A0080917A0020
:10086000806480937A0080917A0086FDFCCF80912D
:10087000780090917900789408958FEF9FEF089514
:100880002F923F924F925F926F927F928F929F92A0
:10089000AF92BF92CF92DF92EF92FF920F931F938E
:1008A000CF93DF93CDB7DEB728970FB6F894DEBFAE
:1008B0000FBECDBF7C01DC0112960D90BC91A02D26
:1008C000B887AF83A438E3E0BE070CF477C0DC013F
:1008D000ED90FC9080913C0190913D01DD24DA94F3
:1008E0008E159F0508F43BC200913E0110913F0117
:1008F0000E151F0508F44AC30091400110914101F3
:100900000E151F0508F447C30091420110914301E1
:100910000E151F0508F444C30091440110914501D0
:100920000E151F0508F441C30091460110914701BF
:100930000E151F0508F43EC30091480110914901AE
:100940000E151F0508F43FC300914A0110914B0199
:100950000E151F0508F440C300914C0110914D0184
:100960000E151F0508F441C300914E0110914F016F
:100970000E151F0508F446C2009150011091510157
:100980000E151F0508F43AC300915201109153014E
:100990000E151F0508F43BC3009154011091550139
:1009A0000E151F0508F43CC3009156011091570124
:1009B0000E151F0508F43DC31AE520C180911501ED
:1009C000909116018A179B0708F4B1C10091170195
:1009D000109118010A171B0708F4F1C200911901C0
:1009E00010911A010A171B0708F4F2C200911B01AB
:1009F00010911C010A171B0708F4F3C200911D0196
:100A000010911E010A171B0708F4F8C100911F017D
:100A1000109120010A171B0708F4ECC20091210174
:100A2000109122010A171B0708F4EDC2009123015F
:100A3000109124010A171B0708F4EEC2009125014A
:100A4000109126010A171B0708F4EFC20091270135
:100A5000109128010A171B0708F49BC10091290176
:100A600010912A010A171B0708F4E8C200912B0114
:100A700010912C010A171B0708F4E4C200912D0104
:100A800010912E010A171B0708F4E0C200912F01F4
:100A9000109130018DE02DE030E00A171B0708F4BB
:100AA0007BC1412C512C30ED3D8340E44E832CE042
:100AB000C22ED12CF601EE0FFF1FEB5EFE4F8081A0
:100AC0009181D801A81BB90B9D0150E040E029831A
:100AD0003A834B835C83CA01BD010E94AB0D9B012D
:100AE000AC0169837A838B839C8369817A818B8152
:100AF0009C810E94970C5B016C018F819885092E67
:100B0000000CAA0BBB0B89839A83AB83BC83BC010B
:100B1000CD010E94AD0D3B014C01980150E040E039
:100B200029833A834B835C83CA01B8010E94AB0DD1
:100B30001B018C0192014D815E81A982BA82CB8218
:100B4000DC8269817A818B819C810E94390E9B01B4
:100B5000AC0129823A820B831C8369817A818B8163
:100B60009C810E94960C9B01AC0169827A828B82E7
:100B70009C8269817A818B819C810E94960C20E005
:100B800030E040E251E469837A838B839C836981FE
:100B90007A818B819C810E94390E69837A838B8351
:100BA0009C8369817A818B819C810E94750D8B0168
:100BB000A982BA82CB82DC8269817A818B819C8115
:100BC0000E94750D69837A838B839C83C801698138
:100BD0007A810E94370CD62E4F8158854D3B52406A
:100BE0000CF409C1D701ED90FC9080913C019091EB
:100BF0003D018E159F0508F077CE10E0BFEF81E232
:100C0000810FDB1609F4ACC02D2D30E050E040E040
:100C100029833A834B835C83CA01B9010E94AB0DDF
:100C20006B017C01812F90E0B0E0A0E089839A8382
:100C3000AB83BC83BC01CD010E94AB0D4B015C01B9
:100C40002F813885032E000C440B550B29833A83E2
:100C50004B835C83CA01B9010E94AD0D8B018E8369
:100C60009D839B01AC0160E070E081E694E40E940A
:100C7000960C9601A70169837A838B839C83698193
:100C80007A818B819C810E94390E6B017C0120E06E
:100C900030E04FE254E409831A838E818B839D8177
:100CA0009C8369817A818B819C810E94960C94013E
:100CB000A50169837A838B839C8369817A818B8187
:100CC0009C810E94390E9B01AC01C982DA82EB82C1
:100CD000FC8269817A818B819C810E94970C20E043
:100CE00030E048E453E469837A838B839C83698191
:100CF0007A818B819C810E94030D20E030E044E0EA
:100D000052E469837A838B839C8369817A818B81A6
:100D10009C810E94970C69837A838B839C83698171
:100D20007A818B819C810E947C0D862F19C0AD3BFE
:100D3000B240ACF0D701ED90FC9080913C019091D5
:100D40003D01D12C8E159F0508F0CECD812C912C24
:100D5000A12CB12CC12CD12CE12CF12C71CF81E232
:100D600028960FB6F894DEBF0FBECDBFDF91CF91AE
:100D70001F910F91FF90EF90DF90CF90BF90AF90B9
:100D80009F908F907F906F905F904F903F902F90AB
:100D9000089589E029E030E06901F1E0CF1AD10837
:100DA000282F30E050E040E029833A834B835C8376
:100DB000CA01B9010E94AB0D20E030E040E05FE3E2
:100DC00069837A838B839C8369817A818B819C81FF
:100DD0000E94390E20E030E0A90169837A838B8379
:100DE0009C8369817A818B819C810E94970C2B0165
:100DF0008D839E835FCE81E2860FB2CF84E024E0B4
:100E000030E0CACF59E0652EE9E0F0E0EE0FFF1FB9
:100E1000E65CFE4F80819181D801A81BB90B9D0132
:100E200050E040E029833A834B835C83CA01BD01D3
:100E30000E94AB0D9B01AC0169837A838B839C83F9
:100E400069817A818B819C810E94970C962EA72EB6
:100E5000B82EC92EC701FF0CAA0BBB0B89839A833E
:100E6000AB83BC83BC01CD010E94AD0D762E872ED5
:100E70007C01980150E040E029833A834B835C83F6
:100E8000CA01B8010E94AB0D2B018C01862D90E0A8
:100E9000B0E0A0E089839A83AB83BC83BC01CD0121
:100EA0000E94AB0D20E030E040E05FE369837A838D
:100EB0008B839C8369817A818B819C810E94390E0E
:100EC00020E030E0A90169837A838B839C83698168
:100ED0007A818B819C810E94970C292D3A2D4B2D74
:100EE0005C2D69837A838B839C8369817A818B8172
:100EF0009C810E94390E9B01AC0149825A820B836E
:100F00001C8369817A818B819C810E94960C9B0154
:100F1000AC0179828A82EB82FC8269817A818B8141
:100F20009C810E94960C20E030E040E251E469830D
:100F30007A838B839C8369817A818B819C810E94D7
:100F4000390E69837A838B839C8369817A818B8153
:100F50009C810E94750D8B019982AA82BB82CC82F2
:100F600069817A818B819C810E94750D69837A8366
:100F70008B839C83C80169817A810E94370C162F6C
:100F80006F3F09F03BCE81E28D0DEACE662463947B
:100F9000E1E0F0E03BCF82E0682EE2E0F0E036CF27
:100FA000B3E06B2EE3E0F0E031CFA4E06A2EE4E0A2
:100FB000F0E02CCFF5E06F2EE5E0F0E027CF81E008
:100FC00021E030E0E9CEE6E06E2EE6E0F0E01ECF74
:100FD00082E022E030E0E0CE77E0672EE7E0F0E06C
:100FE00015CF83E023E030E0D7CE68E0662EE8E05E
:100FF000F0E00CCF85E025E030E0CECE4AE0642E74
:10100000EAE0F0E003CF86E026E030E0C5CE3BE04A
:10101000632EEBE0F0E0FACE87E027E030E0BCCED4
:101020002CE0622EECE0F0E0F1CE88E028E030E049
:10103000B3CE9DE0692EEDE0F0E0E8CE8AE02AE054
:1010400030E0AACE8BE02BE030E0A6CE8CE02CE0A6
:1010500030E0A2CE1F920F920FB60F9211242F9361
:101060003F934F935F936F937F938F939F93AF9330
:10107000BF93EF93FF9380915B0190915C0120916E
:10108000590130915A01820F931F90935C01809314
:101090005B018FEF90E090935A01809359018FEF9D
:1010A00087BD8091370190913801A0913901B091AD
:1010B0003A010196A11DB11D80933701909338012B
:1010C000A0933901B0933A0180913B0181110FC087
:1010D00080916A0190916B0120915B0130915C01DC
:1010E0008217930720F480911301843089F0FF91D7
:1010F000EF91BF91AF919F918F917F916F915F9190
:101100004F913F912F910F900FBE0F901F90189508
:10111000E0910301F09104010995009741F30E94C9
:10112000A90B882351F0E0910101F091020109958A
:1011300010925C0110925B01DACF0E940E0F9C01AD
:10114000992790935A018093590127BDD0CF80FFF2
:1011500011C0559A81FF11C0549A82FF11C03B9A69
:1011600083FF11C03A9A84FF11C03D9A85FF11C0D8
:101170003C9A0895559881FDEFCF549882FDEFCFAA
:101180003B9883FDEFCF3A9884FDEFCF3D9885FDE6
:10119000EFCF3C9808951F921FB61F9211248F9392
:1011A0009F9310928100109285001092840081E03C
:1011B000809314018093580110923B0110927C009F
:1011C00093EA90937A0080937B009F918F911F9078
:1011D0001FBE1F9018951F920F920FB60F921124E9
:1011E0000F931F932F933F934F935F936F937F932F
:1011F0008F939F93AF93BF93EF93FF93CF93DF931F
:1012000000D000D0CDB7DEB72091840030918500AA
:1012100041E040933B01809114018823D9F1109261
:101220008500109284004093810010926C0110920E
:101230001401809158018823A1F080917A0086FDE5
:10124000FCCF809178009091790090933601809343
:10125000350181E080937C0093EA90937A0080933B
:101260007B000F900F900F900F90DF91CF91FF9127
:10127000EF91BF91AF919F918F917F916F915F910E
:101280004F913F912F911F910F910F900FBE0F9093
:101290001F901895C9018758910984379940A0F08B
:1012A00010928100109285001092840040931401E6
:1012B0004093580110923B0110927C0083EA809386
:1012C0007A0040937B00CDCF26583109A4EFB0E0DF
:1012D0000E94730C69837A838B839C838C01222701
:1012E0003327883008F465C0409314018091580179
:1012F00081113CC080913201E82FF0E0E25AFE4FAC
:1013000090916C0190838F5F809332018C3009F053
:10131000A8CF109281001092850010928400409313
:10132000580110923B0100916801109169018EE50E
:1013300091E00E94F10A0817190709F092CFE09195
:101340006701E7FF48C098E79E0F933030F053984D
:1013500023981092B4001092B300E058EB3008F0DC
:1013600080CFF0E0E159F04F0C946D0C80917A0041
:1013700086FDFCCF809178009091790090933401A4
:101380008093330110927C0083EA80937A0081E09D
:1013900080937B0090916C019923C1F010928100A1
:1013A00010928500109284008093580110923B01A6
:1013B00058CF81E090E09C0101C0220F0A95EAF726
:1013C00080916C01822B80936C014BCF109258015D
:1013D0001092320146CFE0910501F091060163E3DE
:1013E00071E08EE591E009953CCF80915E018230FD
:1013F00009F481C008F068C0882309F4BAC080915C
:101400005F019091600190936E0180936D01109245
:10141000110180911301863009F423CF539A239A46
:101420001092B4001092B30086E08093130119CF9C
:1014300080911301863079F0539A239A1092B40068
:101440001092B3000E94CA00109211011092120172
:1014500086E08093130120915E0181E090E002C05C
:10146000880F991F2A95E2F720916D0130916E0146
:1014700082239323892B09F479C081E080931101A1
:10148000F0CE82E080931301ECCE85E080931301CF
:10149000E8CE81E080931301E4CE10921301E1CEF7
:1014A00080911301833009F4DCCE809113018430E4
:1014B00009F4D7CE539A239A1092B4001092B30035
:1014C00083E080931301CDCE833061F1843009F045
:1014D000A0CF20911101809164019091630123308C
:1014E000C1F01092120123E02093110190936F013B
:1014F000809370018ECF90911101809161019130A4
:10150000F9F01092120191E0909311018093710112
:1015100080CF209170012813E4CF20916F0129130F
:10152000E0CF77CF9091110180916201923069F004
:101530001092120192E09093110180935D0169CFA6
:10154000909171019813DDCF64CF90915D01981354
:10155000EFCF5FCFF0E0E0E0099580916E008D7FE6
:1015600080936E0016BCE0E0F0E70995109211013F
:1015700078CE80911301863009F073CE60916D01B1
:1015800080EB90E00E94260F60916E0181EB90E06D
:101590000E94260F6091710185E090E00E94260F65
:1015A00060915D0189E090E00E94260F60916F01DB
:1015B0008CE090E00E94260F6091700184E190E041
:1015C0000E94260F539823981092B4001092B300F3
:1015D00081E08093130180915E01882309F441CE5C
:1015E00018CFFC0120818FEF9FEF8227082E829574
:1015F000807F8025092E982F82958F7008268695EA
:1016000098278927880F880F880F802521818227B6
:10161000082E8295807F8025092E982F82958F70C5
:101620000826869598278927880F880F880F802598
:1016300022818227082E8295807F8025092E982F6F
:1016400082958F700826869598278927880F880F9E
:10165000880F802523818227082E8295807F802510
:10166000092E982F82958F700826869598278927AE
:10167000880F880F880F802524818227082E829565
:10168000807F8025092E982F82958F700826869559
:1016900098278927880F880F880F80252581822722
:1016A000082E8295807F8025092E982F82958F7035
:1016B0000826869598278927880F880F880F802508
:1016C00026818227082E8295807F8025092E982FDB
:1016D00082958F700826869598278927880F880F0E
:1016E000880F802527818227082E8295807F80257C
:1016F000092E982F82958F7008268695982789271E
:10170000880F880F880F802520858227082E8295D4
:10171000807F8025092E982F82958F7008268695C8
:1017200098278927880F880F880F80252185822791
:10173000082E8295807F8025092E982F82958F70A4
:101740000826869598278927880F880F880F802577
:1017500008950FB6F894A4B1209131012A2B24B931
:1017600021E030913101203029F0000025B1232BF8
:1017700025B904C000000000000000C00000000007
:101780000000309525B1232325B92EEA2A95F1F7DB
:101790002BEE30B735FF0AC0A4B930913101309536
:1017A00025B1232325B90FBE80E0089500002A95B6
:1017B00081F721E030913101203029F0000025B17E
:1017C000232B25B904C000000000000000C0000069
:1017D00000000000309525B1232325B9000024E541
:1017E0002A95F1F7FC018CE0619170E0660F771F9C
:1017F000616072609AE041E050E09A01262337234D
:10180000232B30913101203029F0000025B1232B0A
:1018100025B904C000000000000000C00000000066
:101820000000309525B1232325B9000021E52A9534
:10183000F1F7440F551F9A9501F78A95A9F620B73D
:10184000206120BFA4B930913101309525B1232307
:1018500025B90FBE81E008950E94D10060E670E0D6
:101860008FE590E00E94CB0190E080E0089597FB27
:10187000072E16F4009407D077FD09D00E94820C41
:1018800007FC05D03EF4909581959F4F0895709583
:1018900061957F4F0895A1E21A2EAA1BBB1BFD0183
:1018A0000DC0AA1FBB1FEE1FFF1FA217B307E4073F
:1018B000F50720F0A21BB30BE40BF50B661F771F97
:1018C000881F991F1A9469F7609570958095909577
:1018D0009B01AC01BD01CF010895EE0FFF1F0590E4
:1018E000F491E02D0994A29FB001B39FC001A39F82
:1018F000700D811D1124911DB29F700D811D112449
:10190000911D0895AA1BBB1B51E107C0AA1FBB1F55
:10191000A617B70710F0A61BB70B881F991F5A957B
:10192000A9F780959095BC01CD0108955058BB272B
:10193000AA270E94AE0C0C94FF0D0E94F10D38F006
:101940000E94F80D20F039F49F3F19F426F40C940E
:10195000EE0D0EF4E095E7FB0C94E80DE92F0E94E4
:10196000100E58F3BA17620773078407950720F023
:1019700079F4A6F50C94320E0EF4E0950B2EBA2FE6
:10198000A02D0B01B90190010C01CA01A001112485
:10199000FF27591B99F0593F50F4503E68F11A1631
:1019A000F040A22F232F342F4427585FF3CF4695C2
:1019B00037952795A795F0405395C9F77EF41F16E4
:1019C000BA0B620B730B840BBAF09150A1F0FF0FAE
:1019D000BB1F661F771F881FC2F70EC0BA0F621F9A
:1019E000731F841F48F4879577956795B795F7958A
:1019F0009E3F08F0B0CF9395880F08F09927EE0F1F
:101A00009795879508950E94170D0C94FF0D0E94DD
:101A1000F80D58F00E94F10D40F029F45F3F29F0D5
:101A20000C94E80D51110C94330E0C94EE0D0E94A1
:101A3000100E68F39923B1F3552391F3951B550BC1
:101A4000BB27AA2762177307840738F09F5F5F4F91
:101A5000220F331F441FAA1FA9F335D00E2E3AF0D0
:101A6000E0E832D091505040E695001CCAF72BD0E8
:101A7000FE2F29D0660F771F881FBB1F2617370739
:101A80004807AB07B0E809F0BB0B802DBF01FF276B
:101A900093585F4F3AF09E3F510578F00C94E80D53
:101AA0000C94330E5F3FE4F3983ED4F3869577951C
:101AB0006795B795F7959F5FC9F7880F911D969524
:101AC000879597F90895E1E0660F771F881FBB1F80
:101AD000621773078407BA0720F0621B730B840B2D
:101AE000BA0BEE1F88F7E09508950E947C0D68946C
:101AF000B1110C94330E08950E94180E88F09F5770
:101B000098F0B92F9927B751B0F0E1F0660F771F21
:101B1000881F991F1AF0BA95C9F714C0B13091F017
:101B20000E94320EB1E008950C94320E672F782F88
:101B30008827B85F39F0B93FCCF3869577956795DC
:101B4000B395D9F73EF490958095709561957F4F48
:101B50008F4F9F4F0895E89409C097FB3EF49095EE
:101B60008095709561957F4F8F4F9F4F9923A9F076
:101B7000F92F96E9BB279395F69587957795679505
:101B8000B795F111F8CFFAF4BB0F11F460FF1BC049
:101B90006F5F7F4F8F4F9F4F16C0882311F096E9DC
:101BA00011C0772321F09EE8872F762F05C066238A
:101BB00071F096E8862F70E060E02AF09A95660F43
:101BC000771F881FDAF7880F9695879597F90895FC
:101BD00097F99F6780E870E060E008959FEF80ECE0
:101BE000089500240A941616170618060906089583
:101BF00000240A9412161306140605060895092EE9
:101C00000394000C11F4882352F0BB0F40F4BF2B57
:101C100011F460FF04C06F5F7F4F8F4F9F4F089597
:101C200057FD9058440F551F59F05F3F71F047958D
:101C3000880F97FB991F61F09F3F79F08795089572
:101C4000121613061406551FF2CF4695F1DF08C091
:101C5000161617061806991FF1CF869571056105AE
:101C600008940895E894BB2766277727CB0197F956
:101C700008950E944C0E0C94FF0D0E94F10D38F057
:101C80000E94F80D20F0952311F00C94E80D0C94AF
:101C9000EE0D11240C94330E0E94100E70F3959FDC
:101CA000C1F3950F50E0551F629FF001729FBB2753
:101CB000F00DB11D639FAA27F00DB11DAA1F649FEF
:101CC0006627B00DA11D661F829F2227B00DA11DA2
:101CD000621F739FB00DA11D621F839FA00D611D28
:101CE000221F749F3327A00D611D231F849F600D49
:101CF000211D822F762F6A2F11249F5750409AF072
:101D0000F1F088234AF0EE0FFF1FBB1F661F771FFD
:101D1000881F91505040A9F79E3F510580F00C94C8
:101D2000E80D0C94330E5F3FE4F3983ED4F38695B0
:101D300077956795B795F795E7959F5FC1F7FE2B68
:101D4000880F911D9695879597F90895CF92DF9208
:101D5000EF92FF92CF93DF93CDB7DEB72A970FB6FE
:101D6000F894DEBF0FBECDBF89879A87A985BA8553
:101D70002D913D914D915C9129833A834B835C83F6
:101D8000232B242B252B41F424E239ED4BE557E09E
:101D900029833A834B835C8369817A818B819C811F
:101DA0002DE133EF41E050E00E94340F69017A01E8
:101DB000A7EAB1E49B01AC010E94530F69837A83C7
:101DC0008B839C83ACEEB4EFA70196010E94610F58
:101DD0009B01AC0189819A81AB81BC81820F931FE9
:101DE000A41FB51FB7FF03C00197A109B048E9853B
:101DF000FA8580839183A283B3839F772A960FB657
:101E0000F894DEBF0FBECDBFDF91CF91FF90EF9072
:101E1000DF90CF9008950E94A60E089587E091E08C
:101E20000E94A60E0895B0E0A0E080930701909371
:101E30000801A0930901B0930A010895F999FECF12
:101E400092BD81BDF89A992780B50895262FF999FA
:101E5000FECF1FBA92BD81BD20BD0FB6F894FA9A8D
:101E6000F99A0FBE01960895052E97FB1EF4009473
:101E70000E944B0F57FD07D00E944B0C07FC03D06C
:101E80004EF40C944B0F50954095309521953F4F53
:101E90004F4F5F4F089590958095709561957F4F56
:101EA0008F4F9F4F08950E94730CA59F900DB49F74
:101EB000900DA49F800D911D11240895B7FF0C94DF
:101EC000530F0E94530F821B930B0895F894FFCF7A
:101ED0002D021902ED01E301EA0187027C02AD0A3D
:101EE00031093109AA0A4D0A490A450A410A500A2C
:041EF000180AF509CE
:0C1EF400AABB00B800B70001000000000D
:00000001FF
