:100000000C9434000C945D000C945D000C945D0025
:100010000C945D000C945D000C9451030C945D00F5
:100020000C945D000C945D000C945D000C94680AC7
:100030000C945D000C945D000C94C7090C945D0059
:100040000C945D000C945D000C945D000C945D00BC
:100050000C945D000C945D000C945D000C94880A77
:100060000C945D000C945D0011241FBECFEFD8E00E
:10007000DEBFCDBF14BE0FB6F894A8958091600086
:10008000886180936000109260000FBE11E0A0E0D4
:10009000B1E0E2EAF2E202C005900D92AC30B107A5
:1000A000D9F721E0ACE0B1E001C01D92A33AB2075C
:1000B000E1F70E94C90D0C943D110C940000CF9300
:1000C000DF93EC018CE0FE01A1E2B1E001900D9222
:1000D0008A95E1F7888190E0B0E0A0E08093190173
:1000E00090931A01A0931B01B0931C0181E08093AF
:1000F0001001DF91CF910895CF93DF938091680134
:1001000090916901A0916A01B0916B01C5E3D1E0C2
:1001100020912D01821B8883CE010E948E0C9B872B
:100120008A87CE01DF91CF9108950E945B054091AF
:1001300068015091690160916A0170916B01869527
:10014000480F511D611D711D40932D0150932E01CB
:1001500060932F0170933001809168019091690143
:10016000A0916A01B0916B0180934101909342018B
:10017000A0934301B093440108958F929F92AF9250
:10018000BF92CF92DF92EF92FF920F931F93CF9384
:10019000DF9300D000D000D0CDB7DEB7C0902D01E6
:1001A000D0902E01E0902F01F0903001809110014D
:1001B000813009F457C08091680190916901A09144
:1001C0006A01B0916B0120E4C20ED11CE11CF11C4C
:1001D0008C159D05AE05BF0508F0C3C040916801B0
:1001E0005091690160916A0170916B0180914101A8
:1001F00090914201A0914301B09144010896A11D44
:10020000B11D84179507A607B70798F026960FB675
:10021000F894DEBF0FBECDBFDF91CF911F910F913C
:10022000FF90EF90DF90CF90BF90AF909F908F9016
:10023000089580E00E94440A60E080E026960FB6B0
:10024000F894DEBF0FBECDBFDF91CF911F910F910C
:10025000FF90EF90DF90CF90BF90AF909F908F90E6
:100260000C94AC048091680190916901A0916A019D
:10027000B0916B018090190190901A01A0901B0120
:10028000B0901C018C0C9D1CAE1CBF1C881A990AD6
:10029000AA0ABB0AC501B4010E947A0F8B018E83A2
:1002A0009D8320E030E040E052E469831A838B8331
:1002B0009C8369817A818B819C810E942A10181607
:1002C0000CF4DDC080920C0190920D01A0920E0101
:1002D000B0920F0120E030E040E052EC09831A8335
:1002E0008E818B839D819C8369817A818B819C81A6
:1002F0000E94CB0E87FF0DC0A0E48A0E911CA11CAA
:10030000B11C80920C0190920D01A0920E01B0924E
:100310000F018091150190911601A0911701B091E4
:100320001801880D991DAA1DBB1D8093150190937E
:100330001601A0931701B0931801809111019091BB
:100340001201A0911301B09114010196A11DB11DDC
:100350008093110190931201A0931301B0931401A3
:100360002ACF81E00E94440A68E788E70E94AC0433
:100370008091150190911601A0911701B09118017B
:1003800020911101309112014091130150911401FB
:10039000BC01CD010E94F40D29833A834B835C8319
:1003A000CA01B9010E947A0F20E030E040E05FE32B
:1003B00069837A838B839C8369817A818B819C8119
:1003C0000E945F0E8B018E839D83AB01BC01409325
:1003D0003101509332016093330170933401809165
:1003E000680190916901A0916A01B0916B018983C4
:1003F0009A83AB83BC83BC01CD010E94780F980126
:100400004E815D8169837A838B839C8369817A8144
:100410008B819C810E945E0E69837A838B839C838F
:1004200069817A818B819C810E94490F60932D01A3
:1004300070932E0180932F01909330018091680179
:1004400090916901A0916A01B0916B018093410183
:1004500090934201A0934301B0934401109215017F
:1004600010921601109217011092180110921101AA
:10047000109212011092130110921401C7CE20E4C1
:10048000821A9108A108B10880920C0190920D0186
:10049000A0920E01B0920F01C501B4010E947A0F23
:1004A0008B018E839D8316CF089590E080E00895A0
:1004B0000895559854983B9A3A9A3D983C980895D7
:1004C000559A549A3B983A983D983C980895559877
:1004D00054983B983A983D983C980895BF92CF9293
:1004E000DF92EF92FF920F931F93CF93DF93F894D5
:1004F00014B817B81AB815B818B81BB8529A5A9A3F
:1005000014BC85E085BD8FEF87BD82E080936E00CF
:1005100010928000109281002FE83BE03093890018
:100520002093880080936F005398239891EA9093CA
:10053000B0008093B1001092B4001092B3008BE031
:1005400080BF83E080937F0086E080937C0083E817
:1005500080937A0080917A00806480937A00809101
:100560007A0086FDFCCF10927C0083EA80937A00AB
:1005700081E080937B0081E090E00E9414118F3F26
:1005800011F08093660010926C01C1E0C0934501A8
:10059000C09389011092630110929D0180E990E05F
:1005A0000E9414118093620180916201887311F09E
:1005B000C093620110928D0110928C018FEF90E038
:1005C00090938B0180938A011092680110926901C7
:1005D00010926A0110926B0181E08093200182E405
:1005E0009FE090939C0180939B0180EB90E00E94A0
:1005F0001411C82F81EB90E00E941411D82FD093D2
:100600009F01C0939E0185E090E00E9414118093A9
:10061000A20189E090E00E94141180938E018CE089
:1006200090E00E9414118093A00184E190E00E9468
:1006300014118093A1010DE611E086E4E82E81E01B
:10064000F82E99E8C92E91E0D92EC0E2D0E0CE0173
:100650000E941411B82ECE0101960E9414119B2DF8
:10066000F801819391938F01CE01C0960E941411DD
:10067000B82ECE01C1960E9414119B2DF7018193D3
:1006800091937F012296C016D10609F77894DF91E5
:10069000CF911F910F91FF90EF90DF90CF90BF907F
:1006A00008950F920FB60F921F9211248F930FB6D9
:1006B000F894A89580916000886180936000109202
:1006C00060000FBE8F911F900F900FBE0F90189576
:1006D0003C01EB0110E099249A9484E0C82E96E046
:1006E000A92E23E8B22E38E1D32E49E2E42EE09180
:1006F0002001E730E0F7F0E0E15CFE4E0C94130ED1
:10070000111102C0F3010995C092200111E0FE0110
:100710000995EDCF80916C018111E9C0F894A09208
:100720007C00B0927A0080917A00806480937A0095
:1007300080917A0086FDFCCF8091780090917900BD
:1007400078948B3AE2E09E070CF0CEC08938F2E054
:100750009F070CF0CFC0873692400CF4C8C0559A62
:10076000549A3B9A3A9A3D983C98C1CF0E945902BC
:10077000EFECF7E03197F1F700C000000E9467024C
:10078000FFEF21EE84E0F15020408040E1F700C00F
:100790000000ADCFF89480B7877F80BF80917A004A
:1007A0008F7780937A0014B817B81AB815B818B8AC
:1007B0001BB80FB6F894A895D09260000FBEE092D7
:1007C00060008091600080648093600083B7817FC7
:1007D000846083BFF89483B7816083BF78948895E1
:1007E00083B78E7F83BF789410926C01529A5A9A85
:1007F00080917A00806880937A0087E592E0019783
:10080000F1F700C0000080B7886180BF559A549A04
:100810003B9A3A9A3D9A3C9AEFE1FEE43197F1F720
:1008200000C0000080916C01811152C00E946702DB
:100830005ECF80911E01811121C01092B3001092F1
:10084000B40010921F0153CF4899F0CF559A549895
:100850003B983A983D983C988FEC97E00197F1F7D8
:1008600000C000000E9467029FEFE1EEF4E09150AB
:10087000E040F040E1F700C0000039CF90911E0148
:1008800080911F01981709F432CF80911E01809347
:100890001F0180911E018130A1F180911E011092F3
:1008A000B3009092B4008230E9F19092B30090923C
:1008B000B4008FE295E70197F1F700C00000809146
:1008C000A1019091A0019093B3008093B4000FCF49
:1008D0000E946002FFEF20E782E0F150204080405C
:1008E000E1F700C00000A2CF0E94590200CF0E9491
:1008F0006002FDCE559854983B983A983D9A3C9AA0
:10090000F6CE9092B3001092B4008FE295E7019773
:10091000F1F700C000008091A2018093B300109213
:10092000B400E5CEEFE2F5E73197F1F700C0000043
:1009300080918E011092B3008093B400D8CE9C01B8
:10094000892B49F08FEC97E00197F1F700C0000088
:1009500021503109B9F708958093B3006093B40032
:1009600008958FEF8093B3008093B4008FEC97E0ED
:100970000197F1F700C000008FEC97E00197F1F7C5
:1009800000C000008FEC97E00197F1F700C0000075
:100990008FEC97E00197F1F700C000008FEC97E033
:1009A0000197F1F700C000008FEC97E00197F1F795
:1009B00000C000008FEC97E00197F1F700C0000045
:1009C0008FEC97E00197F1F700C000008FEC97E003
:1009D0000197F1F700C000008FEC97E00197F1F765
:1009E00000C000008FEC97E00197F1F700C0000015
:1009F0008FEC97E00197F1F700C000008FEC97E0D3
:100A00000197F1F700C000008FEC97E00197F1F734
:100A100000C000008FEC97E00197F1F700C00000E4
:100A2000089580916C0181111EC0F89487E0809335
:100A30007C0083E880937A0080917A0080648093C0
:100A40007A0080917A0086FDFCCF809178009091A9
:100A5000790010927C0023EA20937A0021E0209311
:100A60007B00789408958FEF9FEF089580916C013B
:100A700081111EC0F89488EC80937C0087E88093F5
:100A80007A0080917A00806480937A0080917A0065
:100A900086FDFCCF809178009091790010927C00C7
:100AA00023EA20937A0021E020937B007894089534
:100AB0008FEF9FEF08951F93CF93DF93F0E0E0E077
:100AC00080E016E0D3E8C3EA71E0A1E0B0E060E8BE
:100AD000F89410937C00D0937A0090917A009064FF
:100AE00090937A0090917A0096FDFCCF2091780047
:100AF00030917900217090917A00906490937A00FF
:100B000090917A0096FDFCCF409178005091790049
:100B100010927C00C0937A0070937B0078944170AF
:100B2000241302C06150A1F6222339F09D010E2E3C
:100B300001C0220F0A94EAF7822B3196E830F105C2
:100B400031F6DF91CF911F91089520910001822FFE
:100B5000880F880F880F282790911D0181E0890F49
:100B600080931D01822F82958695877082279695A6
:100B70009695892780930001089580930001089538
:100B800080916C01811116C0F89486E080937C00FE
:100B900083E880937A0080917A00806480937A0061
:100BA00080917A0086FDFCCF809178009091790049
:100BB000789408958FEF9FEF08952F923F924F9270
:100BC0005F926F927F928F929F92AF92BF92CF92DD
:100BD000DF92EF92FF920F931F93CF93DF93CDB7E6
:100BE000DEB728970FB6F894DEBF0FBECDBF7C01ED
:100BF000DC0112960D90BC91A02DB887AF83A4386C
:100C0000E3E0BE070CF477C0DC01ED90FC9080912E
:100C10006D0190916E01DD24DA948E159F0508F424
:100C20003BC200916F01109170010E151F0508F471
:100C30004AC300917101109172010E151F0508F44D
:100C400047C300917301109174010E151F0508F43C
:100C500044C300917501109176010E151F0508F42B
:100C600041C300917701109178010E151F0508F41A
:100C70003EC30091790110917A010E151F0508F409
:100C80003FC300917B0110917C010E151F0508F4F4
:100C900040C300917D0110917E010E151F0508F4DF
:100CA00041C300917F01109180010E151F0508F4CA
:100CB00046C200918101109182010E151F0508F4B2
:100CC0003AC300918301109184010E151F0508F4A9
:100CD0003BC300918501109186010E151F0508F494
:100CE0003CC300918701109188010E151F0508F47F
:100CF0003DC31AE520C180914601909147018A17B2
:100D00009B0708F4B1C100914801109149010A17ED
:100D10001B0708F4F1C200914A0110914B010A1718
:100D20001B0708F4F2C200914C0110914D010A1703
:100D30001B0708F4F3C200914E0110914F010A17EE
:100D40001B0708F4F8C100915001109151010A17D6
:100D50001B0708F4ECC200915201109153010A17CD
:100D60001B0708F4EDC200915401109155010A17B8
:100D70001B0708F4EEC200915601109157010A17A3
:100D80001B0708F4EFC200915801109159010A178E
:100D90001B0708F49BC100915A0110915B010A17CF
:100DA0001B0708F4E8C200915C0110915D010A176D
:100DB0001B0708F4E4C200915E0110915F010A175D
:100DC0001B0708F4E0C200916001109161018DE001
:100DD0002DE030E00A171B0708F47BC1412C512C91
:100DE00030ED3D8340E44E832CE0C22ED12CF60141
:100DF000EE0FFF1FEA5BFE4F80819181D801A81B97
:100E0000B90B9D0150E040E029833A834B835C831A
:100E1000CA01BD010E94780F9B01AC0169837A83EE
:100E20008B839C8369817A818B819C810E945F0E78
:100E30005B016C018F819885092E000CAA0BBB0BFE
:100E400089839A83AB83BC83BC01CD010E947A0F56
:100E50003B014C01980150E040E029833A834B83E9
:100E60005C83CA01B8010E94780F1B018C019201BA
:100E70004D815E81A982BA82CB82DC8269817A81CE
:100E80008B819C810E942F109B01AC0129823A82A8
:100E90000B831C8369817A818B819C810E945E0E09
:100EA0009B01AC0169827A828B829C8269817A8102
:100EB0008B819C810E945E0E20E030E040E251E494
:100EC00069837A838B839C8369817A818B819C81FE
:100ED0000E942F1069837A838B839C8369817A8136
:100EE0008B819C810E94420F8B01A982BA82CB82A6
:100EF000DC8269817A818B819C810E94420F6983A7
:100F00007A838B839C83C80169817A810E94E00D7A
:100F1000D62E4F8158854D3B52400CF409C1D70164
:100F2000ED90FC9080916D0190916E018E159F0562
:100F300008F077CE10E0BFEF81E2810FDB1609F4F5
:100F4000ACC02D2D30E050E040E029833A834B8344
:100F50005C83CA01B9010E94780F6B017C01812F6B
:100F600090E0B0E0A0E089839A83AB83BC83BC01AE
:100F7000CD010E94780F4B015C012F813885032E33
:100F8000000C440B550B29833A834B835C83CA01C5
:100F9000B9010E947A0F8B018E839D839B01AC0166
:100FA00060E070E081E694E40E945E0E9601A70185
:100FB00069837A838B839C8369817A818B819C810D
:100FC0000E942F106B017C0120E030E04FE254E4DE
:100FD00009831A838E818B839D819C8369817A81A9
:100FE0008B819C810E945E0E9401A50169837A83A6
:100FF0008B839C8369817A818B819C810E942F10D5
:101000009B01AC01C982DA82EB82FC8269817A8120
:101010008B819C810E945F0E20E030E048E453E425
:1010200069837A838B839C8369817A818B819C819C
:101030000E94D00E20E030E044E052E469837A83DD
:101040008B839C8369817A818B819C810E945F0E56
:1010500069837A838B839C8369817A818B819C816C
:101060000E94490F862F19C0AD3BB240ACF0D701AA
:10107000ED90FC9080916D0190916E01D12C8E15B8
:101080009F0508F0CECD812C912CA12CB12CC12C28
:10109000D12CE12CF12C71CF81E228960FB6F89477
:1010A000DEBF0FBECDBFDF91CF911F910F91FF909B
:1010B000EF90DF90CF90BF90AF909F908F907F90F8
:1010C0006F905F904F903F902F90089589E029E0B6
:1010D00030E06901F1E0CF1AD108282F30E050E06C
:1010E00040E029833A834B835C83CA01B9010E94A3
:1010F000780F20E030E040E05FE369837A838B8300
:101100009C8369817A818B819C810E942F1020E0D1
:1011100030E0A90169837A838B839C8369817A811A
:101120008B819C810E945F0E2B018D839E835FCEFD
:1011300081E2860FB2CF84E024E030E0CACF59E0EC
:10114000652EE9E0F0E0EE0FFF1FE559FE4F8081CC
:101150009181D801A81BB90B9D0150E040E0298383
:101160003A834B835C83CA01BD010E94780F9B01C7
:10117000AC0169837A838B839C8369817A818B81BB
:101180009C810E945F0E962EA72EB82EC92EC701F5
:10119000FF0CAA0BBB0B89839A83AB83BC83BC0176
:1011A000CD010E947A0F762E872E7C01980150E0A7
:1011B00040E029833A834B835C83CA01B8010E94D3
:1011C000780F2B018C01862D90E0B0E0A0E08983A0
:1011D0009A83AB83BC83BC01CD010E94780F20E0D1
:1011E00030E040E05FE369837A838B839C8369818D
:1011F0007A818B819C810E942F1020E030E0A90130
:1012000069837A838B839C8369817A818B819C81BA
:101210000E945F0E292D3A2D4B2D5C2D69837A8318
:101220008B839C8369817A818B819C810E942F10A2
:101230009B01AC0149825A820B831C8369817A81AC
:101240008B819C810E945E0E9B01AC0179828A8217
:10125000EB82FC8269817A818B819C810E945E0E87
:1012600020E030E040E251E469837A838B839C8301
:1012700069817A818B819C810E942F1069837A8396
:101280008B839C8369817A818B819C810E94420F30
:101290008B019982AA82BB82CC8269817A818B81FF
:1012A0009C810E94420F69837A838B839C83C8014F
:1012B00069817A810E94E00D162F6F3F09F03BCEC5
:1012C00081E28D0DEACE66246394E1E0F0E03BCF4D
:1012D00082E0682EE2E0F0E036CFB3E06B2EE3E090
:1012E000F0E031CFA4E06A2EE4E0F0E02CCFF5E0AE
:1012F0006F2EE5E0F0E027CF81E021E030E0E9CE9D
:10130000E6E06E2EE6E0F0E01ECF82E022E030E084
:10131000E0CE77E0672EE7E0F0E015CF83E023E052
:1013200030E0D7CE68E0662EE8E0F0E00CCF85E054
:1013300025E030E0CECE4AE0642EEAE0F0E003CFD4
:1013400086E026E030E0C5CE3BE0632EEBE0F0E047
:10135000FACE87E027E030E0BCCE2CE0622EECE055
:10136000F0E0F1CE88E028E030E0B3CE9DE0692ED9
:10137000EDE0F0E0E8CE8AE02AE030E0AACE8BE0B3
:101380002BE030E0A6CE8CE02CE030E0A2CE1F9225
:101390000F920FB60F9211242F933F934F935F93A9
:1013A0006F937F938F939F93AF93BF93EF93FF932D
:1013B00080918C0190918D0120918A0130918B0157
:1013C000820F931F90938D0180938C018FEF90E09B
:1013D00090938B0180938A018FEF87BD8091680184
:1013E00090916901A0916A01B0916B010196A11DD4
:1013F000B11D8093680190936901A0936A01B09335
:101400006B0180916C0181110FC080919B019091C3
:101410009C0120918C0130918D018217930720F45B
:1014200080912001843089F0FF91EF91BF91AF91BD
:101430009F918F917F916F915F914F913F912F91EC
:101440000F900FBE0F901F901895E0910301F0913F
:1014500004010995009741F30E94460D882351F03D
:10146000E0910101F0910201099510928D01109215
:101470008C01DACF0E9404119C01992790938B0173
:1014800080938A0127BDD0CF80FF11C0559A81FF7C
:1014900011C0549A82FF11C03B9A83FF11C03A9A3F
:1014A00084FF11C03D9A85FF11C03C9A089555985C
:1014B00081FDEFCF549882FDEFCF3B9883FDEFCFB6
:1014C0003A9884FDEFCF3D9885FDEFCF3C98089585
:1014D0001F921FB61F9211248F939F931092810029
:1014E000109285001092840081E0809345018093E2
:1014F000890110926C0110927C0093EA90937A001B
:1015000080937B009F918F911F901FBE1F90189515
:101510001F920F920FB60F9211240F931F932F93C8
:101520003F934F935F936F937F938F939F93AF936B
:10153000BF93EF93FF93CF93DF9300D000D0CDB74D
:10154000DEB7209184003091850041E040936C012A
:10155000809145018823D9F1109285001092840072
:101560004093810010929D01109245018091890164
:101570008823A1F080917A0086FDFCCF80917800CD
:1015800090917900909367018093660181E0809348
:101590007C0093EA90937A0080937B000F900F90E9
:1015A0000F900F90DF91CF91FF91EF91BF91AF918D
:1015B0009F918F917F916F915F914F913F912F916B
:1015C0001F910F910F900FBE0F901F901895C9019A
:1015D0008758910984379940A0F0109281001092A9
:1015E0008500109284004093450140938901109238
:1015F0006C0110927C0083EA80937A0040937B0018
:10160000CDCF26583109A4EFB0E00E94190E6983AE
:101610007A838B839C838C0122273327883008F4BC
:1016200065C0409345018091890181113CC0809142
:101630006301E82FF0E0E157FE4F90919D01908308
:101640008F5F809363018C3009F0A8CF10928100E6
:1016500010928500109284004093890110926C01D1
:101660000091990110919A018FE891E00E948E0CEF
:101670000817190709F092CFE0919801E7FF48C0D9
:1016800098E79E0F933030F0539823981092B4004F
:101690001092B300E058EB3008F080CFF0E0EA5B46
:1016A000FE4E0C94130E80917A0086FDFCCF809143
:1016B0007800909179009093650180936401109275
:1016C0007C0083EA80937A0081E080937B00909194
:1016D0009D019923C1F01092810010928500109213
:1016E00084008093890110926C0158CF81E090E0D2
:1016F0009C0101C0220F0A95EAF780919D01822B7F
:1017000080939D014BCF109289011092630146CFC7
:10171000E0910501F091060164E671E08FE891E047
:1017200009953CCF80918F01823009F481C008F087
:1017300068C0882309F4BAC080919001909191010A
:1017400090939F0180939E0110921E018091200131
:10175000863009F423CF539A239A1092B400109242
:10176000B30086E08093200119CF8091200186305C
:1017700079F0539A239A1092B4001092B3000E9409
:10178000670210921E0110921F0186E080932001D3
:1017900020918F0181E090E002C0880F991F2A9567
:1017A000E2F720919E0130919F0182239323892BA0
:1017B00009F479C081E080931E01F0CE82E080932D
:1017C0002001ECCE85E080932001E8CE81E080937B
:1017D0002001E4CE10922001E1CE809120018330DF
:1017E00009F4DCCE80912001843009F4D7CE539ADD
:1017F000239A1092B4001092B30083E080932001EA
:10180000CDCE833061F1843009F0A0CF20911E014C
:1018100080919501909194012330C1F010921F01A5
:1018200023E020931E019093A0018093A1018ECF0D
:1018300090911E01809192019130F9F010921F0158
:1018400091E090931E018093A20180CF2091A1018D
:101850002813E4CF2091A0012913E0CF77CF9091F6
:101860001E0180919301923069F010921F0192E065
:1018700090931E0180938E0169CF9091A2019813DD
:10188000DDCF64CF90918E019813EFCF5FCFF0E062
:10189000E0E0099580916E008D7F80936E0016BC0C
:1018A000E0E0F0E7099510921E0178CE80912001CA
:1018B000863009F073CE60919E0180EB90E00E942B
:1018C0001C1160919F0181EB90E00E941C116091BE
:1018D000A20185E090E00E941C1160918E0189E0D8
:1018E00090E00E941C116091A0018CE090E00E94A9
:1018F0001C116091A10184E190E00E941C11539899
:1019000023981092B4001092B30081E080932001DC
:1019100080918F01882309F441CE18CFFC012081EA
:101920008FEF9FEF8227082E8295807F8025092EDA
:10193000982F82958F700826869598278927880F7B
:10194000880F880F802521818227082E8295807F2D
:101950008025092E982F82958F70082686959827C6
:101960008927880F880F880F802522818227082EDB
:101970008295807F8025092E982F82958F7008266A
:10198000869598278927880F880F880F80252381BF
:101990008227082E8295807F8025092E982F829598
:1019A0008F700826869598278927880F880F880FBB
:1019B000802524818227082E8295807F8025092E0C
:1019C000982F82958F700826869598278927880FEB
:1019D000880F880F802525818227082E8295807F99
:1019E0008025092E982F82958F7008268695982736
:1019F0008927880F880F880F802526818227082E47
:101A00008295807F8025092E982F82958F700826D9
:101A1000869598278927880F880F880F802527812A
:101A20008227082E8295807F8025092E982F829507
:101A30008F700826869598278927880F880F880F2A
:101A4000802520858227082E8295807F8025092E7B
:101A5000982F82958F700826869598278927880F5A
:101A6000880F880F802521858227082E8295807F08
:101A70008025092E982F82958F70082686959827A5
:101A80008927880F880F880F802508950FB6F8944E
:101A9000A4B1209162012A2B24B921E03091620186
:101AA000203029F0000025B1232B25B904C0000007
:101AB0000000000000C0000000000000309525B1CB
:101AC000232325B92EEA2A95F1F72BEE30B735FFFF
:101AD0000AC0A4B930916201309525B1232325B9FC
:101AE0000FBE80E0089500002A9581F721E0309133
:101AF0006201203029F0000025B1232B25B904C054
:101B000000000000000000C0000000000000309550
:101B100025B1232325B9000024E52A95F1F7FC011E
:101B20008CE0619170E0660F771F616072609AE0EF
:101B300041E050E09A0126233723232B30916201A4
:101B4000203029F0000025B1232B25B904C0000066
:101B50000000000000C0000000000000309525B12A
:101B6000232325B9000021E52A95F1F7440F551FDD
:101B70009A9501F78A95A9F620B7206120BFA4B9EC
:101B800030916201309525B1232325B90FBE81E044
:101B900008950E946E028FE590E090930601809375
:101BA00005018CE790E090930401809303016DEBB5
:101BB00070E085E990E00E94680390E080E008957D
:101BC00097FB072E16F4009407D077FD09D00E94EA
:101BD000280E07FC05D03EF4909581959F4F0895FF
:101BE000709561957F4F0895052E97FB1EF4009424
:101BF0000E940B0E57FD07D00E943C0E07FC03D03D
:101C00004EF40C940B0E50954095309521953F4F16
:101C10004F4F5F4F089590958095709561957F4FD8
:101C20008F4F9F4F0895EE0FFF1F0590F491E02D09
:101C30000994A29FB001B39FC001A39F700D811DA5
:101C40001124911DB29F700D811D1124911D0895C5
:101C5000AA1BBB1B51E107C0AA1FBB1FA617B707D2
:101C600010F0A61BB70B881F991F5A95A9F78095EE
:101C70009095BC01CD010895A1E21A2EAA1BBB1BB1
:101C8000FD010DC0AA1FBB1FEE1FFF1FA217B30748
:101C9000E407F50720F0A21BB30BE40BF50B661F5E
:101CA000771F881F991F1A9469F760957095809522
:101CB00090959B01AC01BD01CF0108955058BB2701
:101CC000AA270E94760E0C94F00F0E94E20F38F0C3
:101CD0000E94E90F20F039F49F3F19F426F40C9488
:101CE000DF0F0EF4E095E7FB0C94D90FE92F0E946B
:101CF000011058F3BA17620773078407950720F09D
:101D000079F4A6F50C9423100EF4E0950B2EBA2F5F
:101D1000A02D0B01B90190010C01CA01A0011124F1
:101D2000FF27591B99F0593F50F4503E68F11A169D
:101D3000F040A22F232F342F4427585FF3CF46952E
:101D400037952795A795F0405395C9F77EF41F1650
:101D5000BA0B620B730B840BBAF09150A1F0FF0F1A
:101D6000BB1F661F771F881FC2F70EC0BA0F621F06
:101D7000731F841F48F4879577956795B795F795F6
:101D80009E3F08F0B0CF9395880F08F09927EE0F8B
:101D90009795879508950E94B50F08F481E00895FE
:101DA0000E94E40E0C94F00F0E94E90F58F00E947C
:101DB000E20F40F029F45F3F29F00C94D90F511144
:101DC0000C9424100C94DF0F0E94011068F39923E7
:101DD000B1F3552391F3951B550BBB27AA27621727
:101DE0007307840738F09F5F5F4F220F331F441F34
:101DF000AA1FA9F335D00E2E3AF0E0E832D0915068
:101E00005040E695001CCAF72BD0FE2F29D0660F54
:101E1000771F881FBB1F261737074807AB07B0E897
:101E200009F0BB0B802DBF01FF2793585F4F3AF09D
:101E30009E3F510578F00C94D90F0C9424105F3F0D
:101E4000E4F3983ED4F3869577956795B795F79523
:101E50009F5FC9F7880F911D9695879597F908950B
:101E6000E1E0660F771F881FBB1F621773078407A7
:101E7000BA0720F0621B730B840BBA0BEE1F88F7B6
:101E8000E09508950E94490F6894B1110C942410B4
:101E900008950E94091088F09F5798F0B92F99274C
:101EA000B751B0F0E1F0660F771F881F991F1AF045
:101EB000BA95C9F714C0B13091F00E942310B1E077
:101EC00008950C942310672F782F8827B85F39F076
:101ED000B93FCCF3869577956795B395D9F73EF4DE
:101EE00090958095709561957F4F8F4F9F4F089586
:101EF000E89409C097FB3EF49095809570956195A4
:101F00007F4F8F4F9F4F9923A9F0F92F96E9BB2759
:101F10009395F695879577956795B795F111F8CFD5
:101F2000FAF4BB0F11F460FF1BC06F5F7F4F8F4F40
:101F30009F4F16C0882311F096E911C0772321F036
:101F40009EE8872F762F05C0662371F096E8862FCE
:101F500070E060E02AF09A95660F771F881FDAF725
:101F6000880F9695879597F90895990F0008550F52
:101F7000AA0BE0E8FEEF16161706E807F907C0F00F
:101F800012161306E407F50798F0621B730B840B17
:101F9000950B39F40A2661F0232B242B252B21F4F1
:101FA00008950A2609F4A140A6958FEF811D811D91
:101FB000089597F99F6780E870E060E008959FEFCB
:101FC00080EC089500240A941616170618060906D0
:101FD000089500240A94121613061406050608959F
:101FE000092E0394000C11F4882352F0BB0F40F427
:101FF000BF2B11F460FF04C06F5F7F4F8F4F9F4F67
:10200000089557FD9058440F551F59F05F3F71F0E8
:102010004795880F97FB991F61F09F3F79F087954F
:102020000895121613061406551FF2CF4695F1DFD8
:1020300008C0161617061806991FF1CF8695710568
:10204000610508940895E894BB2766277727CB019C
:1020500097F908950E94B50F08F48FEF08950E9434
:1020600042100C94F00F0E94E20F38F00E94E90F2A
:1020700020F0952311F00C94D90F0C94DF0F11244C
:102080000C9424100E94011070F3959FC1F3950FDA
:1020900050E0551F629FF001729FBB27F00DB11DEC
:1020A000639FAA27F00DB11DAA1F649F6627B00D7C
:1020B000A11D661F829F2227B00DA11D621F739F65
:1020C000B00DA11D621F839FA00D611D221F749F73
:1020D0003327A00D611D231F849F600D211D822FBA
:1020E000762F6A2F11249F5750409AF0F1F08823E1
:1020F0004AF0EE0FFF1FBB1F661F771F881F91500E
:102100005040A9F79E3F510580F00C94D90F0C94D4
:1021100024105F3FE4F3983ED4F386957795679556
:10212000B795F795E7959F5FC1F7FE2B880F911D37
:102130009695879597F90895CF92DF92EF92FF9247
:10214000CF93DF93CDB7DEB72A970FB6F894DEBFF3
:102150000FBECDBF89879A87A985BA852D913D91FC
:102160004D915C9129833A834B835C83232B242BF1
:10217000252B41F424E239ED4BE557E029833A83DE
:102180004B835C8369817A818B819C812DE133EF64
:1021900041E050E00E94F40D69017A01A7EAB1E440
:1021A0009B01AC010E942A1169837A838B839C83F3
:1021B000ACEEB4EFA70196010E9438119B01AC016F
:1021C00089819A81AB81BC81820F931FA41FB51FA7
:1021D000B7FF03C00197A109B048E985FA8580835C
:1021E0009183A283B3839F772A960FB6F894DEBFBC
:1021F0000FBECDBFDF91CF91FF90EF90DF90CF90DA
:1022000008950E949C10089587E091E00E949C1020
:102210000895B0E0A0E08093070190930801A09397
:102220000901B0930A010895F999FECF92BD81BDCD
:10223000F89A992780B50895262FF999FECF1FBAED
:1022400092BD81BD20BD0FB6F894FA9AF99A0FBEDF
:10225000019608950E94190EA59F900DB49F900DB0
:10226000A49F800D911D11240895B7FF0C942A118D
:102270000E942A11821B930B0895F894FFCFCA0382
:10228000B6038A0380038703240419044A0CCE0A88
:10229000CE0A470CEA0BE60BE20BDE0BED0BB50B9F
:0222A000920B9F
:0C22A200AA58025502540201000000007E
:00000001FF
