:100000000C9434000C945D000C945D000C945D0025
:100010000C945D000C945D000C94B4050C945D0090
:100020000C945D000C945D000C945D000C94CB0C62
:100030000C945D000C945D000C942A0C0C945D00F3
:100040000C945D000C945D000C945D000C945D00BC
:100050000C945D000C945D000C945D000C94EB0C12
:100060000C945D000C945D0011241FBECFEFD8E00E
:10007000DEBFCDBF14BE0FB6F894A8958091600086
:10008000886180936000109260000FBE11E0A0E0D4
:10009000B1E0E2E0F8E202C005900D92A031B107B4
:1000A000D9F721E0A0E1B1E001C01D92A83AB20762
:1000B000E1F70E942C100C94ED130C9400001092A8
:1000C000470185E10E94A70C0E94BE072AE0829F9B
:1000D000C00111240E94020780E00C94A70C8EE35B
:1000E00091E00E94F10E90934901809348018EE3C4
:1000F00091E008952091110121110BC021E020937E
:1001000011012CE0FC01A6E2B1E001900D922A95CC
:10011000E1F70895AF92BF92CF92DF92EF92FF92F4
:100120000F931F93CF93DF9300D000D000D0CDB7B3
:10013000DEB75B018C011A821982C12CD12C7601A9
:100140000E947407AC01019609F4A8C0052E000CAA
:10015000660B770BC40ED51EE61EF71E89819A81A9
:1001600001969A838983843F914051F7C701B60174
:1001700024EF31E040E050E00E945710C901609147
:100180000201709103012617370708F0AFC0B0E0F5
:10019000A0E089839A83AB83BC83B901CD010E941F
:1001A000BC117B018E839D8323E333E343E75FE34D
:1001B0006983FA828B839C8369817A818B819C819C
:1001C0000E94731269837A838B839C8369817A810D
:1001D0008B819C810E94E01269837A838B839C834C
:1001E00069817A818B819C810E948D1170930301BA
:1001F0006093020126E636E646E85FE3E982FA828A
:100200009E819B83AD81AC8369817A818B819C8146
:100210000E94731269837A838B839C8369817A81BC
:100220008B819C810E94E01269837A838B839C83FB
:1002300069817A818B819C810E948D11709321014B
:100240006093200180910001823009F4C1C08330A5
:1002500060F5882309F4E7C020E030E040E05FE388
:10026000A982BA820B831C8369817A818B819C81EC
:100270000E946E1218160CF4E9C026960FB6F89478
:10028000DEBF0FBECDBFDF91CF911F910F91FF90C9
:10029000EF90DF90CF90BF90AF90089589819A81C1
:1002A000843F914008F44CCF61CF833031F72DEC7F
:1002B0003CEC4CEC5EE3A982BA820B831C8369811F
:1002C0007A818B819C810E940F1187FFD6CF10927B
:1002D000000181E00E94A70C809101018111CDCF26
:1002E0000E94140760E08091A7018BC060912001FB
:1002F000709121016217730708F0A4CFB0E0A0E06D
:1003000089839A83AB83BC83B901CD010E94BC1160
:100310007B018E839D8323E333E343E75FE36983BC
:10032000FA828B839C8369817A818B819C810E9474
:10033000731269837A838B839C8369817A818B8131
:100340009C810E94E01269837A838B839C836981FC
:100350007A818B819C810E948D117093030160933F
:10036000020126E636E646E85FE3E982FA829E81EC
:100370009B83AD81AC8369817A818B819C810E9452
:10038000731269837A838B839C8369817A818B81E1
:100390009C810E94E01269837A838B839C836981AC
:1003A0007A818B819C810E948D11709321016093D1
:1003B00020019091010181E0891B8093010160E09F
:1003C00080E00E940F0780910001823009F03FCF4A
:1003D00026E636E646E65FE3A982BA820B831C83F3
:1003E00069817A818B819C810E946E1218160CF0B3
:1003F00044CF83E08093000180E00E94A70C60E07E
:1004000080E026960FB6F894DEBF0FBECDBFDF9119
:10041000CF911F910F91FF90EF90DF90CF90BF9001
:10042000AF900C940F072DEC3CEC4CEC5EE3A982F2
:10043000BA820B831C8369817A818B819C810E94A3
:100440006E1218160CF019CF81E0D4CF82E08093A1
:10045000000180E10E94A70C80910101813009F028
:100460000CCF0E9414076091930180E0CACFCF9215
:10047000DF92EF92FF92CF93DF93D0E0C0E0C12CE8
:10048000D12C76010E9474079C012F3F3207E9F0BE
:10049000C901330FAA0BBB0BC80ED91EEA1EFB1EE7
:1004A0002196C43F81E0D80769F7C701B60124EF60
:1004B00031E040E050E00E945710C901DF91CF9138
:1004C000FF90EF90DF90CF900895C43F81E0D80770
:1004D000C8F2EBCF4F925F926F927F928F929F9272
:1004E000AF92BF92CF92DF92EF92FF920F931F9342
:1004F000CF93DF93CDB7DEB72A970FB6F894DEBF60
:100500000FBECDBF80916D0190916E01A0916F01E2
:10051000B0917001C0901C01D0901D01E0901E01AF
:10052000F0901F018C159D05AE05BF0508F083C036
:1005300080916D0190916E01A0916F01B091700159
:100540008090180190901901A0901A01B0901B01A1
:1005500088199909AA09BB090097A140B10508F0BB
:100560006AC09A868986809110018111E8C08091C5
:100570006D0190916E01A0916F01B091700169843D
:100580007A848619970990933F0180933E01809168
:100590006D0190916E01A0916F01B09170019C016D
:1005A000AD01281939094A095B0929833A834B832C
:1005B0005C83CA01B9010E94BC118B0189879D83AC
:1005C000D701C60188199909AA09BB0989839A83A9
:1005D000AB83BC83BC01CD010E94BC119B01AC016B
:1005E00009831A8349844B825D805C8269817A81A8
:1005F0008B819C810E94141169837A838B839C83F5
:1006000069817A818B819C812A960FB6F894DEBF2E
:100610000FBECDBFDF91CF911F910F91FF90EF9053
:10062000DF90CF90BF90AF909F908F907F906F9012
:100630005F904F9008958091120190911301880F5F
:10064000991F01962C01712C612C49825A826B8270
:100650007C82C301B2010E94BC119B01AC0160917C
:1006600014017091150180911601909117010E945B
:10067000141180906D0190906E01A0906F01B09068
:1006800070018092180190921901A0921A01B09203
:100690001B01C0906D01D0906E01E0906F01F09051
:1006A000700169837A838B839C8369817A818B81D2
:1006B0009C810E94E0128B0189879D83A70196018E
:1006C0003F5F4F4F5F4F29833A834B835C83CA015F
:1006D000B9010E94BC11980149855D8169837A83C3
:1006E0008B839C8369817A818B819C810E94A3107A
:1006F00069837A838B839C8369817A818B819C81D6
:100700000E948D116B017C01C0921C01D0921D01D1
:10071000E0921E01F0921F01109214011092150137
:1007200010921601109217011092130110921201EB
:100730009A86898680911001882309F418CF8091C8
:10074000120190911301019690931301809312016D
:1007500040916D0150916E0160916F017091700137
:100760008091320190913301841B950B880D991D66
:100770002C01712C612C4D825E826F827886C301C0
:10078000B2010E94BE11462F572FBC0149835A83E4
:100790006B837C83BA010E948D118B0160E070E055
:1007A00080E89FE349805A806B807C8077FA97F9D4
:1007B0000038110558F111950195110911270E9472
:1007C00086116003C001619F900D11242C01712CD2
:1007D000612C49825A826B827C82C301B2010E94E1
:1007E000BE119B01AC0160911401709115018091C3
:1007F0001601909117010E94A31060931401709349
:1008000015018093160190931701B1CE2D813E8181
:100810004F81588550954095309521953F4F4F4FCA
:100820005F4F29833A834B835C83CA01B901D7CFD9
:10083000CF93DF9300D000D0CDB7DEB71092100178
:1008400080911101882371F081E0809310018CE088
:10085000E6E2F1E0A2E3B1E001900D928A95E1F7C2
:10086000109211010E946A0269837A838B839C83B0
:1008700069817A818B819C810F900F900F900F90EE
:10088000DF91CF910C948A00CF92DF92EF92FF928A
:100890000F931F93CF93DF93CDB7DEB728970FB693
:1008A000F894DEBF0FBECDBF40916D0150916E0137
:1008B00060916F017091700120913201309133018C
:1008C000241B350BDC018D919C91280F391F690188
:1008D000F12CE12CCD82DE82EF82F886C701B901CE
:1008E0000E94BE11462F572FBC0149835A836B8348
:1008F0007C83BA010E948D118B0160E070E080E87A
:100900009FE3C980DA80EB80FC80F7FA97F9003822
:100910001105E0F42D813E814F8158855095409519
:10092000309521953F4F4F4F5F4FCA01B90128962F
:100930000FB6F894DEBF0FBECDBFDF91CF911F91F0
:100940000F91FF90EF90DF90CF9008951195019552
:10095000110911270E9486116003C001619F900D4B
:1009600011246C01F12CE12CC701B601E0CF0895F0
:1009700090E080E008950895559854983B9A3A9AEB
:100980003D983C980895559A549A3B983A983D98CA
:100990003C980895559854983B983A983D983C98BF
:1009A0000895BF92CF92DF92EF92FF920F931F9321
:1009B000CF93DF93F89414B817B81AB815B818B8CD
:1009C0001BB8529A5A9A14BC85E085BD8FEF87BD3B
:1009D00082E080936E0010928000109281002FE8D8
:1009E0003BE0309389002093880080936F005398F8
:1009F000239891EA9093B0008093B1001092B400D4
:100A00001092B3008BE080BF83E080937F0086E08C
:100A100080937C0083E880937A0080917A008064E0
:100A200080937A0080917A0086FDFCCF10927C0042
:100A300083EA80937A0081E080937B0081E090E0FC
:100A40000E94A5138F3F11F08093660010927101F0
:100A5000C1E0C0934A01C0938E01109268011092C8
:100A6000A20180E990E00E94A51380936701809124
:100A70006701887311F0C093670110929201109280
:100A800091018FEF90E09093900180938F011092ED
:100A90006D0110926E0110926F011092700181E051
:100AA0008093250182E49FE09093A1018093A001AF
:100AB00080EB90E00E94A513C82F81EB90E00E948C
:100AC000A513D82FD093A401C093A30185E090E093
:100AD0000E94A5138093A70189E090E00E94A513CE
:100AE000809393018CE090E00E94A5138093A50170
:100AF00084E190E00E94A5138093A60102E711E033
:100B00008BE4E82E81E0F82E9EE8C92E91E0D92EE4
:100B1000C0E2D0E0CE010E94A513B82ECE0101960E
:100B20000E94A5139B2DF801819391938F01CE0113
:100B3000C0960E94A513B82ECE01C1960E94A5139F
:100B40009B2DF701819391937F012296C016D106C8
:100B500009F77894DF91CF911F910F91FF90EF905B
:100B6000DF90CF90BF9008950F920FB60F921F9213
:100B700011248F930FB6F894A89580916000886136
:100B800080936000109260000FBE8F911F900F90B5
:100B90000FBE0F9018953C01EB0110E099249A9438
:100BA00084E0C82E96E0A92E23E8B22E38E1D32E99
:100BB00049E2E42EE0912501E730E0F7F0E0E15171
:100BC000FC4E0C947910111102C0F3010995C092EA
:100BD000250111E0FE010995EDCF80917101811190
:100BE000E9C0F894A0927C00B0927A0080917A00DB
:100BF000806480937A0080917A0086FDFCCF80919A
:100C000078009091790078948B3AE2E09E070CF09E
:100C1000CEC08938F2E09F070CF0CFC087369240F3
:100C20000CF4C8C0559A549A3B9A3A9A3D983C980D
:100C3000C1CF0E94BC04EFECF7E03197F1F700C0A0
:100C400000000E94CA04FFEF21EE84E0F150204032
:100C50008040E1F700C00000ADCFF89480B7877FF7
:100C600080BF80917A008F7780937A0014B817B88C
:100C70001AB815B818B81BB80FB6F894A895D09242
:100C800060000FBEE09260008091600080648093FD
:100C9000600083B7817F846083BFF89483B78160ED
:100CA00083BF7894889583B78E7F83BF78941092A2
:100CB0007101529A5A9A80917A00806880937A00E2
:100CC00087E592E00197F1F700C0000080B78861E6
:100CD00080BF559A549A3B9A3A9A3D9A3C9AEFE1D2
:100CE000FEE43197F1F700C000008091710181119D
:100CF00052C00E94CA045ECF80912301811121C09D
:100D00001092B3001092B4001092240153CF48996E
:100D1000F0CF559A54983B983A983D983C988FEC70
:100D200097E00197F1F700C000000E94CA049FEF0E
:100D3000E1EEF4E09150E040F040E1F700C0000047
:100D400039CF9091230180912401981709F432CF73
:100D50008091230180932401809123018130A1F1AE
:100D6000809123011092B3009092B4008230E9F197
:100D70009092B3009092B4008FE295E70197F1F75B
:100D800000C000008091A6019091A5019093B3004E
:100D90008093B4000FCF0E94C304FFEF20E782E0EE
:100DA000F15020408040E1F700C00000A2CF0E9437
:100DB000BC0400CF0E94C304FDCE559854983B98C4
:100DC0003A983D9A3C9AF6CE9092B3001092B400B5
:100DD0008FE295E70197F1F700C000008091A7012D
:100DE0008093B3001092B400E5CEEFE2F5E73197BF
:100DF000F1F700C00000809193011092B30080933E
:100E0000B400D8CE9C01892B49F08FEC97E0019774
:100E1000F1F700C0000021503109B9F7089580931F
:100E2000B3006093B40008958FEF8093B300809374
:100E3000B4008FEC97E00197F1F700C000008FEC51
:100E400097E00197F1F700C000008FEC97E0019761
:100E5000F1F700C000008FEC97E00197F1F700C0B8
:100E600000008FEC97E00197F1F700C000008FECD5
:100E700097E00197F1F700C000008FEC97E0019731
:100E8000F1F700C000008FEC97E00197F1F700C088
:100E900000008FEC97E00197F1F700C000008FECA5
:100EA00097E00197F1F700C000008FEC97E0019701
:100EB000F1F700C000008FEC97E00197F1F700C058
:100EC00000008FEC97E00197F1F700C000008FEC75
:100ED00097E00197F1F700C000008FEC97E00197D1
:100EE000F1F700C0000008958091710181111EC0CA
:100EF000F89487E080937C0083E880937A00809167
:100F00007A00806480937A0080917A0086FDFCCF1D
:100F1000809178009091790010927C0023EA2093D0
:100F20007A0021E020937B00789408958FEF9FEF63
:100F300008958091710181111EC0F89488EC80930E
:100F40007C0087E880937A0080917A0080648093A7
:100F50007A0080917A0086FDFCCF80917800909194
:100F6000790010927C0023EA20937A0021E02093FC
:100F70007B00789408958FEF9FEF08951F93CF9390
:100F8000DF93F0E0E0E080E016E0D3E8C3EA71E050
:100F9000A1E0B0E060E8F89410937C00D0937A0070
:100FA00090917A00906490937A0090917A0096FDE7
:100FB000FCCF2091780030917900217090917A00D7
:100FC000906490937A0090917A0096FDFCCF4091C6
:100FD00078005091790010927C00C0937A00709351
:100FE0007B0078944170241302C06150A1F6222343
:100FF00039F09D010E2E01C0220F0A94EAF7822BD0
:101000003196E830F10531F6DF91CF911F910895C7
:1010100020910401822F880F880F880F2827909134
:10102000220181E0890F80932201822F829586958B
:101030008770822796959695892780930401089555
:1010400080930401089580917101811116C0F89474
:1010500086E080937C0083E880937A0080917A0018
:10106000806480937A0080917A0086FDFCCF809125
:10107000780090917900789408958FEF9FEF08950C
:101080002F923F924F925F926F927F928F929F9298
:10109000AF92BF92CF92DF92EF92FF920F931F9386
:1010A000CF93DF93CDB7DEB728970FB6F894DEBFA6
:1010B0000FBECDBF7C01DC0112960D90BC91A02D1E
:1010C000B887AF83A438E3E0BE070CF477C0DC0137
:1010D000ED90FC908091720190917301DD24DA947F
:1010E0008E159F0508F43BC20091740110917501A3
:1010F0000E151F0508F44AC300917601109177017F
:101100000E151F0508F447C300917801109179016D
:101110000E151F0508F444C300917A0110917B015C
:101120000E151F0508F441C300917C0110917D014B
:101130000E151F0508F43EC300917E0110917F013A
:101140000E151F0508F43FC3009180011091810125
:101150000E151F0508F440C3009182011091830110
:101160000E151F0508F441C30091840110918501FB
:101170000E151F0508F446C20091860110918701E3
:101180000E151F0508F43AC30091880110918901DA
:101190000E151F0508F43BC300918A0110918B01C5
:1011A0000E151F0508F43CC300918C0110918D01B0
:1011B0000E151F0508F43DC31AE520C180914B01AF
:1011C00090914C018A179B0708F4B1C100914D0121
:1011D00010914E010A171B0708F4F1C200914F014C
:1011E000109150010A171B0708F4F2C20091510137
:1011F000109152010A171B0708F4F3C20091530122
:10120000109154010A171B0708F4F8C10091550109
:10121000109156010A171B0708F4ECC20091570100
:10122000109158010A171B0708F4EDC200915901EB
:1012300010915A010A171B0708F4EEC200915B01D6
:1012400010915C010A171B0708F4EFC200915D01C1
:1012500010915E010A171B0708F49BC100915F0102
:10126000109160010A171B0708F4E8C200916101A0
:10127000109162010A171B0708F4E4C20091630190
:10128000109164010A171B0708F4E0C20091650180
:10129000109166018DE02DE030E00A171B0708F47D
:1012A0007BC1412C512C30ED3D8340E44E832CE03A
:1012B000C22ED12CF601EE0FFF1FE55BFE4F8081A1
:1012C0009181D801A81BB90B9D0150E040E0298312
:1012D0003A834B835C83CA01BD010E94BC119B0110
:1012E000AC0169837A838B839C8369817A818B814A
:1012F0009C810E94A3105B016C018F819885092E4F
:10130000000CAA0BBB0B89839A83AB83BC83BC0103
:10131000CD010E94BE113B014C01980150E040E01C
:1013200029833A834B835C83CA01B8010E94BC11B4
:101330001B018C0192014D815E81A982BA82CB8210
:10134000DC8269817A818B819C810E9473129B016E
:10135000AC0129823A820B831C8369817A818B815B
:101360009C810E94A2109B01AC0169827A828B82CF
:101370009C8269817A818B819C810E94A21020E0ED
:1013800030E040E251E469837A838B839C836981F6
:101390007A818B819C810E94731269837A838B830B
:1013A0009C8369817A818B819C810E9486118B014B
:1013B000A982BA82CB82DC8269817A818B819C810D
:1013C0000E94861169837A838B839C83C80169811B
:1013D0007A810E944310D62E4F8158854D3B524052
:1013E0000CF409C1D701ED90FC90809172019091AD
:1013F00073018E159F0508F077CE10E0BFEF81E2F4
:10140000810FDB1609F4ACC02D2D30E050E040E038
:1014100029833A834B835C83CA01B9010E94BC11C2
:101420006B017C01812F90E0B0E0A0E089839A837A
:10143000AB83BC83BC01CD010E94BC114B015C019C
:101440002F813885032E000C440B550B29833A83DA
:101450004B835C83CA01B9010E94BE118B018E834C
:101460009D839B01AC0160E070E081E694E40E9402
:10147000A2109601A70169837A838B839C8369817B
:101480007A818B819C810E9473126B017C0120E028
:1014900030E04FE254E409831A838E818B839D816F
:1014A0009C8369817A818B819C810E94A210940126
:1014B000A50169837A838B839C8369817A818B817F
:1014C0009C810E9473129B01AC01C982DA82EB827B
:1014D000FC8269817A818B819C810E94A31020E02B
:1014E00030E048E453E469837A838B839C83698189
:1014F0007A818B819C810E94141120E030E044E0CD
:1015000052E469837A838B839C8369817A818B819E
:101510009C810E94A31069837A838B839C83698159
:101520007A818B819C810E948D11862F19C0AD3BE1
:10153000B240ACF0D701ED90FC9080917201909197
:101540007301D12C8E159F0508F0CECD812C912CE6
:10155000A12CB12CC12CD12CE12CF12C71CF81E22A
:1015600028960FB6F894DEBF0FBECDBFDF91CF91A6
:101570001F910F91FF90EF90DF90CF90BF90AF90B1
:101580009F908F907F906F905F904F903F902F90A3
:10159000089589E029E030E06901F1E0CF1AD1082F
:1015A000282F30E050E040E029833A834B835C836E
:1015B000CA01B9010E94BC1120E030E040E05FE3C5
:1015C00069837A838B839C8369817A818B819C81F7
:1015D0000E94731220E030E0A90169837A838B8333
:1015E0009C8369817A818B819C810E94A3102B014D
:1015F0008D839E835FCE81E2860FB2CF84E024E0AC
:1016000030E0CACF59E0652EE9E0F0E0EE0FFF1FB1
:10161000E059FE4F80819181D801A81BB90B9D0133
:1016200050E040E029833A834B835C83CA01BD01CB
:101630000E94BC119B01AC0169837A838B839C83DC
:1016400069817A818B819C810E94A310962EA72E9E
:10165000B82EC92EC701FF0CAA0BBB0B89839A8336
:10166000AB83BC83BC01CD010E94BE11762E872EB8
:101670007C01980150E040E029833A834B835C83EE
:10168000CA01B8010E94BC112B018C01862D90E08B
:10169000B0E0A0E089839A83AB83BC83BC01CD0119
:1016A0000E94BC1120E030E040E05FE369837A8370
:1016B0008B839C8369817A818B819C810E947312C8
:1016C00020E030E0A90169837A838B839C83698160
:1016D0007A818B819C810E94A310292D3A2D4B2D5C
:1016E0005C2D69837A838B839C8369817A818B816A
:1016F0009C810E9473129B01AC0149825A820B8328
:101700001C8369817A818B819C810E94A2109B013C
:10171000AC0179828A82EB82FC8269817A818B8139
:101720009C810E94A21020E030E040E251E46983F5
:101730007A838B839C8369817A818B819C810E94CF
:10174000731269837A838B839C8369817A818B810D
:101750009C810E9486118B019982AA82BB82CC82D5
:1017600069817A818B819C810E94861169837A8349
:101770008B839C83C80169817A810E944310162F54
:101780006F3F09F03BCE81E28D0DEACE6624639473
:10179000E1E0F0E03BCF82E0682EE2E0F0E036CF1F
:1017A000B3E06B2EE3E0F0E031CFA4E06A2EE4E09A
:1017B000F0E02CCFF5E06F2EE5E0F0E027CF81E000
:1017C00021E030E0E9CEE6E06E2EE6E0F0E01ECF6C
:1017D00082E022E030E0E0CE77E0672EE7E0F0E064
:1017E00015CF83E023E030E0D7CE68E0662EE8E056
:1017F000F0E00CCF85E025E030E0CECE4AE0642E6C
:10180000EAE0F0E003CF86E026E030E0C5CE3BE042
:10181000632EEBE0F0E0FACE87E027E030E0BCCECC
:101820002CE0622EECE0F0E0F1CE88E028E030E041
:10183000B3CE9DE0692EEDE0F0E0E8CE8AE02AE04C
:1018400030E0AACE8BE02BE030E0A6CE8CE02CE09E
:1018500030E0A2CE1F920F920FB60F9211242F9359
:101860003F934F935F936F937F938F939F93AF9328
:10187000BF93EF93FF9380919101909192012091FA
:101880008F0130919001820F931F9093920180936A
:1018900091018FEF90E09093900180938F018FEFF3
:1018A00087BD80916D0190916E01A0916F01B09103
:1018B00070010196A11DB11D80936D0190936E0181
:1018C000A0936F01B09370018091710181110FC0DD
:1018D0008091A0019091A1012091910130919201FC
:1018E0008217930720F480912501843089F0FF91BD
:1018F000EF91BF91AF919F918F917F916F915F9188
:101900004F913F912F910F900FBE0F901F90189500
:10191000E0910701F09108010995009741F30E94B9
:10192000A90F882351F0E0910501F0910601099576
:101930001092920110929101DACF0E9495139C01AE
:1019400099279093900180938F0127BDD0CF80FF7E
:1019500011C0559A81FF11C0549A82FF11C03B9A61
:1019600083FF11C03A9A84FF11C03D9A85FF11C0D0
:101970003C9A0895559881FDEFCF549882FDEFCFA2
:101980003B9883FDEFCF3A9884FDEFCF3D9885FDDE
:10199000EFCF3C9808951F921FB61F9211248F938A
:1019A0009F9310928100109285001092840081E034
:1019B00080934A0180938E011092710110927C00F5
:1019C00093EA90937A0080937B009F918F911F9070
:1019D0001FBE1F9018951F920F920FB60F921124E1
:1019E0000F931F932F933F934F935F936F937F9327
:1019F0008F939F93AF93BF93EF93FF93CF93DF9317
:101A000000D000D0CDB7DEB72091840030918500A2
:101A100041E04093710180914A018823D9F11092ED
:101A2000850010928400409381001092A2011092D0
:101A30004A0180918E018823A1F080917A0086FD71
:101A4000FCCF809178009091790090936C01809305
:101A50006B0181E080937C0093EA90937A008093FD
:101A60007B000F900F900F900F90DF91CF91FF911F
:101A7000EF91BF91AF919F918F917F916F915F9106
:101A80004F913F912F911F910F910F900FBE0F908B
:101A90001F901895C9018758910984379940A0F083
:101AA00010928100109285001092840040934A01A8
:101AB00040938E011092710110927C0083EA809312
:101AC0007A0040937B00CDCF26583109A4EFB0E0D7
:101AD0000E947F1069837A838B839C838C012227E9
:101AE0003327883008F465C040934A0180918E0105
:101AF00081113CC080916801E82FF0E0EC56FE4F68
:101B00009091A20190838F5F809368018C3009F0DF
:101B1000A8CF10928100109285001092840040930B
:101B20008E011092710100919E0110919F0184E934
:101B300091E00E94F10E0817190709F092CFE09189
:101B40009D01E7FF48C098E79E0F933030F053980F
:101B500023981092B4001092B300E058EB3008F0D4
:101B600080CFF0E0EA50FC4E0C94791080917A001E
:101B700086FDFCCF809178009091790090936A0166
:101B80008093690110927C0083EA80937A0081E05F
:101B900080937B009091A2019923C1F01092810063
:101BA000109285001092840080938E011092710132
:101BB00058CF81E090E09C0101C0220F0A95EAF71E
:101BC0008091A201822B8093A2014BCF10928E01B3
:101BD0001092680146CFE0910901F0910A0169E68F
:101BE00071E084E991E009953CCF809194018230C5
:101BF00009F481C008F068C0882309F4BAC0809154
:101C00009501909196019093A4018093A301109265
:101C1000230180912501863009F423CF539A239A1A
:101C20001092B4001092B30086E08093250119CF82
:101C300080912501863079F0539A239A1092B4004E
:101C40001092B3000E94CA04109223011092240142
:101C500086E0809325012091940181E090E002C00C
:101C6000880F991F2A95E2F72091A3013091A401D2
:101C700082239323892B09F479C081E08093230187
:101C8000F0CE82E080932501ECCE85E080932501A3
:101C9000E8CE81E080932501E4CE10922501E1CECB
:101CA00080912501833009F4DCCE809125018430B8
:101CB00009F4D7CE539A239A1092B4001092B3002D
:101CC00083E080932501CDCE833061F1843009F02B
:101CD000A0CF2091230180919A0190919901233006
:101CE000C1F01092240123E0209323019093A501D9
:101CF0008093A6018ECF909123018091970191301E
:101D0000F9F01092240191E0909323018093A701B0
:101D100080CF2091A6012813E4CF2091A50129139B
:101D2000E0CF77CF9091230180919801923069F0B4
:101D30001092240192E0909323018093930169CF44
:101D40009091A7019813DDCF64CF909193019813E0
:101D5000EFCF5FCFF0E0E0E0099580916E008D7FDE
:101D600080936E0016BCE0E0F0E709951092230125
:101D700078CE80912501863009F073CE6091A30161
:101D800080EB90E00E94AD136091A40181EB90E0A4
:101D90000E94AD136091A70185E090E00E94AD1311
:101DA0006091930189E090E00E94AD136091A501DC
:101DB0008CE090E00E94AD136091A60184E190E078
:101DC0000E94AD13539823981092B4001092B30060
:101DD00081E08093250180919401882309F441CE0C
:101DE00018CFFC0120818FEF9FEF8227082E82956C
:101DF000807F8025092E982F82958F7008268695E2
:101E000098278927880F880F880F802521818227AE
:101E1000082E8295807F8025092E982F82958F70BD
:101E20000826869598278927880F880F880F802590
:101E300022818227082E8295807F8025092E982F67
:101E400082958F700826869598278927880F880F96
:101E5000880F802523818227082E8295807F802508
:101E6000092E982F82958F700826869598278927A6
:101E7000880F880F880F802524818227082E82955D
:101E8000807F8025092E982F82958F700826869551
:101E900098278927880F880F880F8025258182271A
:101EA000082E8295807F8025092E982F82958F702D
:101EB0000826869598278927880F880F880F802500
:101EC00026818227082E8295807F8025092E982FD3
:101ED00082958F700826869598278927880F880F06
:101EE000880F802527818227082E8295807F802574
:101EF000092E982F82958F70082686959827892716
:101F0000880F880F880F802520858227082E8295CC
:101F1000807F8025092E982F82958F7008268695C0
:101F200098278927880F880F880F80252185822789
:101F3000082E8295807F8025092E982F82958F709C
:101F40000826869598278927880F880F880F80256F
:101F500008950FB6F894A4B1209167012A2B24B9F3
:101F600021E030916701203029F0000025B1232BBA
:101F700025B904C000000000000000C000000000FF
:101F80000000309525B1232325B92EEA2A95F1F7D3
:101F90002BEE30B735FF0AC0A4B9309167013095F8
:101FA00025B1232325B90FBE80E0089500002A95AE
:101FB00081F721E030916701203029F0000025B140
:101FC000232B25B904C000000000000000C0000061
:101FD00000000000309525B1232325B9000024E539
:101FE0002A95F1F7FC018CE0619170E0660F771F94
:101FF000616072609AE041E050E09A012623372345
:10200000232B30916701203029F0000025B1232BCC
:1020100025B904C000000000000000C0000000005E
:102020000000309525B1232325B9000021E52A952C
:10203000F1F7440F551F9A9501F78A95A9F620B735
:10204000206120BFA4B930916701309525B12323C9
:1020500025B90FBE81E008950E94D1048AE790E07F
:1020600090930A01809309018FE690E09093080114
:102070008093070168E174E08FE590E00E94CB0552
:1020800090E080E0089597FB072E16F4009407D0A7
:1020900077FD09D00E948E1007FC05D03EF4909584
:1020A00081959F4F0895709561957F4F0895A1E2A6
:1020B0001A2EAA1BBB1BFD010DC0AA1FBB1FEE1FC2
:1020C000FF1FA217B307E407F50720F0A21BB30B0D
:1020D000E40BF50B661F771F881F991F1A9469F789
:1020E00060957095809590959B01AC01BD01CF01E5
:1020F0000895EE0FFF1F0590F491E02D0994A29F23
:10210000B001B39FC001A39F700D811D1124911DCB
:10211000B29F700D811D1124911D0895AA1BBB1B38
:1021200051E107C0AA1FBB1FA617B70710F0A61BD7
:10213000B70B881F991F5A95A9F780959095BC01F8
:10214000CD0108955058BB27AA270E94BA100C94BD
:1021500034120E94261238F00E942D1220F039F419
:102160009F3F19F426F40C9423120EF4E095E7FB3C
:102170000C941D12E92F0E94451258F3BA176207FA
:1021800073078407950720F079F4A6F50C9467127D
:102190000EF4E0950B2EBA2FA02D0B01B901900182
:1021A0000C01CA01A0011124FF27591B99F0593FC6
:1021B00050F4503E68F11A16F040A22F232F342F0E
:1021C0004427585FF3CF469537952795A795F0405C
:1021D0005395C9F77EF41F16BA0B620B730B840B71
:1021E000BAF09150A1F0FF0FBB1F661F771F881F29
:1021F000C2F70EC0BA0F621F731F841F48F4879581
:1022000077956795B795F7959E3F08F0B0CF939572
:10221000880F08F09927EE0F9795879508950E94EB
:10222000F91108F481E008950E9428110C943412E9
:102230000E942D1258F00E94261240F029F45F3FB0
:1022400029F00C941D1251110C9468120C94231255
:102250000E94451268F39923B1F3552391F3951B1E
:10226000550BBB27AA2762177307840738F09F5FB7
:102270005F4F220F331F441FAA1FA9F335D00E2E24
:102280003AF0E0E832D091505040E695001CCAF791
:102290002BD0FE2F29D0660F771F881FBB1F261754
:1022A00037074807AB07B0E809F0BB0B802DBF012B
:1022B000FF2793585F4F3AF09E3F510578F00C94FA
:1022C0001D120C9468125F3FE4F3983ED4F3869598
:1022D00077956795B795F7959F5FC9F7880F911D1B
:1022E0009695879597F90895E1E0660F771F881F07
:1022F000BB1F621773078407BA0720F0621B730BBA
:10230000840BBA0BEE1F88F7E09508950E948D119B
:102310006894B1110C94681208950E944D1288F0CF
:102320009F5798F0B92F9927B751B0F0E1F0660F99
:10233000771F881F991F1AF0BA95C9F714C0B130DA
:1023400091F00E946712B1E008950C946712672F14
:10235000782F8827B85F39F0B93FCCF38695779509
:102360006795B395D9F73EF49095809570956195F2
:102370007F4F8F4F9F4F0895E89409C097FB3EF41D
:1023800090958095709561957F4F8F4F9F4F9923C2
:10239000A9F0F92F96E9BB279395F6958795779540
:1023A0006795B795F111F8CFFAF4BB0F11F460FF00
:1023B0001BC06F5F7F4F8F4F9F4F16C0882311F058
:1023C00096E911C0772321F09EE8872F762F05C06C
:1023D000662371F096E8862F70E060E02AF09A9507
:1023E000660F771F881FDAF7880F9695879597F9FC
:1023F0000895990F0008550FAA0BE0E8FEEF161696
:102400001706E807F907C0F012161306E407F507E8
:1024100098F0621B730B840B950B39F40A2661F05C
:10242000232B242B252B21F408950A2609F4A140FF
:10243000A6958FEF811D811D089597F99F6780E80C
:1024400070E060E008959FEF80EC089500240A9406
:102450001616170618060906089500240A9412167F
:102460001306140605060895092E0394000C11F4B2
:10247000882352F0BB0F40F4BF2B11F460FF04C05F
:102480006F5F7F4F8F4F9F4F089557FD9058440FB8
:10249000551F59F05F3F71F04795880F97FB991FC3
:1024A00061F09F3F79F08795089512161306140680
:1024B000551FF2CF4695F1DF08C01616170618060D
:1024C000991FF1CF86957105610508940895E894E8
:1024D000BB2766277727CB0197F908950E94F9114A
:1024E00008F48FEF08950E9486120C9434120E9413
:1024F000261238F00E942D1220F0952311F00C9432
:102500001D120C94231211240C9468120E9445127F
:1025100070F3959FC1F3950F50E0551F629FF00136
:10252000729FBB27F00DB11D639FAA27F00DB11D4F
:10253000AA1F649F6627B00DA11D661F829F2227D8
:10254000B00DA11D621F739FB00DA11D621F839F5F
:10255000A00D611D221F749F3327A00D611D231F35
:10256000849F600D211D822F762F6A2F11249F5783
:1025700050409AF0F1F088234AF0EE0FFF1FBB1F86
:10258000661F771F881F91505040A9F79E3F510545
:1025900080F00C941D120C9468125F3FE4F3983E97
:1025A000D4F3869577956795B795F795E7959F5FEF
:1025B000C1F7FE2B880F911D9695879597F9089581
:1025C0000E944D12E8F09E37E8F09639B8F49E3834
:1025D00048F4672F782F8827985FF9CF86957795ED
:1025E000679593959539D0F3B62FB1706B0F711D28
:1025F000811D20F487957795679593950C94041326
:102600000C941F130C946812882371F4772321F023
:102610009850872B762F07C0662311F499270DC099
:102620009051862B70E060E02AF09A95660F771F34
:10263000881FDAF7880F9695879597F908959F3F39
:1026400031F0915020F4879577956795B795880F6D
:10265000911D9695879597F90895CF92DF92EF9205
:10266000FF92CF93DF93CDB7DEB72A970FB6F894DA
:10267000DEBF0FBECDBF89879A87A985BA852D9108
:102680003D914D915C9129833A834B835C83232B4D
:10269000242B252B41F424E239ED4BE557E0298327
:1026A0003A834B835C8369817A818B819C812DE1A4
:1026B00033EF41E050E00E94BB1369017A01A7EAC1
:1026C000B1E49B01AC010E94DA1369837A838B83A6
:1026D0009C83ACEEB4EFA70196010E94E8139B0126
:1026E000AC0189819A81AB81BC81820F931FA41FA9
:1026F000B51FB7FF03C00197A109B048E985FA8566
:1027000080839183A283B3839F772A960FB6F89430
:10271000DEBF0FBECDBFDF91CF91FF90EF90DF9076
:10272000CF9008950E942D1308958BE091E00E94B0
:102730002D130895B0E0A0E080930B0190930C015D
:10274000A0930D01B0930E010895F999FECF92BDAB
:1027500081BDF89A992780B50895262FF999FECF63
:102760001FBA92BD81BD20BD0FB6F894FA9AF99AAE
:102770000FBE01960895052E97FB1EF400940E944B
:10278000D21357FD07D00E94571007FC03D04EF418
:102790000C94D21350954095309521953F4F4F4F53
:1027A0005F4F089590958095709561957F4F8F4FFD
:1027B0009F4F08950E947F10A59F900DB49F900D8C
:1027C000A49F800D911D11240895B7FF0C94DA1376
:1027D0000E94DA13821B930B0895F894FFCF2D0605
:1027E0001906ED05E305EA0587067C06AD0E310DF9
:1027F000310DAA0E4D0E490E450E410E500E180E0B
:02280000F50DD4
:1028020003010004AABB04B804B7040100000000DD
:00000001FF
