:100000000C9434000C945D000C945D000C945D0025
:100010000C945D000C945D000C94AA020C945D009D
:100020000C945D000C945D000C945D000C94C1096F
:100030000C945D000C945D000C9420090C945D0000
:100040000C945D000C945D000C945D000C945D00BC
:100050000C945D000C945D000C945D000C94E1091F
:100060000C945D000C945D0011241FBECFEFD8E00E
:10007000DEBFCDBF14BE0FB6F894A8958091600086
:10008000886180936000109260000FBE11E0A0E0D4
:10009000B1E0E8EFF0E202C005900D92AC30B1079C
:1000A000D9F721E0ACE0B1E001C01D92A239B2075E
:1000B000E1F70E94220D0C9468100C94000088E275
:1000C00091E00895FC018CE0ACE1B1E001900D926B
:1000D0008A95E1F781E090E09093110180931001FF
:1000E0000895CF93DF93C8E2D1E019861882CE013C
:1000F0000E94E70B9B878A87809157019091580156
:10010000A0915901B0915A0180931201909313016B
:10011000A0931401B0931501DF91CF910895CF936F
:10012000DF93C0911001D0911101C130D105C1F10F
:10013000CD2B09F04EC0409157015091580160916C
:10014000590170915A018091120190911301A0916F
:100150001401B0911501805C9F4FAF4FBF4F8417C2
:100160009507A607B707A8F580911601909117018A
:10017000892B09F076C08091570190915801A09188
:100180005901B0915A018093120190931301A093E9
:100190001401B093150185E1DF91CF910C949D0975
:1001A00040915701509158016091590170915A0145
:1001B0008091120190911301A0911401B091150149
:1001C000805C9F4FAF4FBF4F84179507A607B707B7
:1001D00018F0DF91CF9108958091570190915801C7
:1001E000A0915901B0915A0180931201909313018B
:1001F000A0931401B09315011092110110921001F7
:100200000E94B404282F30E030930F0120930E0198
:10021000982F9370292F30E030930D0120930C011B
:1002200081FF47C02091160130911701923041F1B2
:100230002330310589F06FEF70E08FEF90E00E947E
:100240000A0460917D0180E00E94050483E090E053
:10025000909317018093160180E1DF91CF910C9468
:100260009D096FEF70E08FEF90E00E940A0460E05C
:1002700080E00E94050410921701109216017BCFB6
:100280002230310589F06FEF70E08FEF90E00E942F
:100290000A0460E0809191010E94050482E090E0F0
:1002A000909317018093160181E0DF91CF910C9418
:1002B0009D098091160190911701019781F06FEFD0
:1002C00070E08FEF90E00E940A04609190018091AD
:1002D0008F010E940504D0931701C093160184E09A
:1002E000DF91CF910C949D09CF93DF93EC01809126
:1002F0001601909117018C179D0719F4DF91CF918A
:1003000008956FEF70E08FEF90E00E940A0420974D
:10031000C1F0C130D105D1F0C230D10561F060919A
:100320007D0180E00E940504D0931701C09316015F
:10033000DF91CF91089560E0809191010E940504C2
:10034000F3CF60E080E00E940504EECF6091900161
:1003500080918F010E940504E7CF089590E080E02E
:1003600008950895559854983B9A3A9A3D983C9828
:100370000895559A549A3B983A983D983C98089518
:10038000559854983B983A983D983C980895BF9258
:10039000CF92DF92EF92FF920F931F93CF93DF9351
:1003A000F89414B817B81AB815B818B81BB8529AF8
:1003B0005A9A14BC85E085BD8FEF87BD82E080939B
:1003C0006E0010928000109281002FE83BE0309385
:1003D00089002093880080936F005398239891EAB6
:1003E0009093B0008093B1001092B4001092B300CB
:1003F0008BE080BF83E080937F0086E080937C0069
:1004000083E880937A0080917A00806480937A00F8
:1004100080917A0086FDFCCF10927C0083EA809365
:100420007A0081E080937B0081E090E00E94FE0FE3
:100430008F3F11F08093660010925B01C1E0C09382
:100440003401C09378011092520110928C0180E91E
:1004500090E00E94FE0F80935101809151018873BA
:1004600011F0C093510110927C0110927B018FEF2B
:1004700090E090937A018093790110925701109245
:1004800058011092590110925A0181E080931B018A
:1004900082E49FE090938B0180938A0180EB90E04F
:1004A0000E94FE0FC82F81EB90E00E94FE0FD82F14
:1004B000D0938E01C0938D0185E090E00E94FE0FE5
:1004C0008093910189E090E00E94FE0F80937D016E
:1004D0008CE090E00E94FE0F80938F0184E190E019
:1004E0000E94FE0F809390010CE511E085E3E82E59
:1004F00081E0F82E98E7C92E91E0D92EC0E2D0E035
:10050000CE010E94FE0FB82ECE0101960E94FE0F72
:100510009B2DF801819391938F01CE01C0960E948B
:10052000FE0FB82ECE01C1960E94FE0F9B2DF70143
:10053000819391937F012296C016D10609F7789492
:10054000DF91CF911F910F91FF90EF90DF90CF90AF
:10055000BF9008950F920FB60F921F9211248F93A0
:100560000FB6F894A8958091600088618093600030
:10057000109260000FBE8F911F900F900FBE0F90D2
:1005800018953C01EB0110E099249A9484E0C82E60
:1005900096E0A92E23E8B22E38E1D32E49E2E42ECC
:1005A000E0911B01E730E0F7F0E0E659FF4E0C94D4
:1005B0004D0D111102C0F3010995C0921B0111E00C
:1005C000FE010995EDCF80915B018111E9C0F8949E
:1005D000A0927C00B0927A0080917A00806480932F
:1005E0007A0080917A0086FDFCCF8091780090910E
:1005F000790078948B3AE2E09E070CF0CEC08938FF
:10060000F2E09F070CF0CFC0873692400CF4C8C0D0
:10061000559A549A3B9A3A9A3D983C98C1CF0E9479
:10062000B201EFECF7E03197F1F700C000000E9453
:10063000C001FFEF21EE84E0F15020408040E1F75F
:1006400000C00000ADCFF89480B7877F80BF809155
:100650007A008F7780937A0014B817B81AB815B853
:1006600018B81BB80FB6F894A895D09260000FBECA
:10067000E09260008091600080648093600083B7A6
:10068000817F846083BFF89483B7816083BF78944F
:10069000889583B78E7F83BF789410925B01529ABE
:1006A0005A9A80917A00806880937A0087E592E078
:1006B0000197F1F700C0000080B7886180BF559AAC
:1006C000549A3B9A3A9A3D9A3C9AEFE1FEE431976C
:1006D000F1F700C0000080915B01811152C00E94BF
:1006E000C0015ECF80911901811121C01092B30029
:1006F0001092B40010921A0153CF4899F0CF559A36
:1007000054983B983A983D983C988FEC97E0019725
:10071000F1F700C000000E94C0019FEFE1EEF4E09D
:100720009150E040F040E1F700C0000039CF9091D7
:10073000190180911A01981709F432CF809119019B
:1007400080931A01809119018130A1F180911901E2
:100750001092B3009092B4008230E9F19092B3000D
:100760009092B4008FE295E70197F1F700C0000086
:100770008091900190918F019093B3008093B40089
:100780000FCF0E94B901FFEF20E782E0F150204037
:100790008040E1F700C00000A2CF0E94B20100CF6C
:1007A0000E94B901FDCE559854983B983A983D9ACD
:1007B0003C9AF6CE9092B3001092B4008FE295E787
:1007C0000197F1F700C00000809191018093B30080
:1007D0001092B400E5CEEFE2F5E73197F1F700C0F3
:1007E000000080917D011092B3008093B400D8CEB8
:1007F0009C01892B49F08FEC97E00197F1F700C03D
:10080000000021503109B9F708958093B300609337
:10081000B40008958FEF8093B3008093B4008FEC01
:1008200097E00197F1F700C000008FEC97E0019787
:10083000F1F700C000008FEC97E00197F1F700C0DE
:1008400000008FEC97E00197F1F700C000008FECFB
:1008500097E00197F1F700C000008FEC97E0019757
:10086000F1F700C000008FEC97E00197F1F700C0AE
:1008700000008FEC97E00197F1F700C000008FECCB
:1008800097E00197F1F700C000008FEC97E0019727
:10089000F1F700C000008FEC97E00197F1F700C07E
:1008A00000008FEC97E00197F1F700C000008FEC9B
:1008B00097E00197F1F700C000008FEC97E00197F7
:1008C000F1F700C000008FEC97E00197F1F700C04E
:1008D0000000089580915B0181111EC0F89487E0AB
:1008E00080937C0083E880937A0080917A00806412
:1008F00080937A0080917A0086FDFCCF8091780009
:100900009091790010927C0023EA20937A0021E0F4
:1009100020937B00789408958FEF9FEF0895809146
:100920005B0181111EC0F89488EC80937C0087E8FD
:1009300080937A0080917A00806480937A0080911D
:100940007A0086FDFCCF809178009091790010921A
:100950007C0023EA20937A0021E020937B007894A6
:1009600008958FEF9FEF08951F93CF93DF93F0E0EB
:10097000E0E080E016E0D3E8C3EA71E0A1E0B0E097
:1009800060E8F89410937C00D0937A0090917A00FC
:10099000906490937A0090917A0096FDFCCF20911C
:1009A000780030917900217090917A009064909352
:1009B0007A0090917A0096FDFCCF4091780050919A
:1009C000790010927C00C0937A0070937B00789439
:1009D0004170241302C06150A1F6222339F09D0119
:1009E0000E2E01C0220F0A94EAF7822B3196E830CE
:1009F000F10531F6DF91CF911F910895209100010B
:100A0000822F880F880F880F28279091180181E086
:100A1000890F80931801822F82958695877082278F
:100A200096959695892780930001089580930001FB
:100A3000089580915B01811116C0F89486E080933F
:100A40007C0083E880937A0080917A0080648093B0
:100A50007A0080917A0086FDFCCF80917800909199
:100A60007900789408958FEF9FEF08952F923F9229
:100A70004F925F926F927F928F929F92AF92BF92AE
:100A8000CF92DF92EF92FF920F931F93CF93DF935A
:100A9000CDB7DEB728970FB6F894DEBF0FBECDBF37
:100AA0007C01DC0112960D90BC91A02DB887AF831C
:100AB000A438E3E0BE070CF477C0DC01ED90FC90B5
:100AC00080915C0190915D01DD24DA948E159F0583
:100AD00008F43BC200915E0110915F010E151F05E5
:100AE00008F44AC300916001109161010E151F05C1
:100AF00008F447C300916201109163010E151F05B0
:100B000008F444C300916401109165010E151F059E
:100B100008F441C300916601109167010E151F058D
:100B200008F43EC300916801109169010E151F057C
:100B300008F43FC300916A0110916B010E151F0567
:100B400008F440C300916C0110916D010E151F0552
:100B500008F441C300916E0110916F010E151F053D
:100B600008F446C200917001109171010E151F0525
:100B700008F43AC300917201109173010E151F051C
:100B800008F43BC300917401109175010E151F0507
:100B900008F43CC300917601109177010E151F05F2
:100BA00008F43DC31AE520C18091350190913601CA
:100BB0008A179B0708F4B1C10091370110913801E1
:100BC0000A171B0708F4F1C20091390110913A018C
:100BD0000A171B0708F4F2C200913B0110913C0177
:100BE0000A171B0708F4F3C200913D0110913E0162
:100BF0000A171B0708F4F8C100913F01109140014A
:100C00000A171B0708F4ECC2009141011091420140
:100C10000A171B0708F4EDC200914301109144012B
:100C20000A171B0708F4EEC2009145011091460116
:100C30000A171B0708F4EFC2009147011091480101
:100C40000A171B0708F49BC10091490110914A0142
:100C50000A171B0708F4E8C200914B0110914C01E0
:100C60000A171B0708F4E4C200914D0110914E01D0
:100C70000A171B0708F4E0C200914F0110915001C0
:100C80008DE02DE030E00A171B0708F47BC1412CF2
:100C9000512C30ED3D8340E44E832CE0C22ED12C0C
:100CA000F601EE0FFF1FEB5CFE4F80819181D801B2
:100CB000A81BB90B9D0150E040E029833A834B8388
:100CC0005C83CA01BD010E948B0E9B01AC0169834C
:100CD0007A838B839C8369817A818B819C810E943A
:100CE000770D5B016C018F819885092E000CAA0B92
:100CF000BB0B89839A83AB83BC83BC01CD010E946B
:100D00008D0E3B014C01980150E040E029833A836D
:100D10004B835C83CA01B8010E948B0E1B018C01BE
:100D200092014D815E81A982BA82CB82DC82698187
:100D30007A818B819C810E94190F9B01AC012982D1
:100D40003A820B831C8369817A818B819C810E940A
:100D5000760D9B01AC0169827A828B829C826981CB
:100D60007A818B819C810E94760D20E030E040E208
:100D700051E469837A838B839C8369817A818B8137
:100D80009C810E94190F69837A838B839C8369817C
:100D90007A818B819C810E94550E8B01A982BA8237
:100DA000CB82DC8269817A818B819C810E94550E85
:100DB00069837A838B839C83C80169817A810E94CD
:100DC000390DD62E4F8158854D3B52400CF409C148
:100DD000D701ED90FC9080915C0190915D018E15A2
:100DE0009F0508F077CE10E0BFEF81E2810FDB16A0
:100DF00009F4ACC02D2D30E050E040E029833A8367
:100E00004B835C83CA01B9010E948B0E6B017C018C
:100E1000812F90E0B0E0A0E089839A83AB83BC830C
:100E2000BC01CD010E948B0E4B015C012F813885E6
:100E3000032E000C440B550B29833A834B835C83B0
:100E4000CA01B9010E948D0E8B018E839D839B0187
:100E5000AC0160E070E081E694E40E94760D9601BA
:100E6000A70169837A838B839C8369817A818B81D3
:100E70009C810E94190F6B017C0120E030E04FE261
:100E800054E409831A838E818B839D819C836981BD
:100E90007A818B819C810E94760D9401A5016983E2
:100EA0007A838B839C8369817A818B819C810E9468
:100EB000190F9B01AC01C982DA82EB82FC82698145
:100EC0007A818B819C810E94770D20E030E048E49C
:100ED00053E469837A838B839C8369817A818B81D4
:100EE0009C810E94E30D20E030E044E052E46983FD
:100EF0007A838B839C8369817A818B819C810E9418
:100F0000770D69837A838B839C8369817A818B8156
:100F10009C810E945C0E862F19C0AD3BB240ACF0A4
:100F2000D701ED90FC9080915C0190915D01D12CF6
:100F30008E159F0508F0CECD812C912CA12CB12CC3
:100F4000C12CD12CE12CF12C71CF81E228960FB667
:100F5000F894DEBF0FBECDBFDF91CF911F910F91EF
:100F6000FF90EF90DF90CF90BF90AF909F908F90C9
:100F70007F906F905F904F903F902F90089589E001
:100F800029E030E06901F1E0CF1AD108282F30E0E4
:100F900050E040E029833A834B835C83CA01B90166
:100FA0000E948B0E20E030E040E05FE369837A83AB
:100FB0008B839C8369817A818B819C810E94190F2C
:100FC00020E030E0A90169837A838B839C83698167
:100FD0007A818B819C810E94770D2B018D839E836A
:100FE0005FCE81E2860FB2CF84E024E030E0CACF4A
:100FF00059E0652EE9E0F0E0EE0FFF1FE65AFE4FE4
:1010000080819181D801A81BB90B9D0150E040E07F
:1010100029833A834B835C83CA01BD010E948B0EF6
:101020009B01AC0169837A838B839C8369817A817C
:101030008B819C810E94770D962EA72EB82EC92EEB
:10104000C701FF0CAA0BBB0B89839A83AB83BC83BC
:10105000BC01CD010E948D0E762E872E7C01980159
:1010600050E040E029833A834B835C83CA01B80196
:101070000E948B0E2B018C01862D90E0B0E0A0E049
:1010800089839A83AB83BC83BC01CD010E948B0E04
:1010900020E030E040E05FE369837A838B839C83C8
:1010A00069817A818B819C810E94190F20E030E058
:1010B000A90169837A838B839C8369817A818B817F
:1010C0009C810E94770D292D3A2D4B2D5C2D698333
:1010D0007A838B839C8369817A818B819C810E9436
:1010E000190F9B01AC0149825A820B831C836981D1
:1010F0007A818B819C810E94760D9B01AC01798263
:101100008A82EB82FC8269817A818B819C810E9438
:10111000760D20E030E040E251E469837A838B83EE
:101120009C8369817A818B819C810E94190F6983DC
:101130007A838B839C8369817A818B819C810E94D5
:10114000550E8B019982AA82BB82CC8269817A81F9
:101150008B819C810E94550E69837A838B839C834B
:10116000C80169817A810E94390D162F6F3F09F0FD
:101170003BCE81E28D0DEACE66246394E1E0F0E09F
:101180003BCF82E0682EE2E0F0E036CFB3E06B2E9A
:10119000E3E0F0E031CFA4E06A2EE4E0F0E02CCF11
:1011A000F5E06F2EE5E0F0E027CF81E021E030E0D0
:1011B000E9CEE6E06E2EE6E0F0E01ECF82E022E02F
:1011C00030E0E0CE77E0672EE7E0F0E015CF83E097
:1011D00023E030E0D7CE68E0662EE8E0F0E00CCF08
:1011E00085E025E030E0CECE4AE0642EEAE0F0E093
:1011F00003CF86E026E030E0C5CE3BE0632EEBE097
:10120000F0E0FACE87E027E030E0BCCE2CE0622EA2
:10121000ECE0F0E0F1CE88E028E030E0B3CE9DE0F5
:10122000692EEDE0F0E0E8CE8AE02AE030E0AACED8
:101230008BE02BE030E0A6CE8CE02CE030E0A2CEBC
:101240001F920F920FB60F9211242F933F934F933B
:101250005F936F937F938F939F93AF93BF93EF931E
:10126000FF9380917B0190917C01209179013091D5
:101270007A01820F931F90937C0180937B018FEF03
:1012800090E090937A01809379018FEF87BD8091F0
:10129000570190915801A0915901B0915A010196BE
:1012A000A11DB11D8093570190935801A09359013E
:1012B000B0935A0180915B0181110FC080918A0126
:1012C00090918B0120917B0130917C0182179307D3
:1012D00020F480911B01843089F0FF91EF91BF9140
:1012E000AF919F918F917F916F915F914F913F91BE
:1012F0002F910F900FBE0F901F901895E091030152
:10130000F09104010995009741F30E949F0C8823F6
:1013100051F0E0910101F0910201099510927C01D8
:1013200010927B01DACF0E94EE0F9C0199279093D7
:101330007A018093790127BDD0CF80FF11C0559AE3
:1013400081FF11C0549A82FF11C03B9A83FF11C0E4
:101350003A9A84FF11C03D9A85FF11C03C9A0895C6
:10136000559881FDEFCF549882FDEFCF3B9883FDD8
:10137000EFCF3A9884FDEFCF3D9885FDEFCF3C98B5
:1013800008951F921FB61F9211248F939F9310925E
:101390008100109285001092840081E080933401D6
:1013A0008093780110925B0110927C0093EA9093F5
:1013B0007A0080937B009F918F911F901FBE1F909A
:1013C00018951F920F920FB60F9211240F931F932F
:1013D0002F933F934F935F936F937F938F939F933D
:1013E000AF93BF93EF93FF93CF93DF9300D000D0E1
:1013F000CDB7DEB7209184003091850041E0409365
:101400005B01809134018823D9F1109285001092FC
:1014100084004093810010928C01109234018091DD
:1014200078018823A1F080917A0086FDFCCF80911D
:10143000780090917900909356018093550181E056
:1014400080937C0093EA90937A0080937B000F90C6
:101450000F900F900F90DF91CF91FF91EF91BF917F
:10146000AF919F918F917F916F915F914F913F913C
:101470002F911F910F910F900FBE0F901F901895F5
:10148000C9018758910984379940A0F010928100D2
:1014900010928500109284004093340140937801AB
:1014A00010925B0110927C0083EA80937A00409353
:1014B0007B00CDCF26583109A4EFB0E00E94530D38
:1014C00069837A838B839C838C012227332788301E
:1014D00008F465C0409334018091780181113CC0CB
:1014E00080915201E82FF0E0E258FE4F90918C017C
:1014F00090838F5F809352018C3009F0A8CF1092B7
:10150000810010928500109284004093780110921F
:101510005B0100918801109189018EE791E00E94A2
:10152000E70B0817190709F092CFE0918701E7FF51
:1015300048C098E79E0F933030F05398239810924C
:10154000B4001092B300E058EB3008F080CFF0E028
:10155000EF58FF4E0C944D0D80917A0086FDFCCF24
:101560008091780090917900909354018093530179
:1015700010927C0083EA80937A0081E080937B0064
:1015800090918C019923C1F01092810010928500F6
:10159000109284008093780110925B0158CF81E013
:1015A00090E09C0101C0220F0A95EAF780918C011E
:1015B000822B80938C014BCF1092780110925201B4
:1015C00046CFE0910501F091060163E571E08EE7F9
:1015D00091E009953CCF80917E01823009F481C071
:1015E00008F068C0882309F4BAC080917F01909107
:1015F000800190938E0180938D011092190180914A
:101600001B01863009F423CF539A239A1092B40019
:101610001092B30086E080931B0119CF80911B01CB
:10162000863079F0539A239A1092B4001092B30046
:101630000E94C0011092190110921A0186E0809355
:101640001B0120917E0181E090E002C0880F991F6C
:101650002A95E2F720918D0130918E018223932308
:10166000892B09F479C081E080931901F0CE82E0E2
:1016700080931B01ECCE85E080931B01E8CE81E0D6
:1016800080931B01E4CE10921B01E1CE80911B01DF
:10169000833009F4DCCE80911B01843009F4D7CE6D
:1016A000539A239A1092B4001092B30083E080936F
:1016B0001B01CDCE833061F1843009F0A0CF2091A1
:1016C000190180918401909183012330C1F010921F
:1016D0001A0123E02093190190938F0180939001C8
:1016E0008ECF90911901809181019130F9F0109283
:1016F0001A0191E0909319018093910180CF20917C
:1017000090012813E4CF20918F012913E0CF77CFE8
:101710009091190180918201923069F010921A0122
:1017200092E09093190180937D0169CF909191018E
:101730009813DDCF64CF90917D019813EFCF5FCFE9
:10174000F0E0E0E0099580916E008D7F80936E005F
:1017500016BCE0E0F0E709951092190178CE80916F
:101760001B01863009F073CE60918D0180EB90E013
:101770000E94061060918E0181EB90E00E9406109D
:101780006091910185E090E00E94061060917D01DA
:1017900089E090E00E94061060918F018CE090E05B
:1017A0000E9406106091900184E190E00E94061072
:1017B000539823981092B4001092B30081E0809364
:1017C0001B0180917E01882309F441CE18CFFC01D2
:1017D00020818FEF9FEF8227082E8295807F8025C2
:1017E000092E982F82958F7008268695982789272D
:1017F000880F880F880F802521818227082E8295E7
:10180000807F8025092E982F82958F7008268695D7
:1018100098278927880F880F880F802522818227A3
:10182000082E8295807F8025092E982F82958F70B3
:101830000826869598278927880F880F880F802586
:1018400023818227082E8295807F8025092E982F5C
:1018500082958F700826869598278927880F880F8C
:10186000880F802524818227082E8295807F8025FD
:10187000092E982F82958F7008268695982789279C
:10188000880F880F880F802525818227082E829552
:10189000807F8025092E982F82958F700826869547
:1018A00098278927880F880F880F8025268182270F
:1018B000082E8295807F8025092E982F82958F7023
:1018C0000826869598278927880F880F880F8025F6
:1018D00027818227082E8295807F8025092E982FC8
:1018E00082958F700826869598278927880F880FFC
:1018F000880F802520858227082E8295807F80256D
:10190000092E982F82958F7008268695982789270B
:10191000880F880F880F802521858227082E8295C1
:10192000807F8025092E982F82958F7008268695B6
:1019300098278927880F880F880F802508950FB66C
:10194000F894A4B1209151012A2B24B921E03091BF
:101950005101203029F0000025B1232B25B904C006
:1019600000000000000000C00000000000003095F2
:1019700025B1232325B92EEA2A95F1F72BEE30B7AE
:1019800035FF0AC0A4B930915101309525B1232308
:1019900025B90FBE80E0089500002A9581F721E067
:1019A00030915101203029F0000025B1232B25B9B9
:1019B00004C000000000000000C0000000000000A3
:1019C000309525B1232325B9000024E52A95F1F7A8
:1019D000FC018CE0619170E0660F771F61607260BE
:1019E0009AE041E050E09A0126233723232B3091DF
:1019F0005101203029F0000025B1232B25B904C066
:101A000000000000000000C0000000000000309551
:101A100025B1232325B9000021E52A95F1F7440FCC
:101A2000551F9A9501F78A95A9F620B7206120BF26
:101A3000A4B930915101309525B1232325B90FBEAA
:101A400081E008950E94C70182E690E0909306012C
:101A5000809305018FE590E090930401809303014A
:101A60006FE870E081E790E00E94C10290E080E0C2
:101A7000089597FB072E16F4009407D077FD09D040
:101A80000E94620D07FC05D03EF4909581959F4F12
:101A90000895709561957F4F0895EE0FFF1F059093
:101AA000F491E02D0994A29FB001B39FC001A39FC0
:101AB000700D811D1124911DB29F700D811D112487
:101AC000911D0895AA1BBB1B51E107C0AA1FBB1F94
:101AD000A617B70710F0A61BB70B881F991F5A95BA
:101AE000A9F780959095BC01CD0108955058BB276A
:101AF000AA270E948E0D0C94DF0E0E94D10E38F0A2
:101B00000E94D80E20F039F49F3F19F426F40C946B
:101B1000CE0E0EF4E095E7FB0C94C80EE92F0E9460
:101B2000F00E58F3BA17620773078407950720F081
:101B300079F4A6F50C94120F0EF4E0950B2EBA2F43
:101B4000A02D0B01B90190010C01CA01A0011124C3
:101B5000FF27591B99F0593F50F4503E68F11A166F
:101B6000F040A22F232F342F4427585FF3CF469500
:101B700037952795A795F0405395C9F77EF41F1622
:101B8000BA0B620B730B840BBAF09150A1F0FF0FEC
:101B9000BB1F661F771F881FC2F70EC0BA0F621FD8
:101BA000731F841F48F4879577956795B795F795C8
:101BB0009E3F08F0B0CF9395880F08F09927EE0F5D
:101BC0009795879508950E94F70D0C94DF0E0E945B
:101BD000D80E58F00E94D10E40F029F45F3F29F052
:101BE0000C94C80E51110C94130F0C94CE0E0E943D
:101BF000F00E68F39923B1F3552391F3951B550B20
:101C0000BB27AA2762177307840738F09F5F5F4FCF
:101C1000220F331F441FAA1FA9F335D00E2E3AF00E
:101C2000E0E832D091505040E695001CCAF72BD026
:101C3000FE2F29D0660F771F881FBB1F2617370777
:101C40004807AB07B0E809F0BB0B802DBF01FF27A9
:101C500093585F4F3AF09E3F510578F00C94C80EB0
:101C60000C94130F5F3FE4F3983ED4F38695779579
:101C70006795B795F7959F5FC9F7880F911D969562
:101C8000879597F90895E1E0660F771F881FBB1FBE
:101C9000621773078407BA0720F0621B730B840B6B
:101CA000BA0BEE1F88F7E09508950E945C0E6894C9
:101CB000B1110C94130F08950E94F80E88F09F57ED
:101CC00098F0B92F9927B751B0F0E1F0660F771F60
:101CD000881F991F1AF0BA95C9F714C0B13091F056
:101CE0000E94120FB1E008950C94120F672F782F05
:101CF0008827B85F39F0B93FCCF38695779567951B
:101D0000B395D9F73EF490958095709561957F4F86
:101D10008F4F9F4F0895E89409C097FB3EF490952C
:101D20008095709561957F4F8F4F9F4F9923A9F0B4
:101D3000F92F96E9BB279395F69587957795679543
:101D4000B795F111F8CFFAF4BB0F11F460FF1BC087
:101D50006F5F7F4F8F4F9F4F16C0882311F096E91A
:101D600011C0772321F09EE8872F762F05C06623C8
:101D700071F096E8862F70E060E02AF09A95660F81
:101D8000771F881FDAF7880F9695879597F908953A
:101D900097F99F6780E870E060E008959FEF80EC1E
:101DA000089500240A9416161706180609060895C1
:101DB00000240A9412161306140605060895092E27
:101DC0000394000C11F4882352F0BB0F40F4BF2B96
:101DD00011F460FF04C06F5F7F4F8F4F9F4F0895D6
:101DE00057FD9058440F551F59F05F3F71F04795CC
:101DF000880F97FB991F61F09F3F79F087950895B1
:101E0000121613061406551FF2CF4695F1DF08C0CF
:101E1000161617061806991FF1CF869571056105EC
:101E200008940895E894BB2766277727CB0197F994
:101E300008950E942C0F0C94DF0E0E94D10E38F0F2
:101E40000E94D80E20F0952311F00C94C80E0C942B
:101E5000CE0E11240C94130F0E94F00E70F3959F78
:101E6000C1F3950F50E0551F629FF001729FBB2791
:101E7000F00DB11D639FAA27F00DB11DAA1F649F2D
:101E80006627B00DA11D661F829F2227B00DA11DE0
:101E9000621F739FB00DA11D621F839FA00D611D66
:101EA000221F749F3327A00D611D231F849F600D87
:101EB000211D822F762F6A2F11249F5750409AF0B0
:101EC000F1F088234AF0EE0FFF1FBB1F661F771F3C
:101ED000881F91505040A9F79E3F510580F00C9407
:101EE000C80E0C94130F5F3FE4F3983ED4F386952D
:101EF00077956795B795F795E7959F5FC1F7FE2BA7
:101F0000880F911D9695879597F90895CF92DF9246
:101F1000EF92FF92CF93DF93CDB7DEB72A970FB63C
:101F2000F894DEBF0FBECDBF89879A87A985BA8591
:101F30002D913D914D915C9129833A834B835C8334
:101F4000232B242B252B41F424E239ED4BE557E0DC
:101F500029833A834B835C8369817A818B819C815D
:101F60002DE133EF41E050E00E94141069017A0145
:101F7000A7EAB1E49B01AC010E94331069837A8324
:101F80008B839C83ACEEB4EFA70196010E944110B5
:101F90009B01AC0189819A81AB81BC81820F931F27
:101FA000A41FB51FB7FF03C00197A109B048E98579
:101FB000FA8580839183A283B3839F772A960FB695
:101FC000F894DEBF0FBECDBFDF91CF91FF90EF90B1
:101FD000DF90CF9008950E94860F089587E091E0EA
:101FE0000E94860F0895B0E0A0E0809307019093CF
:101FF0000801A0930901B0930A010895F999FECF51
:1020000092BD81BDF89A992780B50895262FF99938
:10201000FECF1FBA92BD81BD20BD0FB6F894FA9ACB
:10202000F99A0FBE01960895052E97FB1EF40094B1
:102030000E942B1057FD07D00E94461007FC03D0CA
:102040004EF40C942B1050954095309521953F4FB0
:102050004F4F5F4F089590958095709561957F4F94
:102060008F4F9F4F08950E94530DA59F900DB49FD1
:10207000900DA49F800D911D11240895B7FF0C941D
:1020800033100E943310821B930B0895A1E21A2E85
:10209000AA1BBB1BFD010DC0AA1FBB1FEE1FFF1F0C
:1020A000A217B307E407F50720F0A21BB30BE40B5C
:1020B000F50B661F771F881F991F1A9469F76095A3
:1020C0007095809590959B01AC01BD01CF0108955D
:1020D000F894FFCF23030F03E302D902E0027D034C
:1020E0007203A30B270A270AA00B430B3F0B3B0BE2
:0820F000370B460B0E0BEB0A47
:0C20F800AAB101AE01AD01010000000022
:00000001FF
