:100000000C9434000C945D000C945D000C945D0025
:100010000C945D000C945D000C944A020C945D00FD
:100020000C945D000C945D000C945D000C946109CF
:100030000C945D000C945D000C94C0080C945D0061
:100040000C945D000C945D000C945D000C945D00BC
:100050000C945D000C945D000C945D000C9481097F
:100060000C945D000C945D0011241FBECFEFD8E00E
:10007000DEBFCDBF14BE0FB6F894A8958091600086
:10008000886180936000109260000FBE11E0A0E0D4
:10009000B1E0E8E3F0E202C005900D92AC30B107A8
:1000A000D9F721E0ACE0B1E001C01D92AC38B20755
:1000B000E1F70E94C20C0C9408100C940000FC01A3
:1000C00080818093000181E080930C01089582E299
:1000D00091E008958091510190915201A0915301B6
:1000E000B091540180930D0190930E01A0930F01E4
:1000F000B093100180918701909188018A9781F0D7
:100100008FEF8093210110922B018093220182E2D4
:1001100091E00E94870B90932D0180932C0108950C
:100120001092210180E0EFCF8091870190918801AA
:100130008A9709F48CC0409151015091520160910D
:1001400053017091540120910C0180910D01909107
:100150000E01A0910F01B0911001805C9F4FAF4F35
:10016000BF4F84179507A607B70738F19091210173
:10017000492F50E02130C9F1992309F465C09F3F10
:1001800009F468C08DEC989F812D1124282F2695A5
:1001900026958C7F820F292F281B213009F471C0EE
:1001A000223009F471C0233009F471C0243009F4FD
:1001B00071C0222309F462C0089580915101909189
:1001C0005201A0915301B091540180930D0190937D
:1001D0000E01A0930F01B09310018FEF80932101C6
:1001E0004FEF50E09FEF2130A9F580910001282FBB
:1001F00030E02F5F3F4F2417350779F1241735077B
:10020000FCF4409151015091520160915301709161
:10021000540140930D0150930E0160930F017093B0
:1002200010018F5F809321018093220182E291E08F
:100230000E94870B90932D0180932C0190912101B6
:1002400010920C0191119BCF85E10C943D09909186
:10025000210192CF85E00C943D09409151015091CC
:100260005201609153017091540140930D015093DC
:100270000E0160930F0170931001E2CF84E10C94A2
:100280003D0981E00C943D0984E00C943D0980E136
:100290000C943D0981E10C943D09089590E080E0C3
:1002A00008950895559854983B9A3A9A3D983C98E9
:1002B0000895559A549A3B983A983D983C980895D9
:1002C000559854983B983A983D983C980895BF9219
:1002D000CF92DF92EF92FF920F931F93CF93DF9312
:1002E000F89414B817B81AB815B818B81BB8529AB9
:1002F0005A9A14BC85E085BD8FEF87BD82E080935C
:100300006E0010928000109281002FE83BE0309345
:1003100089002093880080936F005398239891EA76
:100320009093B0008093B1001092B4001092B3008B
:100330008BE080BF83E080937F0086E080937C0029
:1003400083E880937A0080917A00806480937A00B9
:1003500080917A0086FDFCCF10927C0083EA809326
:100360007A0081E080937B0081E090E00E949E0F04
:100370008F3F11F08093660010925501C1E0C09349
:100380002E01C093720110924C011092860180E9F7
:1003900090E00E949E0F80934B0180914B018873E7
:1003A00011F0C0934B0110927601109275018FEFFE
:1003B00090E0909374018093730110925101109218
:1003C0005201109253011092540181E08093140164
:1003D00082E49FE0909385018093840180EB90E01C
:1003E0000E949E0FC82F81EB90E00E949E0FD82F95
:1003F000D0938801C093870185E090E00E949E0F12
:1004000080938B0189E090E00E949E0F809377019A
:100410008CE090E00E949E0F8093890184E190E03F
:100420000E949E0F80938A0106E511E08FE2E82E7C
:1004300081E0F82E92E7C92E91E0D92EC0E2D0E0FB
:10044000CE010E949E0FB82ECE0101960E949E0FF3
:100450009B2DF801819391938F01CE01C0960E944C
:100460009E0FB82ECE01C1960E949E0F9B2DF701C4
:10047000819391937F012296C016D10609F7789453
:10048000DF91CF911F910F91FF90EF90DF90CF9070
:10049000BF9008950F920FB60F921F9211248F9361
:1004A0000FB6F894A89580916000886180936000F1
:1004B000109260000FBE8F911F900F900FBE0F9093
:1004C00018953C01EB0110E099249A9484E0C82E21
:1004D00096E0A92E23E8B22E38E1D32E49E2E42E8D
:1004E000E0911401E730E0F7F0E0E65FFF4E0C9496
:1004F000ED0C111102C0F3010995C092140111E035
:10050000FE010995EDCF809155018111E9C0F89464
:10051000A0927C00B0927A0080917A0080648093EF
:100520007A0080917A0086FDFCCF809178009091CE
:10053000790078948B3AE2E09E070CF0CEC08938BF
:10054000F2E09F070CF0CFC0873692400CF4C8C091
:10055000559A549A3B9A3A9A3D983C98C1CF0E943A
:100560005201EFECF7E03197F1F700C000000E9474
:100570006001FFEF21EE84E0F15020408040E1F780
:1005800000C00000ADCFF89480B7877F80BF809116
:100590007A008F7780937A0014B817B81AB815B814
:1005A00018B81BB80FB6F894A895D09260000FBE8B
:1005B000E09260008091600080648093600083B767
:1005C000817F846083BFF89483B7816083BF789410
:1005D000889583B78E7F83BF789410925501529A85
:1005E0005A9A80917A00806880937A0087E592E039
:1005F0000197F1F700C0000080B7886180BF559A6D
:10060000549A3B9A3A9A3D9A3C9AEFE1FEE431972C
:10061000F1F700C0000080915501811152C00E9485
:1006200060015ECF80911201811121C01092B30050
:100630001092B4001092130153CF4899F0CF559AFD
:1006400054983B983A983D983C988FEC97E00197E6
:10065000F1F700C000000E9460019FEFE1EEF4E0BE
:100660009150E040F040E1F700C0000039CF909198
:10067000120180911301981709F432CF8091120171
:1006800080931301809112018130A1F180911201B8
:100690001092B3009092B4008230E9F19092B300CE
:1006A0009092B4008FE295E70197F1F700C0000047
:1006B00080918A01909189019093B3008093B40056
:1006C0000FCF0E945901FFEF20E782E0F150204058
:1006D0008040E1F700C00000A2CF0E94520100CF8D
:1006E0000E945901FDCE559854983B983A983D9AEE
:1006F0003C9AF6CE9092B3001092B4008FE295E748
:100700000197F1F700C0000080918B018093B30046
:100710001092B400E5CEEFE2F5E73197F1F700C0B3
:100720000000809177011092B3008093B400D8CE7E
:100730009C01892B49F08FEC97E00197F1F700C0FD
:10074000000021503109B9F708958093B3006093F8
:10075000B40008958FEF8093B3008093B4008FECC2
:1007600097E00197F1F700C000008FEC97E0019748
:10077000F1F700C000008FEC97E00197F1F700C09F
:1007800000008FEC97E00197F1F700C000008FECBC
:1007900097E00197F1F700C000008FEC97E0019718
:1007A000F1F700C000008FEC97E00197F1F700C06F
:1007B00000008FEC97E00197F1F700C000008FEC8C
:1007C00097E00197F1F700C000008FEC97E00197E8
:1007D000F1F700C000008FEC97E00197F1F700C03F
:1007E00000008FEC97E00197F1F700C000008FEC5C
:1007F00097E00197F1F700C000008FEC97E00197B8
:10080000F1F700C000008FEC97E00197F1F700C00E
:10081000000008958091550181111EC0F89487E071
:1008200080937C0083E880937A0080917A008064D2
:1008300080937A0080917A0086FDFCCF80917800C9
:100840009091790010927C0023EA20937A0021E0B5
:1008500020937B00789408958FEF9FEF0895809107
:10086000550181111EC0F89488EC80937C0087E8C4
:1008700080937A0080917A00806480937A008091DE
:100880007A0086FDFCCF80917800909179001092DB
:100890007C0023EA20937A0021E020937B00789467
:1008A00008958FEF9FEF08951F93CF93DF93F0E0AC
:1008B000E0E080E016E0D3E8C3EA71E0A1E0B0E058
:1008C00060E8F89410937C00D0937A0090917A00BD
:1008D000906490937A0090917A0096FDFCCF2091DD
:1008E000780030917900217090917A009064909313
:1008F0007A0090917A0096FDFCCF4091780050915B
:10090000790010927C00C0937A0070937B007894F9
:100910004170241302C06150A1F6222339F09D01D9
:100920000E2E01C0220F0A94EAF7822B3196E8308E
:10093000F10531F6DF91CF911F91089520910101CA
:10094000822F880F880F880F28279091110181E04E
:10095000890F80931101822F829586958770822757
:1009600096959695892780930101089580930101BA
:10097000089580915501811116C0F89486E0809306
:100980007C0083E880937A0080917A008064809371
:100990007A0080917A0086FDFCCF8091780090915A
:1009A0007900789408958FEF9FEF08952F923F92EA
:1009B0004F925F926F927F928F929F92AF92BF926F
:1009C000CF92DF92EF92FF920F931F93CF93DF931B
:1009D000CDB7DEB728970FB6F894DEBF0FBECDBFF8
:1009E0007C01DC0112960D90BC91A02DB887AF83DD
:1009F000A438E3E0BE070CF477C0DC01ED90FC9076
:100A00008091560190915701DD24DA948E159F054F
:100A100008F43BC200915801109159010E151F05B1
:100A200008F44AC300915A0110915B010E151F058D
:100A300008F447C300915C0110915D010E151F057C
:100A400008F444C300915E0110915F010E151F056B
:100A500008F441C300916001109161010E151F055A
:100A600008F43EC300916201109163010E151F0549
:100A700008F43FC300916401109165010E151F0534
:100A800008F440C300916601109167010E151F051F
:100A900008F441C300916801109169010E151F050A
:100AA00008F446C200916A0110916B010E151F05F2
:100AB00008F43AC300916C0110916D010E151F05E9
:100AC00008F43BC300916E0110916F010E151F05D4
:100AD00008F43CC300917001109171010E151F05BF
:100AE00008F43DC31AE520C180912F019091300197
:100AF0008A179B0708F4B1C10091310110913201AE
:100B00000A171B0708F4F1C2009133011091340158
:100B10000A171B0708F4F2C2009135011091360143
:100B20000A171B0708F4F3C200913701109138012E
:100B30000A171B0708F4F8C10091390110913A0116
:100B40000A171B0708F4ECC200913B0110913C010D
:100B50000A171B0708F4EDC200913D0110913E01F8
:100B60000A171B0708F4EEC200913F0110914001E3
:100B70000A171B0708F4EFC20091410110914201CE
:100B80000A171B0708F49BC100914301109144010F
:100B90000A171B0708F4E8C20091450110914601AD
:100BA0000A171B0708F4E4C200914701109148019D
:100BB0000A171B0708F4E0C20091490110914A018D
:100BC0008DE02DE030E00A171B0708F47BC1412CB3
:100BD000512C30ED3D8340E44E832CE0C22ED12CCD
:100BE000F601EE0FFF1FE15DFE4F80819181D8017C
:100BF000A81BB90B9D0150E040E029833A834B8349
:100C00005C83CA01BD010E942B0E9B01AC0169836C
:100C10007A838B839C8369817A818B819C810E94FA
:100C2000170D5B016C018F819885092E000CAA0BB2
:100C3000BB0B89839A83AB83BC83BC01CD010E942B
:100C40002D0E3B014C01980150E040E029833A838E
:100C50004B835C83CA01B8010E942B0E1B018C01DF
:100C600092014D815E81A982BA82CB82DC82698148
:100C70007A818B819C810E94B90E9B01AC012982F3
:100C80003A820B831C8369817A818B819C810E94CB
:100C9000160D9B01AC0169827A828B829C826981EC
:100CA0007A818B819C810E94160D20E030E040E229
:100CB00051E469837A838B839C8369817A818B81F8
:100CC0009C810E94B90E69837A838B839C8369819E
:100CD0007A818B819C810E94F50D8B01A982BA8259
:100CE000CB82DC8269817A818B819C810E94F50DA7
:100CF00069837A838B839C83C80169817A810E948E
:100D0000D90CD62E4F8158854D3B52400CF409C169
:100D1000D701ED90FC9080915601909157018E156E
:100D20009F0508F077CE10E0BFEF81E2810FDB1660
:100D300009F4ACC02D2D30E050E040E029833A8327
:100D40004B835C83CA01B9010E942B0E6B017C01AD
:100D5000812F90E0B0E0A0E089839A83AB83BC83CD
:100D6000BC01CD010E942B0E4B015C012F81388507
:100D7000032E000C440B550B29833A834B835C8371
:100D8000CA01B9010E942D0E8B018E839D839B01A8
:100D9000AC0160E070E081E694E40E94160D9601DB
:100DA000A70169837A838B839C8369817A818B8194
:100DB0009C810E94B90E6B017C0120E030E04FE283
:100DC00054E409831A838E818B839D819C8369817E
:100DD0007A818B819C810E94160D9401A501698303
:100DE0007A838B839C8369817A818B819C810E9429
:100DF000B90E9B01AC01C982DA82EB82FC82698167
:100E00007A818B819C810E94170D20E030E048E4BC
:100E100053E469837A838B839C8369817A818B8194
:100E20009C810E94830D20E030E044E052E469831D
:100E30007A838B839C8369817A818B819C810E94D8
:100E4000170D69837A838B839C8369817A818B8177
:100E50009C810E94FC0D862F19C0AD3BB240ACF0C6
:100E6000D701ED90FC908091560190915701D12CC3
:100E70008E159F0508F0CECD812C912CA12CB12C84
:100E8000C12CD12CE12CF12C71CF81E228960FB628
:100E9000F894DEBF0FBECDBFDF91CF911F910F91B0
:100EA000FF90EF90DF90CF90BF90AF909F908F908A
:100EB0007F906F905F904F903F902F90089589E0C2
:100EC00029E030E06901F1E0CF1AD108282F30E0A5
:100ED00050E040E029833A834B835C83CA01B90127
:100EE0000E942B0E20E030E040E05FE369837A83CC
:100EF0008B839C8369817A818B819C810E94B90E4E
:100F000020E030E0A90169837A838B839C83698127
:100F10007A818B819C810E94170D2B018D839E838A
:100F20005FCE81E2860FB2CF84E024E030E0CACF0A
:100F300059E0652EE9E0F0E0EE0FFF1FEC5AFE4F9E
:100F400080819181D801A81BB90B9D0150E040E040
:100F500029833A834B835C83CA01BD010E942B0E17
:100F60009B01AC0169837A838B839C8369817A813D
:100F70008B819C810E94170D962EA72EB82EC92E0C
:100F8000C701FF0CAA0BBB0B89839A83AB83BC837D
:100F9000BC01CD010E942D0E762E872E7C0198017A
:100FA00050E040E029833A834B835C83CA01B80157
:100FB0000E942B0E2B018C01862D90E0B0E0A0E06A
:100FC00089839A83AB83BC83BC01CD010E942B0E25
:100FD00020E030E040E05FE369837A838B839C8389
:100FE00069817A818B819C810E94B90E20E030E07A
:100FF000A90169837A838B839C8369817A818B8140
:101000009C810E94170D292D3A2D4B2D5C2D698353
:101010007A838B839C8369817A818B819C810E94F6
:10102000B90E9B01AC0149825A820B831C836981F2
:101030007A818B819C810E94160D9B01AC01798283
:101040008A82EB82FC8269817A818B819C810E94F9
:10105000160D20E030E040E251E469837A838B830F
:101060009C8369817A818B819C810E94B90E6983FE
:101070007A838B839C8369817A818B819C810E9496
:10108000F50D8B019982AA82BB82CC8269817A811B
:101090008B819C810E94F50D69837A838B839C836D
:1010A000C80169817A810E94D90C162F6F3F09F01F
:1010B0003BCE81E28D0DEACE66246394E1E0F0E060
:1010C0003BCF82E0682EE2E0F0E036CFB3E06B2E5B
:1010D000E3E0F0E031CFA4E06A2EE4E0F0E02CCFD2
:1010E000F5E06F2EE5E0F0E027CF81E021E030E091
:1010F000E9CEE6E06E2EE6E0F0E01ECF82E022E0F0
:1011000030E0E0CE77E0672EE7E0F0E015CF83E057
:1011100023E030E0D7CE68E0662EE8E0F0E00CCFC8
:1011200085E025E030E0CECE4AE0642EEAE0F0E053
:1011300003CF86E026E030E0C5CE3BE0632EEBE057
:10114000F0E0FACE87E027E030E0BCCE2CE0622E63
:10115000ECE0F0E0F1CE88E028E030E0B3CE9DE0B6
:10116000692EEDE0F0E0E8CE8AE02AE030E0AACE99
:101170008BE02BE030E0A6CE8CE02CE030E0A2CE7D
:101180001F920F920FB60F9211242F933F934F93FC
:101190005F936F937F938F939F93AF93BF93EF93DF
:1011A000FF938091750190917601209173013091A8
:1011B0007401820F931F90937601809375018FEFD6
:1011C00090E090937401809373018FEF87BD8091BD
:1011D000510190915201A0915301B0915401019697
:1011E000A11DB11D8093510190935201A093530111
:1011F000B09354018091550181110FC080918401F9
:1012000090918501209175013091760182179307A5
:1012100020F480911401843089F0FF91EF91BF9107
:10122000AF919F918F917F916F915F914F913F917E
:101230002F910F900FBE0F901F901895E091040111
:10124000F09105010995009741F30E943F0C882316
:1012500051F0E0910201F09103010995109276019D
:1012600010927501DACF0E948E0F9C0199279093FE
:1012700074018093730127BDD0CF80FF11C0559AB0
:1012800081FF11C0549A82FF11C03B9A83FF11C0A5
:101290003A9A84FF11C03D9A85FF11C03C9A089587
:1012A000559881FDEFCF549882FDEFCF3B9883FD99
:1012B000EFCF3A9884FDEFCF3D9885FDEFCF3C9876
:1012C00008951F921FB61F9211248F939F9310921F
:1012D0008100109285001092840081E080932E019D
:1012E000809372011092550110927C0093EA9093C2
:1012F0007A0080937B009F918F911F901FBE1F905B
:1013000018951F920F920FB60F9211240F931F93EF
:101310002F933F934F935F936F937F938F939F93FD
:10132000AF93BF93EF93FF93CF93DF9300D000D0A1
:10133000CDB7DEB7209184003091850041E0409325
:10134000550180912E018823D9F1109285001092C9
:101350008400409381001092860110922E018091AA
:1013600072018823A1F080917A0086FDFCCF8091E4
:101370007800909179009093500180934F0181E023
:1013800080937C0093EA90937A0080937B000F9087
:101390000F900F900F90DF91CF91FF91EF91BF9140
:1013A000AF919F918F917F916F915F914F913F91FD
:1013B0002F911F910F910F900FBE0F901F901895B6
:1013C000C9018758910984379940A0F01092810093
:1013D000109285001092840040932E014093720178
:1013E0001092550110927C0083EA80937A0040931A
:1013F0007B00CDCF26583109A4EFB0E00E94F30C5A
:1014000069837A838B839C838C01222733278830DE
:1014100008F465C040932E018091720181113CC097
:1014200080914C01E82FF0E0E858FE4F9091860142
:1014300090838F5F80934C018C3009F0A8CF10927D
:1014400081001092850010928400409372011092E6
:101450005501009182011091830188E791E00E947B
:10146000870B0817190709F092CFE0918101E7FF78
:1014700048C098E79E0F933030F05398239810920D
:10148000B4001092B300E058EB3008F080CFF0E0E9
:10149000EF5EFF4E0C94ED0C80917A0086FDFCCF40
:1014A000809178009091790090934E0180934D0146
:1014B00010927C0083EA80937A0081E080937B0025
:1014C000909186019923C1F01092810010928500BD
:1014D00010928400809372011092550158CF81E0E0
:1014E00090E09C0101C0220F0A95EAF780918601E5
:1014F000822B809386014BCF1092720110924C0187
:1015000046CFE0910601F09107016DE471E088E7B4
:1015100091E009953CCF80917801823009F481C037
:1015200008F068C0882309F4BAC0809179019091CD
:101530007A01909388018093870110921201809123
:101540001401863009F423CF539A239A1092B400E1
:101550001092B30086E08093140119CF809114019A
:10156000863079F0539A239A1092B4001092B30007
:101570000E946001109212011092130186E0809384
:1015800014012091780181E090E002C0880F991F3A
:101590002A95E2F7209187013091880182239323D5
:1015A000892B09F479C081E080931201F0CE82E0AA
:1015B00080931401ECCE85E080931401E8CE81E0A5
:1015C00080931401E4CE10921401E1CE80911401B5
:1015D000833009F4DCCE80911401843009F4D7CE35
:1015E000539A239A1092B4001092B30083E0809330
:1015F0001401CDCE833061F1843009F0A0CF209169
:10160000120180917E0190917D012330C1F01092F2
:10161000130123E0209312019093890180938A01A2
:101620008ECF9091120180917B019130F9F0109250
:10163000130191E09093120180938B0180CF209150
:101640008A012813E4CF209189012913E0CF77CFB5
:101650009091120180917C01923069F010921301F7
:1016600092E0909312018093770169CF90918B0162
:101670009813DDCF64CF909177019813EFCF5FCFB0
:10168000F0E0E0E0099580916E008D7F80936E0020
:1016900016BCE0E0F0E709951092120178CE809137
:1016A0001401863009F073CE6091870180EB90E0E1
:1016B0000E94A60F6091880181EB90E00E94A60F26
:1016C00060918B0185E090E00E94A60F6091770108
:1016D00089E090E00E94A60F609189018CE090E083
:1016E0000E94A60F60918A0184E190E00E94A60FFB
:1016F000539823981092B4001092B30081E0809325
:10170000140180917801882309F441CE18CFFC019F
:1017100020818FEF9FEF8227082E8295807F802582
:10172000092E982F82958F700826869598278927ED
:10173000880F880F880F802521818227082E8295A7
:10174000807F8025092E982F82958F700826869598
:1017500098278927880F880F880F80252281822764
:10176000082E8295807F8025092E982F82958F7074
:101770000826869598278927880F880F880F802547
:1017800023818227082E8295807F8025092E982F1D
:1017900082958F700826869598278927880F880F4D
:1017A000880F802524818227082E8295807F8025BE
:1017B000092E982F82958F7008268695982789275D
:1017C000880F880F880F802525818227082E829513
:1017D000807F8025092E982F82958F700826869508
:1017E00098278927880F880F880F802526818227D0
:1017F000082E8295807F8025092E982F82958F70E4
:101800000826869598278927880F880F880F8025B6
:1018100027818227082E8295807F8025092E982F88
:1018200082958F700826869598278927880F880FBC
:10183000880F802520858227082E8295807F80252D
:10184000092E982F82958F700826869598278927CC
:10185000880F880F880F802521858227082E829582
:10186000807F8025092E982F82958F700826869577
:1018700098278927880F880F880F802508950FB62D
:10188000F894A4B120914B012A2B24B921E0309186
:101890004B01203029F0000025B1232B25B904C0CD
:1018A00000000000000000C00000000000003095B3
:1018B00025B1232325B92EEA2A95F1F72BEE30B76F
:1018C00035FF0AC0A4B930914B01309525B12323CF
:1018D00025B90FBE80E0089500002A9581F721E028
:1018E00030914B01203029F0000025B1232B25B980
:1018F00004C000000000000000C000000000000064
:10190000309525B1232325B9000024E52A95F1F768
:10191000FC018CE0619170E0660F771F616072607E
:101920009AE041E050E09A0126233723232B30919F
:101930004B01203029F0000025B1232B25B904C02C
:1019400000000000000000C0000000000000309512
:1019500025B1232325B9000021E52A95F1F7440F8D
:10196000551F9A9501F78A95A9F620B7206120BFE7
:10197000A4B930914B01309525B1232325B90FBE71
:1019800081E008950E94670187E690E09093050149
:10199000809304018FE590E0909307018093060106
:1019A00064E970E08AE690E00E94610290E080E0E5
:1019B000089597FB072E16F4009407D077FD09D001
:1019C0000E94020D07FC05D03EF4909581959F4F33
:1019D0000895709561957F4F0895EE0FFF1F059054
:1019E000F491E02D0994A29FB001B39FC001A39F81
:1019F000700D811D1124911DB29F700D811D112448
:101A0000911D0895AA1BBB1B51E107C0AA1FBB1F54
:101A1000A617B70710F0A61BB70B881F991F5A957A
:101A2000A9F780959095BC01CD0108955058BB272A
:101A3000AA270E942E0D0C947F0E0E94710E38F082
:101A40000E94780E20F039F49F3F19F426F40C948C
:101A50006E0E0EF4E095E7FB0C94680EE92F0E94E1
:101A6000900E58F3BA17620773078407950720F0A2
:101A700079F4A6F50C94B20E0EF4E0950B2EBA2F65
:101A8000A02D0B01B90190010C01CA01A001112484
:101A9000FF27591B99F0593F50F4503E68F11A1630
:101AA000F040A22F232F342F4427585FF3CF4695C1
:101AB00037952795A795F0405395C9F77EF41F16E3
:101AC000BA0B620B730B840BBAF09150A1F0FF0FAD
:101AD000BB1F661F771F881FC2F70EC0BA0F621F99
:101AE000731F841F48F4879577956795B795F79589
:101AF0009E3F08F0B0CF9395880F08F09927EE0F1E
:101B00009795879508950E94970D0C947F0E0E94DB
:101B1000780E58F00E94710E40F029F45F3F29F0D2
:101B20000C94680E51110C94B30E0C946E0E0E941E
:101B3000900E68F39923B1F3552391F3951B550B40
:101B4000BB27AA2762177307840738F09F5F5F4F90
:101B5000220F331F441FAA1FA9F335D00E2E3AF0CF
:101B6000E0E832D091505040E695001CCAF72BD0E7
:101B7000FE2F29D0660F771F881FBB1F2617370738
:101B80004807AB07B0E809F0BB0B802DBF01FF276A
:101B900093585F4F3AF09E3F510578F00C94680ED1
:101BA0000C94B30E5F3FE4F3983ED4F3869577959B
:101BB0006795B795F7959F5FC9F7880F911D969523
:101BC000879597F90895E1E0660F771F881FBB1F7F
:101BD000621773078407BA0720F0621B730B840B2C
:101BE000BA0BEE1F88F7E09508950E94FC0D6894EB
:101BF000B1110C94B30E08950E94980E88F09F576F
:101C000098F0B92F9927B751B0F0E1F0660F771F20
:101C1000881F991F1AF0BA95C9F714C0B13091F016
:101C20000E94B20EB1E008950C94B20E672F782F87
:101C30008827B85F39F0B93FCCF3869577956795DB
:101C4000B395D9F73EF490958095709561957F4F47
:101C50008F4F9F4F0895E89409C097FB3EF49095ED
:101C60008095709561957F4F8F4F9F4F9923A9F075
:101C7000F92F96E9BB279395F69587957795679504
:101C8000B795F111F8CFFAF4BB0F11F460FF1BC048
:101C90006F5F7F4F8F4F9F4F16C0882311F096E9DB
:101CA00011C0772321F09EE8872F762F05C0662389
:101CB00071F096E8862F70E060E02AF09A95660F42
:101CC000771F881FDAF7880F9695879597F90895FB
:101CD00097F99F6780E870E060E008959FEF80ECDF
:101CE000089500240A941616170618060906089582
:101CF00000240A9412161306140605060895092EE8
:101D00000394000C11F4882352F0BB0F40F4BF2B56
:101D100011F460FF04C06F5F7F4F8F4F9F4F089596
:101D200057FD9058440F551F59F05F3F71F047958C
:101D3000880F97FB991F61F09F3F79F08795089571
:101D4000121613061406551FF2CF4695F1DF08C090
:101D5000161617061806991FF1CF869571056105AD
:101D600008940895E894BB2766277727CB0197F955
:101D700008950E94CC0E0C947F0E0E94710E38F0D4
:101D80000E94780E20F0952311F00C94680E0C94AC
:101D90006E0E11240C94B30E0E94900E70F3959F5A
:101DA000C1F3950F50E0551F629FF001729FBB2752
:101DB000F00DB11D639FAA27F00DB11DAA1F649FEE
:101DC0006627B00DA11D661F829F2227B00DA11DA1
:101DD000621F739FB00DA11D621F839FA00D611D27
:101DE000221F749F3327A00D611D231F849F600D48
:101DF000211D822F762F6A2F11249F5750409AF071
:101E0000F1F088234AF0EE0FFF1FBB1F661F771FFC
:101E1000881F91505040A9F79E3F510580F00C94C7
:101E2000680E0C94B30E5F3FE4F3983ED4F38695AE
:101E300077956795B795F795E7959F5FC1F7FE2B67
:101E4000880F911D9695879597F90895CF92DF9207
:101E5000EF92FF92CF93DF93CDB7DEB72A970FB6FD
:101E6000F894DEBF0FBECDBF89879A87A985BA8552
:101E70002D913D914D915C9129833A834B835C83F5
:101E8000232B242B252B41F424E239ED4BE557E09D
:101E900029833A834B835C8369817A818B819C811E
:101EA0002DE133EF41E050E00E94B40F69017A0167
:101EB000A7EAB1E49B01AC010E94D30F69837A8346
:101EC0008B839C83ACEEB4EFA70196010E94E10FD7
:101ED0009B01AC0189819A81AB81BC81820F931FE8
:101EE000A41FB51FB7FF03C00197A109B048E9853A
:101EF000FA8580839183A283B3839F772A960FB656
:101F0000F894DEBF0FBECDBFDF91CF91FF90EF9071
:101F1000DF90CF9008950E94260F089588E091E009
:101F20000E94260F0895B0E0A0E0809308019093EE
:101F30000901A0930A01B0930B010895F999FECF0E
:101F400092BD81BDF89A992780B50895262FF999F9
:101F5000FECF1FBA92BD81BD20BD0FB6F894FA9A8C
:101F6000F99A0FBE01960895052E97FB1EF4009472
:101F70000E94CB0F57FD07D00E94E60F07FC03D04D
:101F80004EF40C94CB0F50954095309521953F4FD2
:101F90004F4F5F4F089590958095709561957F4F55
:101FA0008F4F9F4F08950E94F30CA59F900DB49FF3
:101FB000900DA49F800D911D11240895B7FF0C94DE
:101FC000D30F0E94D30F821B930B0895A1E21A2E08
:101FD000AA1BBB1BFD010DC0AA1FBB1FEE1FFF1FCD
:101FE000A217B307E407F50720F0A21BB30BE40B1D
:101FF000F50B661F771F881F991F1A9469F7609564
:102000007095809590959B01AC01BD01CF0108951D
:10201000F894FFCFC302AF028302790280021D034E
:102020001203430BC709C709400BE30ADF0ADB0AA7
:08203000D70AE60AAE0A8B0A8A
:0C203800FFAA51014E014D010100000003
:00000001FF
