:100000000C9434000C945D000C945D000C945D0025
:100010000C945D000C945D000C94AE030C945D0098
:100020000C945D000C945D000C945D000C94C50A6A
:100030000C945D000C945D000C94240A0C945D00FB
:100040000C945D000C945D000C945D000C945D00BC
:100050000C945D000C945D000C945D000C94E50A1A
:100060000C945D000C945D0011241FBECFEFD8E00E
:10007000DEBFCDBF14BE0FB6F894A8958091600086
:10008000886180936000109260000FBE11E0A0E0D4
:10009000B1E0EEEDF3E202C005900D92A031B107A0
:1000A000D9F721E0A0E1B1E001C01D92A138B2076B
:1000B000E1F70E94260E0C94DB110C940000809155
:1000C000460190914701A0914801B0914901809368
:1000D000100190931101A0931201B093130185E1D7
:1000E0000E94A10A0E940E0560916C0180E00E94AE
:1000F00009050E94B8052AE0829FC00111240E94D0
:10010000FC0480E00C94A10AAF92BF92CF92DF92E0
:10011000EF92FF920F931F93CF93DF9300D000D005
:1001200000D0CDB7DEB75B018C011A821982C12CD9
:10013000D12C76010E946E05AC01019609F4A2C093
:10014000052E000C660B770BC40ED51EE61EF71E9F
:1001500089819A8101969A838983843F914051F7DE
:10016000C701B60124EF31E040E050E00E94450EA7
:10017000C90160910201709103012617370708F049
:1001800088C0B0E0A0E089839A83AB83BC83B901C7
:10019000CD010E94AA0F7B018E839D8323E333E36D
:1001A00043E75FE36983FA828B839C8369817A8169
:1001B0008B819C810E94611069837A838B839C83ED
:1001C00069817A818B819C810E94CE1069837A83B8
:1001D0008B839C8369817A818B819C810E947B0FB8
:1001E000709303016093020126E636E646E85FE37A
:1001F000E982FA829E819B83AD81AC8369817A8199
:100200008B819C810E94611069837A838B839C839C
:1002100069817A818B819C810E94CE1069837A8367
:100220008B839C8369817A818B819C810E947B0F67
:1002300070931601609315018091140181119AC089
:1002400020E030E040E05FE3A982BA820B831C83A8
:1002500069817A818B819C810E945C1018160CF454
:10026000B5C026960FB6F894DEBF0FBECDBFDF91A6
:10027000CF911F910F91FF90EF90DF90CF90BF90A3
:10028000AF90089589819A81843F914008F452CFBC
:1002900067CF60911501709116016217730760F6C0
:1002A000B0E0A0E089839A83AB83BC83B901CD0120
:1002B0000E94AA0F7B018E839D8323E333E343E7F0
:1002C0005FE36983FA828B839C8369817A818B8166
:1002D0009C810E94611069837A838B839C836981EE
:1002E0007A818B819C810E94CE1069837A838B8373
:1002F0009C8369817A818B819C810E947B0F7093A2
:1003000003016093020126E636E646E85FE3E982F0
:10031000FA829E819B83AD81AC8369817A818B81D6
:100320009C810E94611069837A838B839C8369819D
:100330007A818B819C810E94CE1069837A838B8322
:100340009C8369817A818B819C810E947B0F709351
:100350001601609315019091010181E0891B809342
:10036000010160E080E00E9409058091140188236A
:1003700009F466CF813009F074CF20E030E040E02E
:100380005FE3A982BA820B831C8369817A818B81A6
:100390009C810E94FD0E18160CF463CF109214017C
:1003A00081E00E94A10A8091010181115ACF8091C0
:1003B0000001882309F455CF0E940E0560E080916A
:1003C00080010E940905109200014BCF81E08093CB
:1003D000140180E10E94A10AB0910101B983B130FA
:1003E00009F03FCF80910001813009F43ACF0E949B
:1003F0000E0560916C0180E00E940905298120931F
:1004000000012FCF0F931F93CF93DF9300D000D025
:10041000CDB7DEB78091460190914701A091480188
:10042000B091490140911001509111016091120168
:1004300070911301841B950BA60BB70B80931F01C2
:1004400090932001A0932101B0932201803891055F
:10045000A105B10580F0409146015091470160919E
:10046000480170914901409310015093110160932C
:100470001201709313018091460190914701A09160
:100480004801B09149018C019D01041B150B260BFD
:10049000370B09831A832B833C83C901B8010E945F
:1004A000AA0F20E030E040E05CE369837A838B832D
:1004B0009C8369817A818B819C810E946110362F97
:1004C000272F462F572FBC0140931B0150931C012F
:1004D00060931D0170931E0139832A838B839C8353
:1004E00069817A818B819C810F900F900F900F9082
:1004F000DF91CF911F910F910C948400CF92DF92E6
:10050000EF92FF92CF93DF93D0E0C0E0C12CD12CCB
:1005100076010E946E059C012F3F3207E9F0C90168
:10052000330FAA0BBB0BC80ED91EEA1EFB1E219669
:10053000C43F81E0D80769F7C701B60124EF31E075
:1005400040E050E00E94450EC901DF91CF91FF903D
:10055000EF90DF90CF900895C43F81E0D807C8F2B4
:10056000EBCF089590E080E0089508955598549851
:100570003B9A3A9A3D983C980895559A549A3B98DC
:100580003A983D983C980895559854983B983A98D5
:100590003D983C980895BF92CF92DF92EF92FF92E0
:1005A0000F931F93CF93DF93F89414B817B81AB82A
:1005B00015B818B81BB8529A5A9A14BC85E085BD74
:1005C0008FEF87BD82E080936E00109280001092C2
:1005D00081002FE83BE030938900209388008093CE
:1005E0006F005398239891EA9093B0008093B100E4
:1005F0001092B4001092B3008BE080BF83E0809330
:100600007F0086E080937C0083E880937A0080916D
:100610007A00806480937A0080917A0086FDFCCF16
:1006200010927C0083EA80937A0081E080937B00C3
:1006300081E090E00E9493118F3F11F0809366005B
:1006400010924A01C1E0C0932301C0936701109248
:10065000410110927B0180E990E00E949311809308
:10066000400180914001887311F0C09340011092C5
:100670006B0110926A018FEF90E090936901809373
:1006800068011092460110924701109248011092A1
:10069000490181E080931A0182E49FE090937A01FE
:1006A0008093790180EB90E00E949311C82F81EB39
:1006B00090E00E949311D82FD0937D01C0937C01CC
:1006C00085E090E00E9493118093800189E090E0A2
:1006D0000E94931180936C018CE090E00E94931132
:1006E00080937E0184E190E00E94931180937F01CA
:1006F0000BE411E084E2E82E81E0F82E97E6C92EA3
:1007000091E0D92EC0E2D0E0CE010E949311B82E24
:10071000CE0101960E9493119B2DF8018193919334
:100720008F01CE01C0960E949311B82ECE01C196C2
:100730000E9493119B2DF701819391937F01229643
:10074000C016D10609F77894DF91CF911F910F91D0
:10075000FF90EF90DF90CF90BF9008950F920FB66B
:100760000F921F9211248F930FB6F894A895809141
:100770006000886180936000109260000FBE8F91CE
:100780001F900F900FBE0F9018953C01EB0110E0E9
:1007900099249A9484E0C82E96E0A92E23E8B22EDC
:1007A00038E1D32E49E2E42EE0911A01E730E0F778
:1007B000F0E0E352FE4E0C94670E111102C0F301FB
:1007C0000995C0921A0111E0FE010995EDCF8091C3
:1007D0004A018111E9C0F894A0927C00B0927A009D
:1007E00080917A00806480937A0080917A0086FDFF
:1007F000FCCF809178009091790078948B3AE2E078
:100800009E070CF0CEC08938F2E09F070CF0CFC0F5
:10081000873692400CF4C8C0559A549A3B9A3A9A3B
:100820003D983C98C1CF0E94B602EFECF7E03197BB
:10083000F1F700C000000E94C402FFEF21EE84E047
:10084000F15020408040E1F700C00000ADCFF894A7
:1008500080B7877F80BF80917A008F7780937A00FE
:1008600014B817B81AB815B818B81BB80FB6F8945A
:10087000A895D09260000FBEE09260008091600069
:1008800080648093600083B7817F846083BFF89425
:1008900083B7816083BF7894889583B78E7F83BF49
:1008A000789410924A01529A5A9A80917A008068FC
:1008B00080937A0087E592E00197F1F700C000008D
:1008C00080B7886180BF559A549A3B9A3A9A3D9A6C
:1008D0003C9AEFE1FEE43197F1F700C0000080910F
:1008E0004A01811152C00E94C4025ECF809118015A
:1008F000811121C01092B3001092B400109219011E
:1009000053CF4899F0CF559A54983B983A983D98D0
:100910003C988FEC97E00197F1F700C000000E942F
:10092000C4029FEFE1EEF4E09150E040F040E1F7C7
:1009300000C0000039CF90911801809119019817DB
:1009400009F432CF80911801809319018091180128
:100950008130A1F1809118011092B3009092B400FF
:100960008230E9F19092B3009092B4008FE295E763
:100970000197F1F700C0000080917F0190917E0106
:100980009093B3008093B4000FCF0E94BD02FFEF9D
:1009900020E782E0F15020408040E1F700C00000F5
:1009A000A2CF0E94B60200CF0E94BD02FDCE559894
:1009B00054983B983A983D9A3C9AF6CE9092B30060
:1009C0001092B4008FE295E70197F1F700C00000A4
:1009D000809180018093B3001092B400E5CEEFE2E5
:1009E000F5E73197F1F700C0000080916C0110929B
:1009F000B3008093B400D8CE9C01892B49F08FECD2
:100A000097E00197F1F700C0000021503109B9F7D4
:100A100008958093B3006093B40008958FEF80939E
:100A2000B3008093B4008FEC97E00197F1F700C01A
:100A300000008FEC97E00197F1F700C000008FEC09
:100A400097E00197F1F700C000008FEC97E0019765
:100A5000F1F700C000008FEC97E00197F1F700C0BC
:100A600000008FEC97E00197F1F700C000008FECD9
:100A700097E00197F1F700C000008FEC97E0019735
:100A8000F1F700C000008FEC97E00197F1F700C08C
:100A900000008FEC97E00197F1F700C000008FECA9
:100AA00097E00197F1F700C000008FEC97E0019705
:100AB000F1F700C000008FEC97E00197F1F700C05C
:100AC00000008FEC97E00197F1F700C000008FEC79
:100AD00097E00197F1F700C00000089580914A0166
:100AE00081111EC0F89487E080937C0083E8809396
:100AF0007A0080917A00806480937A0080917A00F5
:100B000086FDFCCF809178009091790010927C0056
:100B100023EA20937A0021E020937B0078940895C3
:100B20008FEF9FEF089580914A0181111EC0F894C4
:100B300088EC80937C0087E880937A0080917A002B
:100B4000806480937A0080917A0086FDFCCF80914A
:100B500078009091790010927C0023EA20937A002B
:100B600021E020937B00789408958FEF9FEF089504
:100B70001F93CF93DF93F0E0E0E080E016E0D3E84E
:100B8000C3EA71E0A1E0B0E060E8F89410937C0063
:100B9000D0937A0090917A00906490937A0090912B
:100BA0007A0096FDFCCF2091780030917900217079
:100BB00090917A00906490937A0090917A0096FDDB
:100BC000FCCF409178005091790010927C00C09346
:100BD0007A0070937B0078944170241302C06150B6
:100BE000A1F6222339F09D010E2E01C0220F0A9496
:100BF000EAF7822B3196E830F10531F6DF91CF919B
:100C00001F91089520910401822F880F880F880F6B
:100C100028279091170181E0890F80931701822F77
:100C200082958695877082279695969589278093D9
:100C30000401089580930401089580914A0181116F
:100C400016C0F89486E080937C0083E880937A0055
:100C500080917A00806480937A0080917A0086FD8A
:100C6000FCCF8091780090917900789408958FEF6F
:100C70009FEF08952F923F924F925F926F927F92D3
:100C80008F929F92AF92BF92CF92DF92EF92FF929C
:100C90000F931F93CF93DF93CDB7DEB728970FB68F
:100CA000F894DEBF0FBECDBF7C01DC0112960D9023
:100CB000BC91A02DB887AF83A438E3E0BE070CF445
:100CC00077C0DC01ED90FC9080914B0190914C013C
:100CD000DD24DA948E159F0508F43BC200914D0186
:100CE00010914E010E151F0508F44AC300914F01E3
:100CF000109150010E151F0508F447C300915101D2
:100D0000109152010E151F0508F444C300915301C0
:100D1000109154010E151F0508F441C300915501AF
:100D2000109156010E151F0508F43EC3009157019E
:100D3000109158010E151F0508F43FC30091590189
:100D400010915A010E151F0508F440C300915B0174
:100D500010915C010E151F0508F441C300915D015F
:100D600010915E010E151F0508F446C200915F0147
:100D7000109160010E151F0508F43AC3009161013E
:100D8000109162010E151F0508F43BC30091630129
:100D9000109164010E151F0508F43CC30091650114
:100DA000109166010E151F0508F43DC31AE520C118
:100DB00080912401909125018A179B0708F4B1C105
:100DC00000912601109127010A171B0708F4F1C2B0
:100DD00000912801109129010A171B0708F4F2C29B
:100DE00000912A0110912B010A171B0708F4F3C286
:100DF00000912C0110912D010A171B0708F4F8C16E
:100E000000912E0110912F010A171B0708F4ECC264
:100E100000913001109131010A171B0708F4EDC24F
:100E200000913201109133010A171B0708F4EEC23A
:100E300000913401109135010A171B0708F4EFC225
:100E400000913601109137010A171B0708F49BC166
:100E500000913801109139010A171B0708F4E8C204
:100E600000913A0110913B010A171B0708F4E4C2F4
:100E700000913C0110913D010A171B0708F4E0C2E4
:100E800000913E0110913F018DE02DE030E00A1706
:100E90001B0708F47BC1412C512C30ED3D8340E40D
:100EA0004E832CE0C22ED12CF601EE0FFF1FEC5D1D
:100EB000FE4F80819181D801A81BB90B9D0150E0A4
:100EC00040E029833A834B835C83CA01BD010E94C1
:100ED000AA0F9B01AC0169837A838B839C83698110
:100EE0007A818B819C810E94910E5B016C018F81C4
:100EF0009885092E000CAA0BBB0B89839A83AB83C0
:100F0000BC83BC01CD010E94AC0F3B014C01980198
:100F100050E040E029833A834B835C83CA01B801E7
:100F20000E94AA0F1B018C0192014D815E81A98252
:100F3000BA82CB82DC8269817A818B819C810E941A
:100F400061109B01AC0129823A820B831C83698169
:100F50007A818B819C810E94900E9B01AC016982F9
:100F60007A828B829C8269817A818B819C810E94AA
:100F7000900E20E030E040E251E469837A838B8375
:100F80009C8369817A818B819C810E946110698335
:100F90007A838B839C8369817A818B819C810E9477
:100FA000740F8B01A982BA82CB82DC8269817A813B
:100FB0008B819C810E94740F69837A838B839C83CD
:100FC000C80169817A810E94310ED62E4F815885E1
:100FD0004D3B52400CF409C1D701ED90FC9080913B
:100FE0004B0190914C018E159F0508F077CE10E0D3
:100FF000BFEF81E2810FDB1609F4ACC02D2D30E08C
:1010000050E040E029833A834B835C83CA01B901F5
:101010000E94AA0F6B017C01812F90E0B0E0A0E05C
:1010200089839A83AB83BC83BC01CD010E94AA0F44
:101030004B015C012F813885032E000C440B550BAE
:1010400029833A834B835C83CA01B9010E94AC0FA8
:101050008B018E839D839B01AC0160E070E081E693
:1010600094E40E94900E9601A70169837A838B8392
:101070009C8369817A818B819C810E9461106B01C4
:101080007C0120E030E04FE254E409831A838E8132
:101090008B839D819C8369817A818B819C810E9455
:1010A000900E9401A50169837A838B839C83698167
:1010B0007A818B819C810E9461109B01AC01C98265
:1010C000DA82EB82FC8269817A818B819C810E9429
:1010D000910E20E030E048E453E469837A838B8307
:1010E0009C8369817A818B819C810E94020F20E020
:1010F00030E044E052E469837A838B839C83698186
:101100007A818B819C810E94910E69837A838B8383
:101110009C8369817A818B819C810E947B0F862FC1
:1011200019C0AD3BB240ACF0D701ED90FC9080917E
:101130004B0190914C01D12C8E159F0508F0CECD1E
:10114000812C912CA12CB12CC12CD12CE12CF12C77
:1011500071CF81E228960FB6F894DEBF0FBECDBFE7
:10116000DF91CF911F910F91FF90EF90DF90CF9083
:10117000BF90AF909F908F907F906F905F904F90B7
:101180003F902F90089589E029E030E06901F1E077
:10119000CF1AD108282F30E050E040E029833A836D
:1011A0004B835C83CA01B9010E94AA0F20E030E0A2
:1011B00040E05FE369837A838B839C8369817A81D2
:1011C0008B819C810E94611020E030E0A90169833D
:1011D0007A838B839C8369817A818B819C810E9435
:1011E000910E2B018D839E835FCE81E2860FB2CF5D
:1011F00084E024E030E0CACF59E0652EE9E0F0E079
:10120000EE0FFF1FE75BFE4F80819181D801A81B85
:10121000B90B9D0150E040E029833A834B835C8306
:10122000CA01BD010E94AA0F9B01AC0169837A83A8
:101230008B839C8369817A818B819C810E94910E32
:10124000962EA72EB82EC92EC701FF0CAA0BBB0BDA
:1012500089839A83AB83BC83BC01CD010E94AC0F10
:10126000762E872E7C01980150E040E029833A8356
:101270004B835C83CA01B8010E94AA0F2B018C0129
:10128000862D90E0B0E0A0E089839A83AB83BC8395
:10129000BC01CD010E94AA0F20E030E040E05FE3F6
:1012A00069837A838B839C8369817A818B819C811A
:1012B0000E94611020E030E0A90169837A838B836A
:1012C0009C8369817A818B819C810E94910E292D5A
:1012D0003A2D4B2D5C2D69837A838B839C836981A6
:1012E0007A818B819C810E9461109B01AC014982B3
:1012F0005A820B831C8369817A818B819C810E9435
:10130000900E9B01AC0179828A82EB82FC8269811A
:101310007A818B819C810E94900E20E030E040E237
:1013200051E469837A838B839C8369817A818B8181
:101330009C810E94611069837A838B839C8369817D
:101340007A818B819C810E94740F8B019982AA8281
:10135000BB82CC8269817A818B819C810E94740FCF
:1013600069837A838B839C83C80169817A810E9417
:10137000310E162F6F3F09F03BCE81E28D0DEACE84
:1013800066246394E1E0F0E03BCF82E0682EE2E087
:10139000F0E036CFB3E06B2EE3E0F0E031CFA4E035
:1013A0006A2EE4E0F0E02CCFF5E06F2EE5E0F0E00F
:1013B00027CF81E021E030E0E9CEE6E06E2EE6E0E6
:1013C000F0E01ECF82E022E030E0E0CE77E0672E52
:1013D000E7E0F0E015CF83E023E030E0D7CE68E02F
:1013E000662EE8E0F0E00CCF85E025E030E0CECEE0
:1013F0004AE0642EEAE0F0E003CF86E026E030E049
:10140000C5CE3BE0632EEBE0F0E0FACE87E027E0CC
:1014100030E0BCCE2CE0622EECE0F0E0F1CE88E0D3
:1014200028E030E0B3CE9DE0692EEDE0F0E0E8CEBC
:101430008AE02AE030E0AACE8BE02BE030E0A6CEB6
:101440008CE02CE030E0A2CE1F920F920FB60F92EC
:1014500011242F933F934F935F936F937F938F93B9
:101460009F93AF93BF93EF93FF9380916A01909105
:101470006B012091680130916901820F931F909355
:101480006B0180936A018FEF90E0909369018093E4
:1014900068018FEF87BD8091460190914701A0912F
:1014A0004801B09149010196A11DB11D80934601EB
:1014B00090934701A0934801B093490180914A015C
:1014C00081110FC08091790190917A0120916A0178
:1014D00030916B018217930720F480911A018430B8
:1014E00089F0FF91EF91BF91AF919F918F917F9183
:1014F0006F915F914F913F912F910F900FBE0F9081
:101500001F901895E0910701F09108010995009747
:1015100041F30E94A30D882351F0E0910501F09161
:101520000601099510926B0110926A01DACF0E94B0
:1015300083119C019927909369018093680127BDCD
:10154000D0CF80FF11C0559A81FF11C0549A82FFFD
:1015500011C03B9A83FF11C03A9A84FF11C03D9A93
:1015600085FF11C03C9A0895559881FDEFCF54989E
:1015700082FDEFCF3B9883FDEFCF3A9884FDEFCF0C
:101580003D9885FDEFCF3C9808951F921FB61F929E
:1015900011248F939F9310928100109285001092D6
:1015A000840081E0809323018093670110924A01B7
:1015B00010927C0093EA90937A0080937B009F9135
:1015C0008F911F901FBE1F9018951F920F920FB6FC
:1015D0000F9211240F931F932F933F934F935F9379
:1015E0006F937F938F939F93AF93BF93EF93FF93EB
:1015F000CF93DF9300D000D0CDB7DEB72091840029
:101600003091850041E040934A0180912301882375
:10161000D9F11092850010928400409381001092BD
:101620007B0110922301809167018823A1F08091B2
:101630007A0086FDFCCF809178009091790090939C
:1016400045018093440181E080937C0093EA90936C
:101650007A0080937B000F900F900F900F90DF9196
:10166000CF91FF91EF91BF91AF919F918F917F911A
:101670006F915F914F913F912F911F910F910F901B
:101680000FBE0F901F901895C90187589109843794
:101690009940A0F010928100109285001092840071
:1016A000409323014093670110924A0110927C00FD
:1016B00083EA80937A0040937B00CDCF265831098E
:1016C000A4EFB0E00E946D0E69837A838B839C83C4
:1016D0008C0122273327883008F465C0409323010A
:1016E0008091670181113CC080914101E82FF0E0B9
:1016F000E359FE4F90917B0190838F5F809341016E
:101700008C3009F0A8CF10928100109285001092C1
:1017100084004093670110924A0100917701109173
:1017200078018DE691E00E94EB0C0817190709F08B
:1017300092CFE0917601E7FF48C098E79E0F933083
:1017400030F0539823981092B4001092B300E058F0
:10175000EB3008F080CFF0E0EC51FE4E0C94670EB9
:1017600080917A0086FDFCCF80917800909179007D
:10177000909343018093420110927C0083EA80930E
:101780007A0081E080937B0090917B019923C1F0E6
:10179000109281001092850010928400809367015E
:1017A00010924A0158CF81E090E09C0101C0220FC5
:1017B0000A95EAF780917B01822B80937B014BCFC6
:1017C000109267011092410146CFE0910901F0911A
:1017D0000A0162E471E08DE691E009953CCF8091C9
:1017E0006D01823009F481C008F068C0882309F4D3
:1017F000BAC080916E0190916F0190937D018093AA
:101800007C011092180180911A01863009F423CFCF
:10181000539A239A1092B4001092B30086E08093FA
:101820001A0119CF80911A01863079F0539A239AC0
:101830001092B4001092B3000E94C40210921801DA
:101840001092190186E080931A0120916D0181E0C8
:1018500090E002C0880F991F2A95E2F720917C0141
:1018600030917D0182239323892B09F479C081E093
:1018700080931801F0CE82E080931A01ECCE85E0CF
:1018800080931A01E8CE81E080931A01E4CE109291
:101890001A01E1CE80911A01833009F4DCCE8091E7
:1018A0001A01843009F4D7CE539A239A1092B400C7
:1018B0001092B30083E080931A01CDCE833061F1A2
:1018C000843009F0A0CF209118018091730190918C
:1018D00072012330C1F01092190123E02093180106
:1018E00090937E0180937F018ECF9091180180911B
:1018F00070019130F9F01092190191E09093180164
:101900008093800180CF20917F012813E4CF209124
:101910007E012913E0CF77CF90911801809171015A
:10192000923069F01092190192E09093180180931F
:101930006C0169CF909180019813DDCF64CF9091B5
:101940006C019813EFCF5FCFF0E0E0E00995809154
:101950006E008D7F80936E0016BCE0E0F0E7099585
:101960001092180178CE80911A01863009F073CE5A
:1019700060917C0180EB90E00E949B1160917D0161
:1019800081EB90E00E949B116091800185E090E0E6
:101990000E949B1160916C0189E090E00E949B1174
:1019A00060917E018CE090E00E949B1160917F012C
:1019B00084E190E00E949B11539823981092B40008
:1019C0001092B30081E080931A0180916D01882309
:1019D00009F441CE18CFFC0120818FEF9FEF8227C1
:1019E000082E8295807F8025092E982F82958F70F2
:1019F0000826869598278927880F880F880F8025C5
:101A000021818227082E8295807F8025092E982F9C
:101A100082958F700826869598278927880F880FCA
:101A2000880F802522818227082E8295807F80253D
:101A3000092E982F82958F700826869598278927DA
:101A4000880F880F880F802523818227082E829592
:101A5000807F8025092E982F82958F700826869585
:101A600098278927880F880F880F8025248182274F
:101A7000082E8295807F8025092E982F82958F7061
:101A80000826869598278927880F880F880F802534
:101A900025818227082E8295807F8025092E982F08
:101AA00082958F700826869598278927880F880F3A
:101AB000880F802526818227082E8295807F8025A9
:101AC000092E982F82958F7008268695982789274A
:101AD000880F880F880F802527818227082E8295FE
:101AE000807F8025092E982F82958F7008268695F5
:101AF00098278927880F880F880F802520858227BF
:101B0000082E8295807F8025092E982F82958F70D0
:101B10000826869598278927880F880F880F8025A3
:101B200021858227082E8295807F8025092E982F77
:101B300082958F700826869598278927880F880FA9
:101B4000880F802508950FB6F894A4B12091400124
:101B50002A2B24B921E030914001203029F00000E7
:101B600025B1232B25B904C000000000000000C0EF
:101B7000000000000000309525B1232325B92EEA8E
:101B80002A95F1F72BEE30B735FF0AC0A4B9309192
:101B90004001309525B1232325B90FBE80E008957B
:101BA00000002A9581F721E030914001203029F092
:101BB000000025B1232B25B904C00000000000005F
:101BC00000C0000000000000309525B1232325B996
:101BD000000024E52A95F1F7FC018CE0619170E0AA
:101BE000660F771F616072609AE041E050E09A01F1
:101BF00026233723232B30914001203029F0000089
:101C000025B1232B25B904C000000000000000C04E
:101C1000000000000000309525B1232325B9000005
:101C200021E52A95F1F7440F551F9A9501F78A95FA
:101C3000A9F620B7206120BFA4B9309140013095AA
:101C400025B1232325B90FBE81E008950E94CB0260
:101C500062E072E08FE590E00E94C50390E080E0D2
:101C6000089597FB072E16F4009407D077FD09D04E
:101C70000E947C0E07FC05D03EF4909581959F4F05
:101C80000895709561957F4F0895A1E21A2EAA1BC1
:101C9000BB1BFD010DC0AA1FBB1FEE1FFF1FA2171C
:101CA000B307E407F50720F0A21BB30BE40BF50B19
:101CB000661F771F881F991F1A9469F760957095A2
:101CC000809590959B01AC01BD01CF010895EE0F69
:101CD000FF1F0590F491E02D0994A29FB001B39FDE
:101CE000C001A39F700D811D1124911DB29F700D25
:101CF000811D1124911D0895AA1BBB1B51E107C032
:101D0000AA1FBB1FA617B70710F0A61BB70B881F8B
:101D1000991F5A95A9F780959095BC01CD0108951A
:101D20005058BB27AA270E94A80E0C9422100E948C
:101D3000141038F00E941B1020F039F49F3F19F462
:101D400026F40C9411100EF4E095E7FB0C940B10A4
:101D5000E92F0E94331058F3BA17620773078407FC
:101D6000950720F079F4A6F50C9455100EF4E09543
:101D70000B2EBA2FA02D0B01B90190010C01CA0145
:101D8000A0011124FF27591B99F0593F50F4503EF0
:101D900068F11A16F040A22F232F342F4427585FE2
:101DA000F3CF469537952795A795F0405395C9F7FA
:101DB0007EF41F16BA0B620B730B840BBAF09150B2
:101DC000A1F0FF0FBB1F661F771F881FC2F70EC051
:101DD000BA0F621F731F841F48F487957795679524
:101DE000B795F7959E3F08F0B0CF9395880F08F010
:101DF0009927EE0F9795879508950E94E70F08F4AD
:101E000081E008950E94160F0C9422100E941B106E
:101E100058F00E94141040F029F45F3F29F00C9410
:101E20000B1051110C9456100C9411100E94331089
:101E300068F39923B1F3552391F3951B550BBB27F9
:101E4000AA2762177307840738F09F5F5F4F220F3E
:101E5000331F441FAA1FA9F335D00E2E3AF0E0E835
:101E600032D091505040E695001CCAF72BD0FE2F7F
:101E700029D0660F771F881FBB1F26173707480713
:101E8000AB07B0E809F0BB0B802DBF01FF279358CB
:101E90005F4F3AF09E3F510578F00C940B100C9474
:101EA00056105F3FE4F3983ED4F386957795679597
:101EB000B795F7959F5FC9F7880F911D9695879500
:101EC00097F90895E1E0660F771F881FBB1F62171F
:101ED00073078407BA0720F0621B730B840BBA0BDD
:101EE000EE1F88F7E09508950E947B0F6894B1116A
:101EF0000C94561008950E943B1088F09F5798F05C
:101F0000B92F9927B751B0F0E1F0660F771F881FFE
:101F1000991F1AF0BA95C9F714C0B13091F00E9418
:101F20005510B1E008950C945510672F782F88272D
:101F3000B85F39F0B93FCCF3869577956795B3953F
:101F4000D9F73EF490958095709561957F4F8F4FAE
:101F50009F4F0895E89409C097FB3EF490958095B3
:101F6000709561957F4F8F4F9F4F9923A9F0F92F5F
:101F700096E9BB279395F695879577956795B795DD
:101F8000F111F8CFFAF4BB0F11F460FF1BC06F5FC3
:101F90007F4F8F4F9F4F16C0882311F096E911C0D5
:101FA000772321F09EE8872F762F05C0662371F0F6
:101FB00096E8862F70E060E02AF09A95660F771F0A
:101FC000881FDAF7880F9695879597F90895990FE6
:101FD0000008550FAA0BE0E8FEEF16161706E807F3
:101FE000F907C0F012161306E407F50798F0621B14
:101FF000730B840B950B39F40A2661F0232B242BE9
:10200000252B21F408950A2609F4A140A6958FEF07
:10201000811D811D089597F99F6780E870E060E059
:1020200008959FEF80EC089500240A941616170671
:1020300018060906089500240A94121613061406B9
:1020400005060895092E0394000C11F4882352F01C
:10205000BB0F40F4BF2B11F460FF04C06F5F7F4FD4
:102060008F4F9F4F089557FD9058440F551F59F0BB
:102070005F3F71F04795880F97FB991F61F09F3F75
:1020800079F087950895121613061406551FF2CF9E
:102090004695F1DF08C0161617061806991FF1CFEE
:1020A00086957105610508940895E894BB27662715
:1020B0007727CB0197F908950E94E70F08F48FEF77
:1020C00008950E9474100C9422100E94141038F08D
:1020D0000E941B1020F0952311F00C940B100C940F
:1020E000111011240C9456100E94331070F3959F18
:1020F000C1F3950F50E0551F629FF001729FBB27FF
:10210000F00DB11D639FAA27F00DB11DAA1F649F9A
:102110006627B00DA11D661F829F2227B00DA11D4D
:10212000621F739FB00DA11D621F839FA00D611DD3
:10213000221F749F3327A00D611D231F849F600DF4
:10214000211D822F762F6A2F11249F5750409AF01D
:10215000F1F088234AF0EE0FFF1FBB1F661F771FA9
:10216000881F91505040A9F79E3F510580F00C9474
:102170000B100C9456105F3FE4F3983ED4F3869511
:1021800077956795B795F795E7959F5FC1F7FE2B14
:10219000880F911D9695879597F908950E943B1099
:1021A000E8F09E37E8F09639B8F49E3848F4672F87
:1021B000782F8827985FF9CF8695779567959395BF
:1021C0009539D0F3B62FB1706B0F711D811D20F4BE
:1021D00087957795679593950C94F2100C940D1153
:1021E0000C945610882371F4772321F09850872B94
:1021F000762F07C0662311F499270DC09051862BC6
:1022000070E060E02AF09A95660F771F881FDAF772
:10221000880F9695879597F908959F3F31F09150D3
:1022200020F4879577956795B795880F911D9695BA
:10223000879597F90895CF92DF92EF92FF92CF930F
:10224000DF93CDB7DEB72A970FB6F894DEBF0FBE87
:10225000CDBF89879A87A985BA852D913D914D91EA
:102260005C9129833A834B835C83232B242B252B7E
:1022700041F424E239ED4BE557E029833A834B835F
:102280005C8369817A818B819C812DE133EF41E010
:1022900050E00E94A91169017A01A7EAB1E49B010B
:1022A000AC010E94C81169837A838B839C83ACEE56
:1022B000B4EFA70196010E94D6119B01AC01898160
:1022C0009A81AB81BC81820F931FA41FB51FB7FFFA
:1022D00003C00197A109B048E985FA8580839183FD
:1022E000A283B3839F772A960FB6F894DEBF0FBE02
:1022F000CDBFDF91CF91FF90EF90DF90CF90089509
:102300000E941B1108958BE091E00E941B1108951B
:10231000B0E0A0E080930B0190930C01A0930D011D
:10232000B0930E010895F999FECF92BD81BDF89A40
:10233000992780B50895262FF999FECF1FBA92BD2F
:1023400081BD20BD0FB6F894FA9AF99A0FBE019696
:102350000895052E97FB1EF400940E94C01157FDAE
:1023600007D00E94450E07FC03D04EF40C94C01118
:1023700050954095309521953F4F4F4F5F4F0895B1
:1023800090958095709561957F4F8F4F9F4F0895E1
:102390000E946D0EA59F900DB49F900DA49F800D7F
:1023A000911D11240895B7FF0C94C8110E94C81103
:1023B000821B930B0895F894FFCF27041304E703BF
:1023C000DD03E40381047604A70C2B0B2B0BA40C78
:0E23D000470C430C3F0C3B0C4A0C120CEF0B5D
:1023DE0001010004AAB502B202B102010000000020
:00000001FF
